8=FIXT.1.1|9=72|35=A|34=1|49=EXEC|52=20191218-09:20:31.432|56=BANZAI|98=0|108=20|1137=9|10=105|8=FIXT.1.1|9=53|35=0|34=2|49=EXEC|52=20191218-09:20:51.937|56=BANZAI|10=009|8=FIXT.1.1|9=53|35=0|34=3|49=EXEC|52=20191218-09:21:11.937|56=BANZAI|10=007|8=FIXT.1.1|9=53|35=0|34=4|49=EXEC|52=20191218-09:21:31.937|56=BANZAI|10=010|8=FIXT.1.1|9=53|35=0|34=5|49=EXEC|52=20191218-09:21:51.937|56=BANZAI|10=013|8=FIXT.1.1|9=53|35=0|34=6|49=EXEC|52=20191218-09:22:11.937|56=BANZAI|10=011|8=FIXT.1.1|9=53|35=0|34=7|49=EXEC|52=20191218-09:22:31.937|56=BANZAI|10=014|8=FIXT.1.1|9=53|35=0|34=8|49=EXEC|52=20191218-09:22:51.937|56=BANZAI|10=017|8=FIXT.1.1|9=53|35=0|34=9|49=EXEC|52=20191218-09:23:11.937|56=BANZAI|10=015|8=FIXT.1.1|9=54|35=0|34=10|49=EXEC|52=20191218-09:23:31.937|56=BANZAI|10=058|8=FIXT.1.1|9=54|35=0|34=11|49=EXEC|52=20191218-09:23:51.937|56=BANZAI|10=061|8=FIXT.1.1|9=54|35=0|34=12|49=EXEC|52=20191218-09:24:11.936|56=BANZAI|10=058|8=FIXT.1.1|9=54|35=0|34=13|49=EXEC|52=20191218-09:24:31.937|56=BANZAI|10=062|8=FIXT.1.1|9=54|35=0|34=14|49=EXEC|52=20191218-09:24:51.937|56=BANZAI|10=065|8=FIXT.1.1|9=54|35=0|34=15|49=EXEC|52=20191218-09:25:11.937|56=BANZAI|10=063|8=FIXT.1.1|9=54|35=0|34=16|49=EXEC|52=20191218-09:25:31.936|56=BANZAI|10=065|8=FIXT.1.1|9=54|35=0|34=17|49=EXEC|52=20191218-09:25:51.936|56=BANZAI|10=068|8=FIXT.1.1|9=73|35=A|34=18|49=EXEC|52=20191218-09:27:15.307|56=BANZAI|98=0|108=20|1137=9|10=172|8=FIXT.1.1|9=54|35=0|34=19|49=EXEC|52=20191218-09:27:35.298|56=BANZAI|10=075|8=FIXT.1.1|9=54|35=0|34=20|49=EXEC|52=20191218-09:27:55.937|56=BANZAI|10=069|8=FIXT.1.1|9=63|35=0|34=21|49=EXEC|52=20191218-09:28:01.768|56=BANZAI|112=TEST|10=082|8=FIXT.1.1|9=54|35=0|34=22|49=EXEC|52=20191218-09:28:21.770|56=BANZAI|10=060|8=FIXT.1.1|9=54|35=0|34=23|49=EXEC|52=20191218-09:28:41.937|56=BANZAI|10=068|8=FIXT.1.1|9=54|35=0|34=24|49=EXEC|52=20191218-09:29:01.937|56=BANZAI|10=066|8=FIXT.1.1|9=54|35=0|34=25|49=EXEC|52=20191218-09:29:21.937|56=BANZAI|10=069|8=FIXT.1.1|9=63|35=1|34=26|49=EXEC|52=20191218-09:29:37.937|56=BANZAI|112=TEST|10=096|8=FIXT.1.1|9=73|35=A|34=27|49=EXEC|52=20191218-09:32:26.833|56=BANZAI|98=0|108=20|1137=9|10=174|8=FIXT.1.1|9=64|35=2|34=28|49=EXEC|52=20191218-09:32:26.850|56=BANZAI|7=25|16=0|10=245|8=FIXT.1.1|9=54|35=0|34=29|49=EXEC|52=20191218-09:32:46.937|56=BANZAI|10=074|8=FIXT.1.1|9=63|35=1|34=30|49=EXEC|52=20191218-09:32:56.937|56=BANZAI|112=TEST|10=086|8=FIXT.1.1|9=73|35=A|34=31|49=EXEC|52=20191218-09:35:48.337|56=BANZAI|98=0|108=20|1137=9|10=175|8=FIXT.1.1|9=214|35=8|34=32|49=EXEC|52=20191218-09:35:52.648|56=BANZAI|6=0|11=c86183b1-2179-11ea-bb3d-7427ea59c5e5|14=0|17=4409a904-fc14-4f81-ac92-e3a9c808fda7|37=0a6e4c11-bf24-4c3e-ba3d-45d5adb5c1a6|39=0|54=1|55=AAAU|150=0|151=10|10=097|8=FIXT.1.1|9=54|35=0|34=33|49=EXEC|52=20191218-09:36:12.937|56=BANZAI|10=066|8=FIXT.1.1|9=54|35=0|34=34|49=EXEC|52=20191218-09:36:32.937|56=BANZAI|10=069|8=FIXT.1.1|9=54|35=0|34=35|49=EXEC|52=20191218-09:36:52.937|56=BANZAI|10=072|8=FIXT.1.1|9=54|35=0|34=36|49=EXEC|52=20191218-09:37:12.936|56=BANZAI|10=069|8=FIXT.1.1|9=54|35=0|34=37|49=EXEC|52=20191218-09:37:32.937|56=BANZAI|10=073|8=FIXT.1.1|9=54|35=0|34=38|49=EXEC|52=20191218-09:37:52.937|56=BANZAI|10=076|8=FIXT.1.1|9=54|35=0|34=39|49=EXEC|52=20191218-09:38:12.936|56=BANZAI|10=073|8=FIXT.1.1|9=54|35=0|34=40|49=EXEC|52=20191218-09:38:32.937|56=BANZAI|10=068|8=FIXT.1.1|9=54|35=0|34=41|49=EXEC|52=20191218-09:38:52.937|56=BANZAI|10=071|8=FIXT.1.1|9=54|35=0|34=42|49=EXEC|52=20191218-09:39:12.937|56=BANZAI|10=069|8=FIXT.1.1|9=54|35=0|34=43|49=EXEC|52=20191218-09:39:32.937|56=BANZAI|10=072|8=FIXT.1.1|9=54|35=0|34=44|49=EXEC|52=20191218-09:39:52.936|56=BANZAI|10=074|8=FIXT.1.1|9=54|35=0|34=45|49=EXEC|52=20191218-09:40:12.937|56=BANZAI|10=064|8=FIXT.1.1|9=54|35=0|34=46|49=EXEC|52=20191218-09:40:32.937|56=BANZAI|10=067|8=FIXT.1.1|9=54|35=0|34=47|49=EXEC|52=20191218-09:40:52.936|56=BANZAI|10=069|8=FIXT.1.1|9=54|35=0|34=48|49=EXEC|52=20191218-09:41:12.937|56=BANZAI|10=068|8=FIXT.1.1|9=54|35=0|34=49|49=EXEC|52=20191218-09:41:32.937|56=BANZAI|10=071|8=FIXT.1.1|9=54|35=0|34=50|49=EXEC|52=20191218-09:41:52.936|56=BANZAI|10=064|8=FIXT.1.1|9=54|35=0|34=51|49=EXEC|52=20191218-09:42:12.936|56=BANZAI|10=062|8=FIXT.1.1|9=54|35=0|34=52|49=EXEC|52=20191218-09:42:32.937|56=BANZAI|10=066|8=FIXT.1.1|9=54|35=0|34=53|49=EXEC|52=20191218-09:42:52.937|56=BANZAI|10=069|8=FIXT.1.1|9=54|35=0|34=54|49=EXEC|52=20191218-09:43:12.936|56=BANZAI|10=066|8=FIXT.1.1|9=54|35=0|34=55|49=EXEC|52=20191218-09:43:32.936|56=BANZAI|10=069|8=FIXT.1.1|9=54|35=0|34=56|49=EXEC|52=20191218-09:43:52.936|56=BANZAI|10=072|8=FIXT.1.1|9=54|35=0|34=57|49=EXEC|52=20191218-09:44:12.936|56=BANZAI|10=070|8=FIXT.1.1|9=54|35=0|34=58|49=EXEC|52=20191218-09:44:32.936|56=BANZAI|10=073|8=FIXT.1.1|9=54|35=0|34=59|49=EXEC|52=20191218-09:44:52.936|56=BANZAI|10=076|8=FIXT.1.1|9=54|35=0|34=60|49=EXEC|52=20191218-09:45:12.936|56=BANZAI|10=065|8=FIXT.1.1|9=54|35=0|34=61|49=EXEC|52=20191218-09:45:32.937|56=BANZAI|10=069|8=FIXT.1.1|9=54|35=0|34=62|49=EXEC|52=20191218-09:45:52.937|56=BANZAI|10=072|8=FIXT.1.1|9=54|35=0|34=63|49=EXEC|52=20191218-09:46:12.937|56=BANZAI|10=070|8=FIXT.1.1|9=54|35=0|34=64|49=EXEC|52=20191218-09:46:32.937|56=BANZAI|10=073|8=FIXT.1.1|9=54|35=0|34=65|49=EXEC|52=20191218-09:46:53.056|56=BANZAI|10=069|8=FIXT.1.1|9=54|35=0|34=66|49=EXEC|52=20191218-09:47:13.159|56=BANZAI|10=071|8=FIXT.1.1|9=54|35=0|34=67|49=EXEC|52=20191218-09:47:33.161|56=BANZAI|10=067|8=FIXT.1.1|9=73|35=A|34=68|49=EXEC|52=20191218-12:20:19.215|56=BANZAI|98=0|108=20|1137=9|10=166|8=FIXT.1.1|9=54|35=0|34=69|49=EXEC|52=20191218-12:20:39.408|56=BANZAI|10=064|8=FIXT.1.1|9=214|35=8|34=70|49=EXEC|52=20191218-12:20:55.595|56=BANZAI|6=0|11=d706cdd1-2190-11ea-9e49-7427ea59c5e5|14=0|17=86f0b655-64b5-4755-93e1-6e22f32e634a|37=4df98520-aceb-4f94-bb9b-c37908fb5628|39=0|54=1|55=AAAU|150=0|151=10|10=067|8=FIXT.1.1|9=54|35=0|34=71|49=EXEC|52=20191218-12:21:16.408|56=BANZAI|10=053|8=FIXT.1.1|9=54|35=0|34=72|49=EXEC|52=20191218-12:21:36.408|56=BANZAI|10=056|8=FIXT.1.1|9=54|35=0|34=73|49=EXEC|52=20191218-12:21:56.408|56=BANZAI|10=059|8=FIXT.1.1|9=54|35=0|34=74|49=EXEC|52=20191218-12:22:16.408|56=BANZAI|10=057|8=FIXT.1.1|9=54|35=0|34=75|49=EXEC|52=20191218-12:22:36.408|56=BANZAI|10=060|8=FIXT.1.1|9=54|35=0|34=76|49=EXEC|52=20191218-12:22:56.408|56=BANZAI|10=063|8=FIXT.1.1|9=54|35=0|34=77|49=EXEC|52=20191218-12:23:16.408|56=BANZAI|10=061|8=FIXT.1.1|9=54|35=0|34=78|49=EXEC|52=20191218-12:23:36.408|56=BANZAI|10=064|8=FIXT.1.1|9=54|35=0|34=79|49=EXEC|52=20191218-12:23:56.408|56=BANZAI|10=067|8=FIXT.1.1|9=54|35=0|34=80|49=EXEC|52=20191218-12:24:16.408|56=BANZAI|10=056|8=FIXT.1.1|9=54|35=0|34=81|49=EXEC|52=20191218-12:24:36.408|56=BANZAI|10=059|8=FIXT.1.1|9=54|35=0|34=82|49=EXEC|52=20191218-12:24:56.408|56=BANZAI|10=062|8=FIXT.1.1|9=54|35=0|34=83|49=EXEC|52=20191218-12:25:16.408|56=BANZAI|10=060|8=FIXT.1.1|9=54|35=0|34=84|49=EXEC|52=20191218-12:25:36.408|56=BANZAI|10=063|8=FIXT.1.1|9=54|35=0|34=85|49=EXEC|52=20191218-12:25:56.408|56=BANZAI|10=066|8=FIXT.1.1|9=54|35=0|34=86|49=EXEC|52=20191218-12:26:16.408|56=BANZAI|10=064|8=FIXT.1.1|9=54|35=0|34=87|49=EXEC|52=20191218-12:26:36.408|56=BANZAI|10=067|8=FIXT.1.1|9=54|35=0|34=88|49=EXEC|52=20191218-12:26:56.408|56=BANZAI|10=070|8=FIXT.1.1|9=54|35=0|34=89|49=EXEC|52=20191218-12:27:16.408|56=BANZAI|10=068|8=FIXT.1.1|9=54|35=0|34=90|49=EXEC|52=20191218-12:27:36.408|56=BANZAI|10=062|8=FIXT.1.1|9=54|35=0|34=91|49=EXEC|52=20191218-12:27:56.408|56=BANZAI|10=065|8=FIXT.1.1|9=54|35=0|34=92|49=EXEC|52=20191218-12:28:16.408|56=BANZAI|10=063|8=FIXT.1.1|9=54|35=0|34=93|49=EXEC|52=20191218-12:28:36.408|56=BANZAI|10=066|8=FIXT.1.1|9=54|35=0|34=94|49=EXEC|52=20191218-12:28:56.408|56=BANZAI|10=069|8=FIXT.1.1|9=54|35=0|34=95|49=EXEC|52=20191218-12:29:16.408|56=BANZAI|10=067|8=FIXT.1.1|9=54|35=0|34=96|49=EXEC|52=20191218-12:29:36.408|56=BANZAI|10=070|8=FIXT.1.1|9=54|35=0|34=97|49=EXEC|52=20191218-12:29:56.408|56=BANZAI|10=073|8=FIXT.1.1|9=54|35=0|34=98|49=EXEC|52=20191218-12:30:16.408|56=BANZAI|10=062|8=FIXT.1.1|9=214|35=8|34=99|49=EXEC|52=20191218-12:30:21.357|56=BANZAI|6=0|11=28507ced-2192-11ea-9e49-7427ea59c5e5|14=0|17=ea8e4e86-9c28-4928-804a-ea65385ca3fe|37=3722e36f-f539-4f95-a715-8a18b3bec08c|39=0|54=1|55=AAAU|150=0|151=10|10=128|8=FIXT.1.1|9=55|35=0|34=100|49=EXEC|52=20191218-12:30:41.359|56=BANZAI|10=098|8=FIXT.1.1|9=55|35=0|34=101|49=EXEC|52=20191218-12:31:01.408|56=BANZAI|10=091|8=FIXT.1.1|9=74|35=A|34=102|49=EXEC|52=20191218-12:45:16.604|56=BANZAI|98=0|108=20|1137=9|10=210|8=FIXT.1.1|9=215|35=8|34=103|49=EXEC|52=20191218-12:45:37.161|56=BANZAI|6=0|11=4a1ae324-2194-11ea-91a5-7427ea59c5e5|14=0|17=5acf639f-30e6-4521-b978-eaacfe65a723|37=b38cccd2-93c7-49e1-963b-a54bf834c4c8|39=0|54=1|55=AAAU|150=0|151=10|10=021|8=FIXT.1.1|9=64|35=0|34=104|49=EXEC|52=20191218-12:45:42.188|56=BANZAI|112=TEST|10=127|8=FIXT.1.1|9=55|35=0|34=105|49=EXEC|52=20191218-12:46:02.192|56=BANZAI|10=102|8=FIXT.1.1|9=211|35=8|34=106|49=EXEC|52=20191218-12:46:04.308|56=BANZAI|11=4a1ae324-2194-11ea-91a5-7427ea59c5e5|14=0|17=d90cba25-38dd-4bfa-861e-dcaf98977d4f|37=b38cccd2-93c7-49e1-963b-a54bf834c4c8|39=4|54=1|55=AAAU|150=4|151=10|10=016|8=FIXT.1.1|9=55|35=0|34=107|49=EXEC|52=20191218-12:46:24.397|56=BANZAI|10=115|8=FIXT.1.1|9=64|35=1|34=108|49=EXEC|52=20191218-12:46:34.397|56=BANZAI|112=TEST|10=136|8=FIXT.1.1|9=74|35=A|34=109|49=EXEC|52=20191218-12:49:39.438|56=BANZAI|98=0|108=20|1137=9|10=231|8=FIXT.1.1|9=66|35=2|34=110|49=EXEC|52=20191218-12:49:39.441|56=BANZAI|7=106|16=0|10=081|8=FIXT.1.1|9=215|35=8|34=111|49=EXEC|52=20191218-12:49:39.445|56=BANZAI|6=0|11=955973b6-2194-11ea-91a5-7427ea59c5e5|14=0|17=667df21a-ec23-47f5-94a4-584fe758cbae|37=7cd063e5-b240-4204-b720-11fc917d42fa|39=0|54=1|55=AAAU|150=0|151=10|10=048|8=FIXT.1.1|9=215|35=8|34=112|49=EXEC|52=20191218-12:49:39.447|56=BANZAI|6=0|11=9ea9f204-2194-11ea-91a5-7427ea59c5e5|14=0|17=3bff7dcf-9a0b-4dcc-bf5e-48bb194aa323|37=f92201fd-2466-4a4d-ba93-7ea07635e5a2|39=0|54=1|55=AAAU|150=0|151=10|10=161|8=FIXT.1.1|9=215|35=8|34=113|49=EXEC|52=20191218-12:49:47.661|56=BANZAI|6=0|11=df7c5050-2194-11ea-a14a-7427ea59c5e5|14=0|17=3140f892-a0af-46ab-8797-66dbdcc32448|37=7c3aada4-33de-419d-acb5-7df45c7c011e|39=0|54=1|55=AAAU|150=0|151=10|10=100|8=FIXT.1.1|9=55|35=0|34=114|49=EXEC|52=20191218-12:50:07.663|56=BANZAI|10=105|8=FIXT.1.1|9=211|35=8|34=115|49=EXEC|52=20191218-12:50:13.821|56=BANZAI|11=df7c5050-2194-11ea-a14a-7427ea59c5e5|14=0|17=8affea49-f199-42a0-937e-4e2be2c47a14|37=7c3aada4-33de-419d-acb5-7df45c7c011e|39=4|54=1|55=AAAU|150=4|151=10|10=023|8=FIXT.1.1|9=55|35=0|34=116|49=EXEC|52=20191218-12:50:34.397|56=BANZAI|10=111|8=FIXT.1.1|9=64|35=1|34=117|49=EXEC|52=20191218-12:50:44.397|56=BANZAI|112=TEST|10=132|