8=FIXT.1.1|9=72|35=A|34=1|49=BANZAI|52=20200228-11:56:41.964|56=EXEC|98=0|108=20|1137=9|10=110|
8=FIXT.1.1|9=72|35=A|34=1|49=EXEC|52=20200228-11:56:42.144|56=BANZAI|98=0|108=20|1137=9|10=101|
8=FIXT.1.1|9=53|35=0|34=2|49=BANZAI|52=20200228-11:57:01.968|56=EXEC|10=003|
8=FIXT.1.1|9=53|35=0|34=2|49=EXEC|52=20200228-11:57:02.307|56=BANZAI|10=247|
8=FIXT.1.1|9=53|35=0|34=3|49=BANZAI|52=20200228-11:57:21.973|56=EXEC|10=002|
8=FIXT.1.1|9=53|35=0|34=3|49=EXEC|52=20200228-11:57:22.307|56=BANZAI|10=250|
8=FIXT.1.1|9=53|35=0|34=4|49=BANZAI|52=20200228-11:57:41.975|56=EXEC|10=007|
8=FIXT.1.1|9=53|35=0|34=4|49=EXEC|52=20200228-11:57:42.307|56=BANZAI|10=253|
8=FIXT.1.1|9=53|35=0|34=5|49=BANZAI|52=20200228-11:58:01.978|56=EXEC|10=008|
8=FIXT.1.1|9=53|35=0|34=5|49=EXEC|52=20200228-11:58:02.307|56=BANZAI|10=251|
8=FIXT.1.1|9=53|35=0|34=6|49=BANZAI|52=20200228-11:58:21.981|56=EXEC|10=005|
8=FIXT.1.1|9=53|35=0|34=6|49=EXEC|52=20200228-11:58:22.307|56=BANZAI|10=254|
8=FIXT.1.1|9=53|35=0|34=7|49=BANZAI|52=20200228-11:58:41.983|56=EXEC|10=010|
8=FIXT.1.1|9=53|35=0|34=7|49=EXEC|52=20200228-11:58:42.307|56=BANZAI|10=001|
8=FIXT.1.1|9=53|35=0|34=8|49=BANZAI|52=20200228-11:59:01.987|56=EXEC|10=012|
8=FIXT.1.1|9=53|35=0|34=8|49=EXEC|52=20200228-11:59:02.307|56=BANZAI|10=255|
8=FIXT.1.1|9=53|35=0|34=9|49=BANZAI|52=20200228-11:59:21.991|56=EXEC|10=010|
8=FIXT.1.1|9=53|35=0|34=9|49=EXEC|52=20200228-11:59:22.307|56=BANZAI|10=002|
8=FIXT.1.1|9=54|35=0|34=10|49=BANZAI|52=20200228-11:59:41.994|56=EXEC|10=056|
8=FIXT.1.1|9=54|35=0|34=10|49=EXEC|52=20200228-11:59:42.307|56=BANZAI|10=045|
8=FIXT.1.1|9=54|35=0|34=11|49=BANZAI|52=20200228-12:00:01.996|56=EXEC|10=042|
8=FIXT.1.1|9=54|35=0|34=11|49=EXEC|52=20200228-12:00:02.307|56=BANZAI|10=029|
8=FIXT.1.1|9=54|35=0|34=12|49=BANZAI|52=20200228-12:00:21.999|56=EXEC|10=048|
8=FIXT.1.1|9=54|35=0|34=12|49=EXEC|52=20200228-12:00:22.307|56=BANZAI|10=032|
8=FIXT.1.1|9=54|35=0|34=13|49=BANZAI|52=20200228-12:00:42.002|56=EXEC|10=027|
8=FIXT.1.1|9=54|35=0|34=13|49=EXEC|52=20200228-12:00:42.307|56=BANZAI|10=035|
8=FIXT.1.1|9=54|35=0|34=14|49=BANZAI|52=20200228-12:01:02.006|56=EXEC|10=029|
8=FIXT.1.1|9=54|35=0|34=14|49=EXEC|52=20200228-12:01:02.307|56=BANZAI|10=033|
8=FIXT.1.1|9=54|35=0|34=15|49=BANZAI|52=20200228-12:01:22.014|56=EXEC|10=031|
8=FIXT.1.1|9=54|35=0|34=15|49=EXEC|52=20200228-12:01:22.307|56=BANZAI|10=036|
8=FIXT.1.1|9=149|35=D|34=16|49=BANZAI|52=20200228-12:01:25.807|56=EXEC|11=0b974cf2-5a22-11ea-9c98-7427ea59c5e5|38=10|40=7|44=20|54=1|55=MSFT|60=20200228-12:01:25.807|10=214|
8=FIXT.1.1|9=214|35=8|34=16|49=EXEC|52=20200228-12:01:25.893|56=BANZAI|6=0|11=0b974cf2-5a22-11ea-9c98-7427ea59c5e5|14=0|17=53d9fd92-c474-4435-aba1-6c7ebd371c18|37=fe327d32-7cf6-4f00-8489-ee12b49f592f|39=0|54=1|55=MSFT|150=0|151=10|10=185|
8=FIXT.1.1|9=54|35=0|34=17|49=BANZAI|52=20200228-12:01:45.810|56=EXEC|10=042|
8=FIXT.1.1|9=54|35=0|34=17|49=EXEC|52=20200228-12:01:46.307|56=BANZAI|10=044|
8=FIXT.1.1|9=54|35=0|34=18|49=BANZAI|52=20200228-12:02:05.813|56=EXEC|10=043|
8=FIXT.1.1|9=54|35=0|34=18|49=EXEC|52=20200228-12:02:06.307|56=BANZAI|10=042|
8=FIXT.1.1|9=54|35=0|34=19|49=BANZAI|52=20200228-12:02:25.816|56=EXEC|10=049|
8=FIXT.1.1|9=54|35=0|34=19|49=EXEC|52=20200228-12:02:26.307|56=BANZAI|10=045|
8=FIXT.1.1|9=54|35=0|34=20|49=BANZAI|52=20200228-12:02:45.819|56=EXEC|10=046|
8=FIXT.1.1|9=54|35=0|34=20|49=EXEC|52=20200228-12:02:46.307|56=BANZAI|10=039|
8=FIXT.1.1|9=54|35=0|34=21|49=BANZAI|52=20200228-12:03:05.822|56=EXEC|10=038|
8=FIXT.1.1|9=54|35=0|34=21|49=EXEC|52=20200228-12:03:06.307|56=BANZAI|10=037|
8=FIXT.1.1|9=54|35=0|34=22|49=BANZAI|52=20200228-12:03:25.824|56=EXEC|10=043|
8=FIXT.1.1|9=54|35=0|34=22|49=EXEC|52=20200228-12:03:26.307|56=BANZAI|10=040|
8=FIXT.1.1|9=54|35=0|34=23|49=BANZAI|52=20200228-12:03:45.827|56=EXEC|10=049|
8=FIXT.1.1|9=54|35=0|34=23|49=EXEC|52=20200228-12:03:46.307|56=BANZAI|10=043|
8=FIXT.1.1|9=54|35=0|34=24|49=BANZAI|52=20200228-12:04:05.830|56=EXEC|10=041|
8=FIXT.1.1|9=54|35=0|34=24|49=EXEC|52=20200228-12:04:06.307|56=BANZAI|10=041|
8=FIXT.1.1|9=54|35=0|34=25|49=BANZAI|52=20200228-12:04:25.832|56=EXEC|10=046|
8=FIXT.1.1|9=54|35=0|34=25|49=EXEC|52=20200228-12:04:26.307|56=BANZAI|10=044|
8=FIXT.1.1|9=54|35=0|34=26|49=BANZAI|52=20200228-12:04:45.835|56=EXEC|10=052|
8=FIXT.1.1|9=54|35=0|34=26|49=EXEC|52=20200228-12:04:46.307|56=BANZAI|10=047|
8=FIXT.1.1|9=54|35=0|34=27|49=BANZAI|52=20200228-12:05:05.838|56=EXEC|10=053|
8=FIXT.1.1|9=54|35=0|34=27|49=EXEC|52=20200228-12:05:06.307|56=BANZAI|10=045|
8=FIXT.1.1|9=54|35=0|34=28|49=BANZAI|52=20200228-12:05:25.840|56=EXEC|10=049|
8=FIXT.1.1|9=54|35=0|34=28|49=EXEC|52=20200228-12:05:26.307|56=BANZAI|10=048|
8=FIXT.1.1|9=54|35=0|34=29|49=BANZAI|52=20200228-12:05:45.843|56=EXEC|10=055|
8=FIXT.1.1|9=54|35=0|34=29|49=EXEC|52=20200228-12:05:46.307|56=BANZAI|10=051|
8=FIXT.1.1|9=54|35=0|34=30|49=BANZAI|52=20200228-12:06:05.846|56=EXEC|10=047|
8=FIXT.1.1|9=54|35=0|34=30|49=EXEC|52=20200228-12:06:06.307|56=BANZAI|10=040|
8=FIXT.1.1|9=54|35=0|34=31|49=BANZAI|52=20200228-12:06:25.848|56=EXEC|10=052|
8=FIXT.1.1|9=54|35=0|34=31|49=EXEC|52=20200228-12:06:26.307|56=BANZAI|10=043|
8=FIXT.1.1|9=54|35=0|34=32|49=BANZAI|52=20200228-12:06:45.852|56=EXEC|10=050|
8=FIXT.1.1|9=54|35=0|34=32|49=EXEC|52=20200228-12:06:46.307|56=BANZAI|10=046|
8=FIXT.1.1|9=54|35=0|34=33|49=BANZAI|52=20200228-12:07:05.854|56=EXEC|10=050|
8=FIXT.1.1|9=54|35=0|34=33|49=EXEC|52=20200228-12:07:06.307|56=BANZAI|10=044|
8=FIXT.1.1|9=54|35=0|34=34|49=BANZAI|52=20200228-12:07:25.857|56=EXEC|10=056|
8=FIXT.1.1|9=54|35=0|34=34|49=EXEC|52=20200228-12:07:26.307|56=BANZAI|10=047|
8=FIXT.1.1|9=54|35=0|34=35|49=BANZAI|52=20200228-12:07:45.859|56=EXEC|10=061|
8=FIXT.1.1|9=54|35=0|34=35|49=EXEC|52=20200228-12:07:46.307|56=BANZAI|10=050|
8=FIXT.1.1|9=54|35=0|34=36|49=BANZAI|52=20200228-12:08:05.863|56=EXEC|10=054|
8=FIXT.1.1|9=54|35=0|34=36|49=EXEC|52=20200228-12:08:06.307|56=BANZAI|10=048|
8=FIXT.1.1|9=54|35=0|34=37|49=BANZAI|52=20200228-12:08:25.866|56=EXEC|10=060|
8=FIXT.1.1|9=54|35=0|34=37|49=EXEC|52=20200228-12:08:26.307|56=BANZAI|10=051|
8=FIXT.1.1|9=54|35=0|34=38|49=BANZAI|52=20200228-12:08:45.869|56=EXEC|10=066|
8=FIXT.1.1|9=54|35=0|34=38|49=EXEC|52=20200228-12:08:46.307|56=BANZAI|10=054|
8=FIXT.1.1|9=73|35=A|34=39|49=BANZAI|52=20200228-12:09:04.101|56=EXEC|98=0|108=20|1137=9|10=151|
8=FIXT.1.1|9=73|35=A|34=39|49=EXEC|52=20200228-12:09:04.104|56=BANZAI|98=0|108=20|1137=9|10=154|
8=FIXT.1.1|9=149|35=D|34=40|49=BANZAI|52=20200228-12:09:11.131|56=EXEC|11=20f21f7b-5a23-11ea-8b28-7427ea59c5e5|38=10|40=7|44=20|54=1|55=MSFT|60=20200228-12:09:11.131|10=182|
8=FIXT.1.1|9=214|35=8|34=40|49=EXEC|52=20200228-12:09:11.136|56=BANZAI|6=0|11=20f21f7b-5a23-11ea-8b28-7427ea59c5e5|14=0|17=a3d00c63-e548-4e34-9617-5083342e342f|37=ee31246d-423b-4217-91c9-fbb1a718fa0b|39=0|54=1|55=MSFT|150=0|151=10|10=184|
8=FIXT.1.1|9=73|35=A|34=41|49=BANZAI|52=20200228-12:16:51.763|56=EXEC|98=0|108=20|1137=9|10=158|
8=FIXT.1.1|9=73|35=A|34=41|49=EXEC|52=20200228-12:16:51.784|56=BANZAI|98=0|108=20|1137=9|10=161|
8=FIXT.1.1|9=54|35=0|34=42|49=BANZAI|52=20200228-12:17:11.782|56=EXEC|10=048|
8=FIXT.1.1|9=54|35=0|34=42|49=EXEC|52=20200228-12:17:11.787|56=BANZAI|10=053|
8=FIXT.1.1|9=54|35=0|34=43|49=BANZAI|52=20200228-12:17:31.786|56=EXEC|10=055|
8=FIXT.1.1|9=54|35=0|34=43|49=EXEC|52=20200228-12:17:31.790|56=BANZAI|10=050|
8=FIXT.1.1|9=54|35=0|34=44|49=BANZAI|52=20200228-12:17:51.789|56=EXEC|10=061|
8=FIXT.1.1|9=54|35=0|34=44|49=EXEC|52=20200228-12:17:51.794|56=BANZAI|10=057|
8=FIXT.1.1|9=54|35=0|34=45|49=BANZAI|52=20200228-12:18:11.793|56=EXEC|10=054|
8=FIXT.1.1|9=54|35=0|34=45|49=EXEC|52=20200228-12:18:11.796|56=BANZAI|10=057|
8=FIXT.1.1|9=149|35=D|34=46|49=BANZAI|52=20200228-12:18:24.218|56=EXEC|11=6a9c725f-5a24-11ea-bbec-7427ea59c5e5|38=30|40=7|44=19|54=1|55=MSFT|60=20200228-12:18:24.218|10=112|
8=FIXT.1.1|9=214|35=8|34=46|49=EXEC|52=20200228-12:18:24.228|56=BANZAI|6=0|11=6a9c725f-5a24-11ea-bbec-7427ea59c5e5|14=0|17=54cdfcd2-5b19-4d4b-91e6-c73de0e06878|37=ee95f1ef-8727-421a-a4ab-7fa76186b8a9|39=0|54=1|55=MSFT|150=0|151=30|10=215|
8=FIXT.1.1|9=54|35=0|34=47|49=BANZAI|52=20200228-12:18:44.222|56=EXEC|10=049|
8=FIXT.1.1|9=54|35=0|34=47|49=EXEC|52=20200228-12:18:44.226|56=BANZAI|10=053|
8=FIXT.1.1|9=54|35=0|34=48|49=BANZAI|52=20200228-12:19:04.225|56=EXEC|10=050|
8=FIXT.1.1|9=54|35=0|34=48|49=EXEC|52=20200228-12:19:04.228|56=BANZAI|10=053|
8=FIXT.1.1|9=54|35=0|34=49|49=BANZAI|52=20200228-12:19:24.227|56=EXEC|10=055|
8=FIXT.1.1|9=54|35=0|34=49|49=EXEC|52=20200228-12:19:24.231|56=BANZAI|10=050|
8=FIXT.1.1|9=54|35=0|34=50|49=BANZAI|52=20200228-12:19:44.230|56=EXEC|10=043|
8=FIXT.1.1|9=54|35=0|34=50|49=EXEC|52=20200228-12:19:44.234|56=BANZAI|10=047|
8=FIXT.1.1|9=54|35=0|34=51|49=BANZAI|52=20200228-12:20:04.233|56=EXEC|10=035|
8=FIXT.1.1|9=54|35=0|34=51|49=EXEC|52=20200228-12:20:04.237|56=BANZAI|10=039|
8=FIXT.1.1|9=54|35=0|34=52|49=BANZAI|52=20200228-12:20:24.236|56=EXEC|10=041|
8=FIXT.1.1|9=54|35=0|34=52|49=EXEC|52=20200228-12:20:24.239|56=BANZAI|10=044|
8=FIXT.1.1|9=54|35=0|34=53|49=BANZAI|52=20200228-12:20:44.238|56=EXEC|10=046|
8=FIXT.1.1|9=54|35=0|34=53|49=EXEC|52=20200228-12:20:44.242|56=BANZAI|10=041|
8=FIXT.1.1|9=54|35=0|34=54|49=BANZAI|52=20200228-12:21:04.241|56=EXEC|10=038|
8=FIXT.1.1|9=54|35=0|34=54|49=EXEC|52=20200228-12:21:04.245|56=BANZAI|10=042|
8=FIXT.1.1|9=54|35=0|34=55|49=BANZAI|52=20200228-12:21:24.244|56=EXEC|10=044|
8=FIXT.1.1|9=54|35=0|34=55|49=EXEC|52=20200228-12:21:24.247|56=BANZAI|10=047|
8=FIXT.1.1|9=54|35=0|34=56|49=BANZAI|52=20200228-12:21:44.246|56=EXEC|10=049|
8=FIXT.1.1|9=54|35=0|34=56|49=EXEC|52=20200228-12:21:44.251|56=BANZAI|10=045|
8=FIXT.1.1|9=54|35=0|34=57|49=BANZAI|52=20200228-12:22:04.250|56=EXEC|10=042|
8=FIXT.1.1|9=54|35=0|34=57|49=EXEC|52=20200228-12:22:04.254|56=BANZAI|10=046|
8=FIXT.1.1|9=54|35=0|34=58|49=BANZAI|52=20200228-12:22:24.253|56=EXEC|10=048|
8=FIXT.1.1|9=54|35=0|34=58|49=EXEC|52=20200228-12:22:24.261|56=BANZAI|10=047|
8=FIXT.1.1|9=54|35=0|34=59|49=BANZAI|52=20200228-12:22:44.260|56=EXEC|10=049|
8=FIXT.1.1|9=54|35=0|34=59|49=EXEC|52=20200228-12:22:44.264|56=BANZAI|10=053|
8=FIXT.1.1|9=54|35=0|34=60|49=BANZAI|52=20200228-12:23:04.263|56=EXEC|10=041|
8=FIXT.1.1|9=54|35=0|34=60|49=EXEC|52=20200228-12:23:04.266|56=BANZAI|10=044|
8=FIXT.1.1|9=54|35=0|34=61|49=BANZAI|52=20200228-12:23:24.265|56=EXEC|10=046|
8=FIXT.1.1|9=54|35=0|34=61|49=EXEC|52=20200228-12:23:24.269|56=BANZAI|10=050|
8=FIXT.1.1|9=54|35=0|34=62|49=BANZAI|52=20200228-12:23:44.268|56=EXEC|10=052|
8=FIXT.1.1|9=54|35=0|34=62|49=EXEC|52=20200228-12:23:44.272|56=BANZAI|10=047|
8=FIXT.1.1|9=54|35=0|34=63|49=BANZAI|52=20200228-12:24:04.271|56=EXEC|10=044|
8=FIXT.1.1|9=54|35=0|34=63|49=EXEC|52=20200228-12:24:04.274|56=BANZAI|10=047|
8=FIXT.1.1|9=54|35=0|34=64|49=BANZAI|52=20200228-12:24:24.273|56=EXEC|10=049|
8=FIXT.1.1|9=54|35=0|34=64|49=EXEC|52=20200228-12:24:24.277|56=BANZAI|10=053|
8=FIXT.1.1|9=54|35=0|34=65|49=BANZAI|52=20200228-12:24:44.276|56=EXEC|10=055|
8=FIXT.1.1|9=54|35=0|34=65|49=EXEC|52=20200228-12:24:44.280|56=BANZAI|10=050|
8=FIXT.1.1|9=54|35=0|34=66|49=BANZAI|52=20200228-12:25:04.279|56=EXEC|10=056|
8=FIXT.1.1|9=54|35=0|34=66|49=EXEC|52=20200228-12:25:04.283|56=BANZAI|10=051|
8=FIXT.1.1|9=54|35=0|34=67|49=BANZAI|52=20200228-12:25:24.283|56=EXEC|10=054|
8=FIXT.1.1|9=54|35=0|34=67|49=EXEC|52=20200228-12:25:24.288|56=BANZAI|10=059|
8=FIXT.1.1|9=54|35=0|34=68|49=BANZAI|52=20200228-12:25:44.286|56=EXEC|10=060|
8=FIXT.1.1|9=54|35=0|34=68|49=EXEC|52=20200228-12:25:44.289|56=BANZAI|10=063|
8=FIXT.1.1|9=54|35=0|34=69|49=BANZAI|52=20200228-12:26:04.288|56=EXEC|10=060|
8=FIXT.1.1|9=54|35=0|34=69|49=EXEC|52=20200228-12:26:04.292|56=BANZAI|10=055|
8=FIXT.1.1|9=54|35=0|34=70|49=BANZAI|52=20200228-12:26:24.291|56=EXEC|10=048|
8=FIXT.1.1|9=54|35=0|34=70|49=EXEC|52=20200228-12:26:24.294|56=BANZAI|10=051|
8=FIXT.1.1|9=54|35=0|34=71|49=BANZAI|52=20200228-12:26:44.293|56=EXEC|10=053|
8=FIXT.1.1|9=54|35=0|34=71|49=EXEC|52=20200228-12:26:44.297|56=BANZAI|10=057|
8=FIXT.1.1|9=54|35=0|34=72|49=BANZAI|52=20200228-12:27:04.296|56=EXEC|10=054|
8=FIXT.1.1|9=54|35=0|34=72|49=EXEC|52=20200228-12:27:04.300|56=BANZAI|10=040|
8=FIXT.1.1|9=54|35=0|34=73|49=BANZAI|52=20200228-12:27:24.299|56=EXEC|10=060|
8=FIXT.1.1|9=54|35=0|34=73|49=EXEC|52=20200228-12:27:24.305|56=BANZAI|10=048|
8=FIXT.1.1|9=54|35=0|34=74|49=BANZAI|52=20200228-12:27:44.304|56=EXEC|10=050|
8=FIXT.1.1|9=54|35=0|34=74|49=EXEC|52=20200228-12:27:44.307|56=BANZAI|10=053|
8=FIXT.1.1|9=54|35=0|34=75|49=EXEC|52=20200228-12:28:04.307|56=BANZAI|10=051|
8=FIXT.1.1|9=54|35=0|34=75|49=BANZAI|52=20200228-12:28:04.307|56=EXEC|10=051|
8=FIXT.1.1|9=54|35=0|34=76|49=EXEC|52=20200228-12:28:24.307|56=BANZAI|10=054|
8=FIXT.1.1|9=54|35=0|34=76|49=BANZAI|52=20200228-12:28:24.310|56=EXEC|10=048|
8=FIXT.1.1|9=54|35=0|34=77|49=EXEC|52=20200228-12:28:44.307|56=BANZAI|10=057|
8=FIXT.1.1|9=54|35=0|34=77|49=BANZAI|52=20200228-12:28:44.312|56=EXEC|10=053|
8=FIXT.1.1|9=54|35=0|34=78|49=EXEC|52=20200228-12:29:04.307|56=BANZAI|10=055|
8=FIXT.1.1|9=54|35=0|34=78|49=BANZAI|52=20200228-12:29:04.315|56=EXEC|10=054|
8=FIXT.1.1|9=54|35=0|34=79|49=EXEC|52=20200228-12:29:24.307|56=BANZAI|10=058|
8=FIXT.1.1|9=54|35=0|34=79|49=BANZAI|52=20200228-12:29:24.318|56=EXEC|10=060|
8=FIXT.1.1|9=54|35=0|34=80|49=EXEC|52=20200228-12:29:44.307|56=BANZAI|10=052|
8=FIXT.1.1|9=54|35=0|34=80|49=BANZAI|52=20200228-12:29:44.320|56=EXEC|10=047|
8=FIXT.1.1|9=54|35=0|34=81|49=EXEC|52=20200228-12:30:04.307|56=BANZAI|10=041|
8=FIXT.1.1|9=54|35=0|34=81|49=BANZAI|52=20200228-12:30:04.323|56=EXEC|10=039|
8=FIXT.1.1|9=54|35=0|34=82|49=EXEC|52=20200228-12:30:24.307|56=BANZAI|10=044|
8=FIXT.1.1|9=54|35=0|34=82|49=BANZAI|52=20200228-12:30:24.326|56=EXEC|10=045|
8=FIXT.1.1|9=54|35=0|34=83|49=EXEC|52=20200228-12:30:44.307|56=BANZAI|10=047|
8=FIXT.1.1|9=54|35=0|34=83|49=BANZAI|52=20200228-12:30:44.328|56=EXEC|10=050|
8=FIXT.1.1|9=54|35=0|34=84|49=EXEC|52=20200228-12:31:04.307|56=BANZAI|10=045|
8=FIXT.1.1|9=54|35=0|34=84|49=BANZAI|52=20200228-12:31:04.331|56=EXEC|10=042|
8=FIXT.1.1|9=54|35=0|34=85|49=EXEC|52=20200228-12:31:24.307|56=BANZAI|10=048|
8=FIXT.1.1|9=54|35=0|34=85|49=BANZAI|52=20200228-12:31:24.334|56=EXEC|10=048|
8=FIXT.1.1|9=54|35=0|34=86|49=EXEC|52=20200228-12:31:44.307|56=BANZAI|10=051|
8=FIXT.1.1|9=54|35=0|34=86|49=BANZAI|52=20200228-12:31:44.336|56=EXEC|10=053|
8=FIXT.1.1|9=54|35=0|34=87|49=EXEC|52=20200228-12:32:04.307|56=BANZAI|10=049|
8=FIXT.1.1|9=54|35=0|34=87|49=BANZAI|52=20200228-12:32:04.339|56=EXEC|10=054|
8=FIXT.1.1|9=54|35=0|34=88|49=EXEC|52=20200228-12:32:24.307|56=BANZAI|10=052|
8=FIXT.1.1|9=54|35=0|34=88|49=BANZAI|52=20200228-12:32:24.341|56=EXEC|10=050|
8=FIXT.1.1|9=54|35=0|34=89|49=EXEC|52=20200228-12:32:44.307|56=BANZAI|10=055|
8=FIXT.1.1|9=54|35=0|34=89|49=BANZAI|52=20200228-12:32:44.344|56=EXEC|10=056|
8=FIXT.1.1|9=54|35=0|34=90|49=EXEC|52=20200228-12:33:04.307|56=BANZAI|10=044|
8=FIXT.1.1|9=54|35=0|34=90|49=BANZAI|52=20200228-12:33:04.347|56=EXEC|10=048|
8=FIXT.1.1|9=54|35=0|34=91|49=EXEC|52=20200228-12:33:24.307|56=BANZAI|10=047|
8=FIXT.1.1|9=54|35=0|34=91|49=BANZAI|52=20200228-12:33:24.350|56=EXEC|10=045|
8=FIXT.1.1|9=54|35=0|34=92|49=EXEC|52=20200228-12:33:44.307|56=BANZAI|10=050|
8=FIXT.1.1|9=54|35=0|34=92|49=BANZAI|52=20200228-12:33:44.353|56=EXEC|10=051|
8=FIXT.1.1|9=54|35=0|34=93|49=EXEC|52=20200228-12:34:04.307|56=BANZAI|10=048|
8=FIXT.1.1|9=54|35=0|34=93|49=BANZAI|52=20200228-12:34:04.356|56=EXEC|10=052|
8=FIXT.1.1|9=54|35=0|34=94|49=EXEC|52=20200228-12:34:24.307|56=BANZAI|10=051|
8=FIXT.1.1|9=54|35=0|34=94|49=BANZAI|52=20200228-12:34:24.358|56=EXEC|10=057|
8=FIXT.1.1|9=54|35=0|34=95|49=EXEC|52=20200228-12:34:44.307|56=BANZAI|10=054|
8=FIXT.1.1|9=54|35=0|34=95|49=BANZAI|52=20200228-12:34:44.360|56=EXEC|10=053|
8=FIXT.1.1|9=54|35=0|34=96|49=EXEC|52=20200228-12:35:04.307|56=BANZAI|10=052|
8=FIXT.1.1|9=54|35=0|34=96|49=BANZAI|52=20200228-12:35:04.363|56=EXEC|10=054|
8=FIXT.1.1|9=54|35=0|34=97|49=EXEC|52=20200228-12:35:24.307|56=BANZAI|10=055|
8=FIXT.1.1|9=54|35=0|34=97|49=BANZAI|52=20200228-12:35:24.365|56=EXEC|10=059|
8=FIXT.1.1|9=54|35=0|34=98|49=EXEC|52=20200228-12:35:44.307|56=BANZAI|10=058|
8=FIXT.1.1|9=54|35=0|34=98|49=BANZAI|52=20200228-12:35:44.368|56=EXEC|10=065|
8=FIXT.1.1|9=54|35=0|34=99|49=EXEC|52=20200228-12:36:04.307|56=BANZAI|10=056|
8=FIXT.1.1|9=54|35=0|34=99|49=BANZAI|52=20200228-12:36:04.371|56=EXEC|10=057|
8=FIXT.1.1|9=55|35=0|34=100|49=EXEC|52=20200228-12:36:24.307|56=BANZAI|10=090|
8=FIXT.1.1|9=55|35=0|34=100|49=BANZAI|52=20200228-12:36:24.373|56=EXEC|10=093|
8=FIXT.1.1|9=55|35=0|34=101|49=EXEC|52=20200228-12:36:44.307|56=BANZAI|10=093|
8=FIXT.1.1|9=64|35=1|34=102|49=EXEC|52=20200228-12:36:55.307|56=BANZAI|112=TEST|10=115|
8=FIXT.1.1|9=74|35=A|34=101|49=BANZAI|52=20200228-12:39:23.697|56=EXEC|98=0|108=20|1137=9|10=214|
8=FIXT.1.1|9=74|35=A|34=103|49=EXEC|52=20200228-12:39:23.705|56=BANZAI|98=0|108=20|1137=9|10=206|
8=FIXT.1.1|9=66|35=2|34=102|49=BANZAI|52=20200228-12:39:23.706|56=EXEC|7=101|16=0|10=065|
8=FIXT.1.1|9=99|35=4|34=101|43=Y|49=EXEC|52=20200228-12:39:23.710|56=BANZAI|122=20200228-12:39:23.710|36=104|123=Y|10=204|
8=FIXT.1.1|9=55|35=0|34=103|49=BANZAI|52=20200228-12:39:43.708|56=EXEC|10=102|
8=FIXT.1.1|9=55|35=0|34=104|49=EXEC|52=20200228-12:39:43.712|56=BANZAI|10=098|
8=FIXT.1.1|9=55|35=0|34=104|49=BANZAI|52=20200228-12:40:03.711|56=EXEC|10=085|
8=FIXT.1.1|9=55|35=0|34=105|49=EXEC|52=20200228-12:40:03.715|56=BANZAI|10=090|
8=FIXT.1.1|9=55|35=0|34=105|49=BANZAI|52=20200228-12:40:23.714|56=EXEC|10=091|
8=FIXT.1.1|9=55|35=0|34=106|49=EXEC|52=20200228-12:40:23.718|56=BANZAI|10=096|
8=FIXT.1.1|9=152|35=D|34=106|49=BANZAI|52=20200228-12:40:35.411|56=EXEC|11=84106d3a-5a27-11ea-a85c-7427ea59c5e5|38=12|40=7|44=1900|54=1|55=MSFT|60=20200228-12:40:35.411|10=083|
8=FIXT.1.1|9=215|35=8|34=107|49=EXEC|52=20200228-12:40:35.419|56=BANZAI|6=0|11=84106d3a-5a27-11ea-a85c-7427ea59c5e5|14=0|17=30610ae4-1b20-4a5b-9e1c-0efc956f6148|37=45c98e3d-dc39-4d49-9c93-175e64fe9ae2|39=0|54=1|55=MSFT|150=0|151=12|10=217|
8=FIXT.1.1|9=55|35=0|34=107|49=BANZAI|52=20200228-12:40:55.418|56=EXEC|10=099|
8=FIXT.1.1|9=55|35=0|34=108|49=EXEC|52=20200228-12:40:55.422|56=BANZAI|10=095|
8=FIXT.1.1|9=55|35=0|34=109|49=EXEC|52=20200228-12:41:16.307|56=BANZAI|10=096|
8=FIXT.1.1|9=55|35=0|34=108|49=BANZAI|52=20200228-12:41:18.166|56=EXEC|10=100|
8=FIXT.1.1|9=55|35=0|34=110|49=EXEC|52=20200228-12:41:36.307|56=BANZAI|10=090|
8=FIXT.1.1|9=64|35=1|34=111|49=EXEC|52=20200228-12:41:51.307|56=BANZAI|112=TEST|10=107|
8=FIXT.1.1|9=74|35=A|34=111|49=BANZAI|52=20200228-13:47:51.968|56=EXEC|98=0|108=20|1137=9|10=217|
8=FIXT.1.1|9=74|35=A|34=112|49=EXEC|52=20200228-13:47:51.972|56=BANZAI|98=0|108=20|1137=9|10=213|
8=FIXT.1.1|9=66|35=2|34=113|49=EXEC|52=20200228-13:47:51.976|56=BANZAI|7=109|16=0|10=085|
8=FIXT.1.1|9=66|35=2|34=112|49=BANZAI|52=20200228-13:47:51.979|56=EXEC|7=110|16=0|10=079|
8=FIXT.1.1|9=99|35=4|34=109|43=Y|49=BANZAI|52=20200228-13:47:51.981|56=EXEC|122=20200228-13:47:51.981|36=113|123=Y|10=234|
8=FIXT.1.1|9=99|35=4|34=110|43=Y|49=EXEC|52=20200228-13:47:51.983|56=BANZAI|122=20200228-13:47:51.982|36=114|123=Y|10=230|
8=FIXT.1.1|9=55|35=0|34=113|49=BANZAI|52=20200228-13:48:11.982|56=EXEC|10=103|
8=FIXT.1.1|9=55|35=0|34=114|49=EXEC|52=20200228-13:48:11.985|56=BANZAI|10=107|
8=FIXT.1.1|9=55|35=0|34=115|49=EXEC|52=20200228-13:48:32.307|56=BANZAI|10=099|
8=FIXT.1.1|9=153|35=D|34=114|49=BANZAI|52=20200228-13:48:37.282|56=EXEC|11=016f38dd-5a31-11ea-82d7-7427ea59c5e5|38=20|40=7|44=19.36|54=1|55=MSFT|60=20200228-13:48:31.218|10=168|
8=FIXT.1.1|9=64|35=1|34=115|49=BANZAI|52=20200228-13:48:37.284|56=EXEC|112=TEST|10=127|
8=FIXT.1.1|9=215|35=8|34=116|49=EXEC|52=20200228-13:48:37.292|56=BANZAI|6=0|11=016f38dd-5a31-11ea-82d7-7427ea59c5e5|14=0|17=ac1754c7-15fc-49c1-9791-874d8f756b72|37=58b49357-e32f-4497-aa0b-9c9520d0ff8a|39=0|54=1|55=MSFT|150=0|151=20|10=106|
8=FIXT.1.1|9=64|35=0|34=117|49=EXEC|52=20200228-13:48:37.293|56=BANZAI|112=TEST|10=128|
8=FIXT.1.1|9=55|35=0|34=118|49=EXEC|52=20200228-13:48:57.307|56=BANZAI|10=109|
8=FIXT.1.1|9=64|35=1|34=119|49=EXEC|52=20200228-13:49:07.307|56=BANZAI|112=TEST|10=125|
8=FIXT.1.1|9=74|35=A|34=116|49=BANZAI|52=20200228-14:13:48.760|56=EXEC|98=0|108=20|1137=9|10=212|
8=FIXT.1.1|9=74|35=A|34=120|49=EXEC|52=20200228-14:13:48.975|56=BANZAI|98=0|108=20|1137=9|10=215|
8=FIXT.1.1|9=66|35=2|34=117|49=BANZAI|52=20200228-14:13:49.006|56=EXEC|7=116|16=0|10=072|
8=FIXT.1.1|9=246|35=8|34=116|43=Y|49=EXEC|52=20200228-14:13:49.060|56=BANZAI|122=20200228-13:48:37.292|6=0|11=016f38dd-5a31-11ea-82d7-7427ea59c5e5|14=0|17=ac1754c7-15fc-49c1-9791-874d8f756b72|37=58b49357-e32f-4497-aa0b-9c9520d0ff8a|39=0|54=1|55=MSFT|150=0|151=20|10=106|
8=FIXT.1.1|9=99|35=4|34=117|43=Y|49=EXEC|52=20200228-14:13:49.063|56=BANZAI|122=20200228-14:13:49.062|36=121|123=Y|10=215|
8=FIXT.1.1|9=55|35=0|34=118|49=BANZAI|52=20200228-14:14:09.009|56=EXEC|10=099|
8=FIXT.1.1|9=55|35=0|34=121|49=EXEC|52=20200228-14:14:09.788|56=BANZAI|10=107|
8=FIXT.1.1|9=55|35=0|34=119|49=BANZAI|52=20200228-14:14:29.011|56=EXEC|10=095|
8=FIXT.1.1|9=55|35=0|34=122|49=EXEC|52=20200228-14:14:29.788|56=BANZAI|10=110|
8=FIXT.1.1|9=153|35=D|34=120|49=BANZAI|52=20200228-14:14:43.923|56=EXEC|11=aad6eaaa-5a34-11ea-b150-7427ea59c5e5|38=10|40=7|44=19.36|54=1|55=MSFT|60=20200228-14:14:43.923|10=071|
8=FIXT.1.1|9=64|35=1|34=121|49=BANZAI|52=20200228-14:14:53.796|56=EXEC|112=TEST|10=124|
8=FIXT.1.1|9=64|35=1|34=123|49=EXEC|52=20200228-14:15:20.426|56=BANZAI|112=TEST|10=111|
8=FIXT.1.1|9=74|35=A|34=122|49=BANZAI|52=20200228-14:15:37.799|56=EXEC|98=0|108=20|1137=9|10=221|
8=FIXT.1.1|9=120|35=5|34=125|49=EXEC|52=20200228-14:17:43.191|56=BANZAI|58=Invalid Logon message: SendingTime accuracy problem, field=52|10=073|
8=FIXT.1.1|9=74|35=A|34=123|49=BANZAI|52=20200228-14:18:03.191|56=EXEC|98=0|108=20|1137=9|10=204|
8=FIXT.1.1|9=74|35=A|34=126|49=EXEC|52=20200228-14:18:03.194|56=BANZAI|98=0|108=20|1137=9|10=210|
8=FIXT.1.1|9=66|35=2|34=127|49=EXEC|52=20200228-14:18:03.195|56=BANZAI|7=122|16=0|10=074|
8=FIXT.1.1|9=66|35=2|34=124|49=BANZAI|52=20200228-14:18:03.196|56=EXEC|7=123|16=0|10=073|
8=FIXT.1.1|9=99|35=4|34=122|43=Y|49=BANZAI|52=20200228-14:18:03.198|56=EXEC|122=20200228-14:18:03.198|36=125|123=Y|10=224|
8=FIXT.1.1|9=99|35=4|34=123|43=Y|49=EXEC|52=20200228-14:18:03.199|56=BANZAI|122=20200228-14:18:03.199|36=124|123=Y|10=226|
8=FIXT.1.1|9=246|35=8|34=124|43=Y|49=EXEC|52=20200228-14:18:03.199|56=BANZAI|122=20200228-14:17:43.188|6=0|11=aad6eaaa-5a34-11ea-b150-7427ea59c5e5|14=0|17=18efe2d2-084f-453b-9936-7c742a9d5a5a|37=9b02fb4c-67ed-44e5-a4b2-c34a9ed8edb7|39=0|54=1|55=MSFT|150=0|151=10|10=082|
8=FIXT.1.1|9=99|35=4|34=125|43=Y|49=EXEC|52=20200228-14:18:03.200|56=BANZAI|122=20200228-14:18:03.200|36=128|123=Y|10=198|
8=FIXT.1.1|9=55|35=0|34=125|49=BANZAI|52=20200228-14:18:23.198|56=EXEC|10=106|
8=FIXT.1.1|9=55|35=0|34=128|49=EXEC|52=20200228-14:18:23.201|56=BANZAI|10=094|
8=FIXT.1.1|9=153|35=D|34=126|49=BANZAI|52=20200228-14:18:42.341|56=EXEC|11=38f286e4-5a35-11ea-b150-7427ea59c5e5|38=10|40=7|44=19.36|54=1|55=MSFT|60=20200228-14:18:42.340|10=109|
8=FIXT.1.1|9=55|35=0|34=129|49=EXEC|52=20200228-14:18:45.240|56=BANZAI|10=102|
8=FIXT.1.1|9=215|35=8|34=130|49=EXEC|52=20200228-14:18:50.393|56=BANZAI|6=0|11=38f286e4-5a35-11ea-b150-7427ea59c5e5|14=0|17=57f48ec8-fd15-4c2e-9882-76865862ba74|37=1a670749-9ced-4def-adaf-906747d9f870|39=0|54=1|55=MSFT|150=0|151=10|10=169|
8=FIXT.1.1|9=55|35=0|34=127|49=BANZAI|52=20200228-14:19:02.343|56=EXEC|10=098|
8=FIXT.1.1|9=55|35=0|34=131|49=EXEC|52=20200228-14:19:10.788|56=BANZAI|10=105|
8=FIXT.1.1|9=55|35=0|34=128|49=BANZAI|52=20200228-14:19:22.346|56=EXEC|10=104|
8=FIXT.1.1|9=55|35=0|34=132|49=EXEC|52=20200228-14:19:30.788|56=BANZAI|10=108|
8=FIXT.1.1|9=55|35=0|34=129|49=BANZAI|52=20200228-14:19:42.350|56=EXEC|10=102|
8=FIXT.1.1|9=55|35=0|34=133|49=EXEC|52=20200228-14:19:50.788|56=BANZAI|10=111|
8=FIXT.1.1|9=55|35=0|34=130|49=BANZAI|52=20200228-14:20:02.352|56=EXEC|10=084|
8=FIXT.1.1|9=55|35=0|34=134|49=EXEC|52=20200228-14:20:10.788|56=BANZAI|10=100|
8=FIXT.1.1|9=55|35=0|34=131|49=BANZAI|52=20200228-14:20:22.355|56=EXEC|10=090|
8=FIXT.1.1|9=55|35=0|34=135|49=EXEC|52=20200228-14:20:30.788|56=BANZAI|10=103|
8=FIXT.1.1|9=55|35=0|34=132|49=BANZAI|52=20200228-14:20:42.358|56=EXEC|10=096|
8=FIXT.1.1|9=55|35=0|34=136|49=EXEC|52=20200228-14:20:50.788|56=BANZAI|10=106|
8=FIXT.1.1|9=55|35=0|34=133|49=BANZAI|52=20200228-14:21:02.361|56=EXEC|10=088|
8=FIXT.1.1|9=55|35=0|34=137|49=EXEC|52=20200228-14:21:10.788|56=BANZAI|10=104|
8=FIXT.1.1|9=55|35=0|34=134|49=BANZAI|52=20200228-14:21:22.363|56=EXEC|10=093|
8=FIXT.1.1|9=55|35=0|34=138|49=EXEC|52=20200228-14:21:30.788|56=BANZAI|10=107|
8=FIXT.1.1|9=55|35=0|34=135|49=BANZAI|52=20200228-14:21:42.366|56=EXEC|10=099|
8=FIXT.1.1|9=55|35=0|34=139|49=EXEC|52=20200228-14:21:50.788|56=BANZAI|10=110|
8=FIXT.1.1|9=55|35=0|34=136|49=BANZAI|52=20200228-14:22:02.369|56=EXEC|10=100|
8=FIXT.1.1|9=55|35=0|34=140|49=EXEC|52=20200228-14:22:10.788|56=BANZAI|10=099|
8=FIXT.1.1|9=55|35=0|34=137|49=BANZAI|52=20200228-14:22:22.372|56=EXEC|10=097|
8=FIXT.1.1|9=55|35=0|34=141|49=EXEC|52=20200228-14:22:30.788|56=BANZAI|10=102|
8=FIXT.1.1|9=74|35=A|34=138|49=BANZAI|52=20200228-14:22:56.521|56=EXEC|98=0|108=20|1137=9|10=210|
8=FIXT.1.1|9=74|35=A|34=142|49=EXEC|52=20200228-14:22:56.714|56=BANZAI|98=0|108=20|1137=9|10=209|
8=FIXT.1.1|9=55|35=0|34=139|49=BANZAI|52=20200228-14:23:16.524|56=EXEC|10=102|
8=FIXT.1.1|9=55|35=0|34=143|49=EXEC|52=20200228-14:23:17.067|56=BANZAI|10=100|
8=FIXT.1.1|9=55|35=0|34=140|49=BANZAI|52=20200228-14:23:36.527|56=EXEC|10=099|
8=FIXT.1.1|9=55|35=0|34=144|49=EXEC|52=20200228-14:23:37.067|56=BANZAI|10=103|
8=FIXT.1.1|9=55|35=0|34=141|49=BANZAI|52=20200228-14:23:56.530|56=EXEC|10=096|
8=FIXT.1.1|9=55|35=0|34=145|49=EXEC|52=20200228-14:23:57.067|56=BANZAI|10=106|
8=FIXT.1.1|9=55|35=0|34=142|49=BANZAI|52=20200228-14:24:16.532|56=EXEC|10=096|
8=FIXT.1.1|9=55|35=0|34=146|49=EXEC|52=20200228-14:24:17.066|56=BANZAI|10=103|
8=FIXT.1.1|9=55|35=0|34=143|49=BANZAI|52=20200228-14:24:36.535|56=EXEC|10=102|
8=FIXT.1.1|9=55|35=0|34=147|49=EXEC|52=20200228-14:24:37.067|56=BANZAI|10=107|
8=FIXT.1.1|9=55|35=0|34=144|49=BANZAI|52=20200228-14:24:56.538|56=EXEC|10=108|
8=FIXT.1.1|9=55|35=0|34=148|49=EXEC|52=20200228-14:24:57.067|56=BANZAI|10=110|
8=FIXT.1.1|9=153|35=D|34=145|49=BANZAI|52=20200228-14:25:16.146|56=EXEC|11=23ac7de3-5a36-11ea-b150-7427ea59c5e5|38=10|40=7|44=19.36|54=1|55=MSFT|60=20200228-14:25:16.146|10=198|
8=FIXT.1.1|9=55|35=0|34=149|49=EXEC|52=20200228-14:25:18.500|56=BANZAI|10=101|
8=FIXT.1.1|9=55|35=0|34=146|49=BANZAI|52=20200228-14:25:36.149|56=EXEC|10=107|
8=FIXT.1.1|9=55|35=0|34=150|49=EXEC|52=20200228-14:25:40.935|56=BANZAI|10=100|
8=FIXT.1.1|9=55|35=0|34=147|49=BANZAI|52=20200228-14:25:56.152|56=EXEC|10=104|
8=FIXT.1.1|9=64|35=1|34=148|49=BANZAI|52=20200228-14:26:04.937|56=EXEC|112=TEST|10=129|
8=FIXT.1.1|9=64|35=1|34=151|49=EXEC|52=20200228-14:30:50.562|56=BANZAI|112=TEST|10=113|
8=FIXT.1.1|9=74|35=A|34=149|49=BANZAI|52=20200228-14:26:48.940|56=EXEC|98=0|108=20|1137=9|10=222|
8=FIXT.1.1|9=120|35=5|34=153|49=EXEC|52=20200228-14:30:50.602|56=BANZAI|58=Invalid Logon message: SendingTime accuracy problem, field=52|10=064|
8=FIXT.1.1|9=74|35=A|34=151|49=BANZAI|52=20200228-14:31:10.602|56=EXEC|98=0|108=20|1137=9|10=195|
8=FIXT.1.1|9=74|35=A|34=154|49=EXEC|52=20200228-14:31:10.605|56=BANZAI|98=0|108=20|1137=9|10=201|
8=FIXT.1.1|9=66|35=2|34=155|49=EXEC|52=20200228-14:31:10.606|56=BANZAI|7=147|16=0|10=072|
8=FIXT.1.1|9=99|35=4|34=147|43=Y|49=BANZAI|52=20200228-14:31:10.609|56=EXEC|122=20200228-14:31:10.609|36=150|123=Y|10=209|
8=FIXT.1.1|9=184|35=D|34=150|43=Y|49=BANZAI|52=20200228-14:31:10.609|56=EXEC|122=20200228-14:31:01.139|11=f14e33fa-5a36-11ea-b150-7427ea59c5e5|38=10|40=7|44=19.36|54=1|55=MSFT|60=20200228-14:31:01.138|10=177|
8=FIXT.1.1|9=99|35=4|34=151|43=Y|49=BANZAI|52=20200228-14:31:10.609|56=EXEC|122=20200228-14:31:10.609|36=153|123=Y|10=207|
8=FIXT.1.1|9=66|35=2|34=152|49=BANZAI|52=20200228-14:31:10.606|56=EXEC|7=151|16=0|10=064|
8=FIXT.1.1|9=55|35=0|34=153|49=BANZAI|52=20200228-14:31:30.609|56=EXEC|10=097|
8=FIXT.1.1|9=64|35=1|34=154|49=BANZAI|52=20200228-14:31:34.609|56=EXEC|112=TEST|10=121|
8=FIXT.1.1|9=142|35=5|34=157|49=EXEC|52=20200228-14:39:18.400|56=BANZAI|58=Tried to send a reject while not logged on: SendingTime accuracy problem (field 52)|10=138|
8=FIXT.1.1|9=74|35=A|34=155|49=BANZAI|52=20200228-14:32:18.612|56=EXEC|98=0|108=20|1137=9|10=209|
8=FIXT.1.1|9=120|35=5|34=158|49=EXEC|52=20200228-14:39:18.407|56=BANZAI|58=Invalid Logon message: SendingTime accuracy problem, field=52|10=085|
8=FIXT.1.1|9=74|35=A|34=156|49=BANZAI|52=20200228-14:42:18.412|56=EXEC|98=0|108=20|1137=9|10=209|
8=FIXT.1.1|9=74|35=A|34=159|49=EXEC|52=20200228-14:42:18.614|56=BANZAI|98=0|108=20|1137=9|10=216|
8=FIXT.1.1|9=66|35=2|34=160|49=EXEC|52=20200228-14:42:18.693|56=BANZAI|7=152|16=0|10=080|
8=FIXT.1.1|9=99|35=4|34=152|43=Y|49=BANZAI|52=20200228-14:42:18.695|56=EXEC|122=20200228-14:42:18.695|36=158|123=Y|10=243|
8=FIXT.1.1|9=66|35=2|34=157|49=BANZAI|52=20200228-14:42:18.693|56=EXEC|7=151|16=0|10=085|
8=FIXT.1.1|9=108|35=5|34=161|49=EXEC|52=20200228-14:42:18.698|56=BANZAI|58=MsgSeqNum too low, expecting 158 but received 157|10=019|
8=FIXT.1.1|9=74|35=A|34=160|49=BANZAI|52=20200228-14:42:38.707|56=EXEC|98=0|108=20|1137=9|10=213|
8=FIXT.1.1|9=74|35=A|34=162|49=EXEC|52=20200228-14:42:38.712|56=BANZAI|98=0|108=20|1137=9|10=211|
8=FIXT.1.1|9=66|35=2|34=163|49=EXEC|52=20200228-14:42:38.713|56=BANZAI|7=158|16=0|10=084|
8=FIXT.1.1|9=66|35=2|34=161|49=BANZAI|52=20200228-14:42:38.713|56=EXEC|7=152|16=0|10=076|
8=FIXT.1.1|9=99|35=4|34=158|43=Y|49=BANZAI|52=20200228-14:42:38.716|56=EXEC|122=20200228-14:42:38.716|36=159|123=Y|10=242|
8=FIXT.1.1|9=184|35=D|34=159|43=Y|49=BANZAI|52=20200228-14:42:38.716|56=EXEC|122=20200228-14:42:25.012|11=88ecf1d4-5a38-11ea-b150-7427ea59c5e5|38=10|40=7|44=19.36|54=1|55=MSFT|60=20200228-14:42:25.012|10=206|
8=FIXT.1.1|9=99|35=4|34=160|43=Y|49=BANZAI|52=20200228-14:42:38.716|56=EXEC|122=20200228-14:42:38.716|36=162|123=Y|10=229|
8=FIXT.1.1|9=246|35=8|34=152|43=Y|49=EXEC|52=20200228-14:42:38.756|56=BANZAI|122=20200228-14:30:50.599|6=0|11=23ac7de3-5a36-11ea-b150-7427ea59c5e5|14=0|17=5d16093a-9eff-44c6-9ab5-e9ef323640c8|37=064aba09-2ea3-4de7-9c68-654be14849fc|39=0|54=1|55=MSFT|150=0|151=10|10=071|
8=FIXT.1.1|9=99|35=4|34=153|43=Y|49=EXEC|52=20200228-14:42:38.757|56=BANZAI|122=20200228-14:42:38.757|36=156|123=Y|10=244|
8=FIXT.1.1|9=246|35=8|34=156|43=Y|49=EXEC|52=20200228-14:42:38.757|56=BANZAI|122=20200228-14:39:18.399|6=0|11=f14e33fa-5a36-11ea-b150-7427ea59c5e5|14=0|17=3375c0b5-0756-4000-9518-5dfabf23f28b|37=453e5f27-a0c8-468a-aafd-ce15acf15979|39=0|54=1|55=MSFT|150=0|151=10|10=015|
8=FIXT.1.1|9=99|35=4|34=157|43=Y|49=EXEC|52=20200228-14:42:38.759|56=BANZAI|122=20200228-14:42:38.759|36=164|123=Y|10=251|
8=FIXT.1.1|9=55|35=0|34=162|49=BANZAI|52=20200228-14:42:58.716|56=EXEC|10=108|
8=FIXT.1.1|9=55|35=0|34=164|49=EXEC|52=20200228-14:43:02.573|56=BANZAI|10=101|
8=FIXT.1.1|9=64|35=1|34=163|49=BANZAI|52=20200228-14:43:02.761|56=EXEC|112=TEST|10=118|
8=FIXT.1.1|9=64|35=1|34=165|49=EXEC|52=20200228-14:43:13.917|56=BANZAI|112=TEST|10=125|
8=FIXT.1.1|9=64|35=0|34=164|49=BANZAI|52=20200228-14:43:13.918|56=EXEC|112=TEST|10=124|
8=FIXT.1.1|9=215|35=8|34=166|49=EXEC|52=20200228-14:43:18.288|56=BANZAI|6=0|11=88ecf1d4-5a38-11ea-b150-7427ea59c5e5|14=0|17=540dc6b6-5518-440d-9627-f92303b57b29|37=ae1bcbda-7343-41c1-b6a3-ab08eea239a2|39=0|54=1|55=MSFT|150=0|151=10|10=239|
8=FIXT.1.1|9=64|35=0|34=167|49=EXEC|52=20200228-14:43:18.291|56=BANZAI|112=TEST|10=126|
8=FIXT.1.1|9=55|35=0|34=165|49=BANZAI|52=20200228-14:43:33.920|56=EXEC|10=102|
8=FIXT.1.1|9=55|35=0|34=168|49=EXEC|52=20200228-14:43:38.440|56=BANZAI|10=107|
8=FIXT.1.1|9=55|35=0|34=166|49=BANZAI|52=20200228-14:43:53.922|56=EXEC|10=107|
8=FIXT.1.1|9=55|35=0|34=169|49=EXEC|52=20200228-14:43:58.440|56=BANZAI|10=110|
8=FIXT.1.1|9=55|35=0|34=167|49=BANZAI|52=20200228-14:44:13.925|56=EXEC|10=108|
8=FIXT.1.1|9=55|35=0|34=170|49=EXEC|52=20200228-14:44:18.441|56=BANZAI|10=100|
8=FIXT.1.1|9=55|35=0|34=168|49=BANZAI|52=20200228-14:44:33.928|56=EXEC|10=114|
8=FIXT.1.1|9=55|35=0|34=171|49=EXEC|52=20200228-14:44:38.441|56=BANZAI|10=103|
8=FIXT.1.1|9=55|35=0|34=169|49=BANZAI|52=20200228-14:44:53.931|56=EXEC|10=111|
8=FIXT.1.1|9=55|35=0|34=172|49=EXEC|52=20200228-14:44:58.440|56=BANZAI|10=105|
8=FIXT.1.1|9=55|35=0|34=170|49=BANZAI|52=20200228-14:45:13.933|56=EXEC|10=102|
8=FIXT.1.1|9=55|35=0|34=173|49=EXEC|52=20200228-14:45:18.440|56=BANZAI|10=103|
8=FIXT.1.1|9=55|35=0|34=171|49=BANZAI|52=20200228-14:45:33.936|56=EXEC|10=108|
8=FIXT.1.1|9=55|35=0|34=174|49=EXEC|52=20200228-14:45:38.441|56=BANZAI|10=107|
8=FIXT.1.1|9=55|35=0|34=172|49=BANZAI|52=20200228-14:45:53.939|56=EXEC|10=114|
8=FIXT.1.1|9=55|35=0|34=175|49=EXEC|52=20200228-14:45:58.441|56=BANZAI|10=110|
8=FIXT.1.1|9=55|35=0|34=173|49=BANZAI|52=20200228-14:46:13.943|56=EXEC|10=107|
8=FIXT.1.1|9=55|35=0|34=176|49=EXEC|52=20200228-14:46:18.441|56=BANZAI|10=108|
8=FIXT.1.1|9=55|35=0|34=174|49=BANZAI|52=20200228-14:46:33.945|56=EXEC|10=112|
8=FIXT.1.1|9=55|35=0|34=177|49=EXEC|52=20200228-14:46:38.440|56=BANZAI|10=110|
8=FIXT.1.1|9=55|35=0|34=175|49=BANZAI|52=20200228-14:46:53.948|56=EXEC|10=118|
8=FIXT.1.1|9=55|35=0|34=178|49=EXEC|52=20200228-14:46:58.440|56=BANZAI|10=113|
8=FIXT.1.1|9=55|35=0|34=176|49=BANZAI|52=20200228-14:47:13.950|56=EXEC|10=109|
8=FIXT.1.1|9=55|35=0|34=179|49=EXEC|52=20200228-14:47:18.440|56=BANZAI|10=111|
8=FIXT.1.1|9=55|35=0|34=177|49=BANZAI|52=20200228-14:47:33.953|56=EXEC|10=115|
8=FIXT.1.1|9=55|35=0|34=180|49=EXEC|52=20200228-14:47:38.440|56=BANZAI|10=105|
8=FIXT.1.1|9=55|35=0|34=178|49=BANZAI|52=20200228-14:47:53.955|56=EXEC|10=120|
8=FIXT.1.1|9=55|35=0|34=181|49=EXEC|52=20200228-14:47:58.440|56=BANZAI|10=108|
8=FIXT.1.1|9=55|35=0|34=179|49=BANZAI|52=20200228-14:48:13.959|56=EXEC|10=122|
8=FIXT.1.1|9=55|35=0|34=182|49=EXEC|52=20200228-14:48:18.441|56=BANZAI|10=107|
8=FIXT.1.1|9=55|35=0|34=180|49=BANZAI|52=20200228-14:48:33.962|56=EXEC|10=110|
8=FIXT.1.1|9=55|35=0|34=183|49=EXEC|52=20200228-14:48:38.440|56=BANZAI|10=109|
8=FIXT.1.1|9=55|35=0|34=181|49=BANZAI|52=20200228-14:48:53.989|56=EXEC|10=122|
8=FIXT.1.1|9=55|35=0|34=184|49=EXEC|52=20200228-14:48:58.440|56=BANZAI|10=112|
8=FIXT.1.1|9=55|35=0|34=182|49=BANZAI|52=20200228-14:49:13.993|56=EXEC|10=115|
8=FIXT.1.1|9=55|35=0|34=185|49=EXEC|52=20200228-14:49:18.440|56=BANZAI|10=110|
8=FIXT.1.1|9=55|35=0|34=183|49=BANZAI|52=20200228-14:49:33.995|56=EXEC|10=120|
8=FIXT.1.1|9=55|35=0|34=186|49=EXEC|52=20200228-14:49:38.440|56=BANZAI|10=113|
8=FIXT.1.1|9=55|35=0|34=184|49=BANZAI|52=20200228-14:49:53.998|56=EXEC|10=126|
8=FIXT.1.1|9=55|35=0|34=187|49=EXEC|52=20200228-14:49:58.440|56=BANZAI|10=116|
8=FIXT.1.1|9=55|35=0|34=185|49=BANZAI|52=20200228-14:50:14.001|56=EXEC|10=091|
8=FIXT.1.1|9=55|35=0|34=188|49=EXEC|52=20200228-14:50:18.440|56=BANZAI|10=105|
8=FIXT.1.1|9=74|35=A|34=186|49=BANZAI|52=20200228-16:00:04.847|56=EXEC|98=0|108=20|1137=9|10=215|
8=FIXT.1.1|9=74|35=A|34=189|49=EXEC|52=20200228-16:00:05.057|56=BANZAI|98=0|108=20|1137=9|10=212|
8=FIXT.1.1|9=55|35=0|34=187|49=BANZAI|52=20200228-16:00:24.850|56=EXEC|10=103|
8=FIXT.1.1|9=55|35=0|34=190|49=EXEC|52=20200228-16:00:25.141|56=BANZAI|10=091|
8=FIXT.1.1|9=55|35=0|34=188|49=BANZAI|52=20200228-16:00:44.853|56=EXEC|10=109|
8=FIXT.1.1|9=55|35=0|34=191|49=EXEC|52=20200228-16:00:45.141|56=BANZAI|10=094|
8=FIXT.1.1|9=55|35=0|34=189|49=BANZAI|52=20200228-16:01:04.856|56=EXEC|10=110|
8=FIXT.1.1|9=55|35=0|34=192|49=EXEC|52=20200228-16:01:05.141|56=BANZAI|10=092|
8=FIXT.1.1|9=55|35=0|34=190|49=BANZAI|52=20200228-16:01:24.860|56=EXEC|10=099|
8=FIXT.1.1|9=55|35=0|34=193|49=EXEC|52=20200228-16:01:25.140|56=BANZAI|10=094|
8=FIXT.1.1|9=55|35=0|34=191|49=BANZAI|52=20200228-16:01:44.863|56=EXEC|10=105|
8=FIXT.1.1|9=55|35=0|34=194|49=EXEC|52=20200228-16:01:45.140|56=BANZAI|10=097|
8=FIXT.1.1|9=153|35=D|34=192|49=BANZAI|52=20200228-16:01:53.943|56=EXEC|11=a36e2257-5a43-11ea-b150-7427ea59c5e5|38=10|40=7|44=19.36|54=1|55=MSFT|60=20200228-16:01:53.943|10=109|
8=FIXT.1.1|9=215|35=8|34=195|49=EXEC|52=20200228-16:01:57.595|56=BANZAI|6=0|11=a36e2257-5a43-11ea-b150-7427ea59c5e5|14=0|17=c6acf5e0-fc70-4e33-b50d-e68c305155d0|37=9cec098e-3e8f-4079-acaa-dffbc1aba1fd|39=0|54=1|55=MSFT|150=0|151=10|10=113|
8=FIXT.1.1|9=55|35=0|34=193|49=BANZAI|52=20200228-16:02:13.946|56=EXEC|10=106|
8=FIXT.1.1|9=55|35=0|34=196|49=EXEC|52=20200228-16:02:18.140|56=BANZAI|10=100|
8=FIXT.1.1|9=55|35=0|34=194|49=BANZAI|52=20200228-16:02:33.949|56=EXEC|10=112|
8=FIXT.1.1|9=55|35=0|34=197|49=EXEC|52=20200228-16:02:38.140|56=BANZAI|10=103|
8=FIXT.1.1|9=55|35=0|34=195|49=BANZAI|52=20200228-16:02:53.952|56=EXEC|10=109|
8=FIXT.1.1|9=55|35=0|34=198|49=EXEC|52=20200228-16:02:58.141|56=BANZAI|10=107|
8=FIXT.1.1|9=55|35=0|34=196|49=BANZAI|52=20200228-16:03:13.955|56=EXEC|10=110|
8=FIXT.1.1|9=55|35=0|34=199|49=EXEC|52=20200228-16:03:18.140|56=BANZAI|10=104|
8=FIXT.1.1|9=55|35=0|34=197|49=BANZAI|52=20200228-16:03:33.958|56=EXEC|10=116|
8=FIXT.1.1|9=55|35=0|34=200|49=EXEC|52=20200228-16:03:38.140|56=BANZAI|10=089|
8=FIXT.1.1|9=55|35=0|34=198|49=BANZAI|52=20200228-16:03:53.960|56=EXEC|10=112|
8=FIXT.1.1|9=55|35=0|34=201|49=EXEC|52=20200228-16:03:58.140|56=BANZAI|10=092|
8=FIXT.1.1|9=55|35=0|34=199|49=BANZAI|52=20200228-16:04:13.963|56=EXEC|10=113|
8=FIXT.1.1|9=55|35=0|34=202|49=EXEC|52=20200228-16:04:18.140|56=BANZAI|10=090|
8=FIXT.1.1|9=55|35=0|34=200|49=BANZAI|52=20200228-16:04:33.966|56=EXEC|10=101|
8=FIXT.1.1|9=55|35=0|34=203|49=EXEC|52=20200228-16:04:38.140|56=BANZAI|10=093|
8=FIXT.1.1|9=55|35=0|34=201|49=BANZAI|52=20200228-16:04:53.969|56=EXEC|10=107|
8=FIXT.1.1|9=55|35=0|34=204|49=EXEC|52=20200228-16:04:58.140|56=BANZAI|10=096|
8=FIXT.1.1|9=55|35=0|34=202|49=BANZAI|52=20200228-16:05:13.971|56=EXEC|10=098|
8=FIXT.1.1|9=55|35=0|34=205|49=EXEC|52=20200228-16:05:18.140|56=BANZAI|10=094|
8=FIXT.1.1|9=55|35=0|34=203|49=BANZAI|52=20200228-16:05:33.974|56=EXEC|10=104|
8=FIXT.1.1|9=55|35=0|34=206|49=EXEC|52=20200228-16:05:38.140|56=BANZAI|10=097|
8=FIXT.1.1|9=55|35=0|34=204|49=BANZAI|52=20200228-16:05:53.977|56=EXEC|10=110|
8=FIXT.1.1|9=55|35=0|34=207|49=EXEC|52=20200228-16:05:58.140|56=BANZAI|10=100|
8=FIXT.1.1|9=55|35=0|34=205|49=BANZAI|52=20200228-16:06:13.980|56=EXEC|10=102|
8=FIXT.1.1|9=55|35=0|34=208|49=EXEC|52=20200228-16:06:18.140|56=BANZAI|10=098|
8=FIXT.1.1|9=55|35=0|34=206|49=BANZAI|52=20200228-16:06:33.984|56=EXEC|10=109|
8=FIXT.1.1|9=55|35=0|34=209|49=EXEC|52=20200228-16:06:38.140|56=BANZAI|10=101|
8=FIXT.1.1|9=55|35=0|34=207|49=BANZAI|52=20200228-16:06:53.987|56=EXEC|10=115|
8=FIXT.1.1|9=55|35=0|34=210|49=EXEC|52=20200228-16:06:58.140|56=BANZAI|10=095|
8=FIXT.1.1|9=55|35=0|34=208|49=BANZAI|52=20200228-16:07:13.990|56=EXEC|10=107|
8=FIXT.1.1|9=55|35=0|34=211|49=EXEC|52=20200228-16:07:18.140|56=BANZAI|10=093|
8=FIXT.1.1|9=55|35=0|34=209|49=BANZAI|52=20200228-16:07:33.992|56=EXEC|10=112|
8=FIXT.1.1|9=55|35=0|34=212|49=EXEC|52=20200228-16:07:38.140|56=BANZAI|10=096|
8=FIXT.1.1|9=55|35=0|34=210|49=BANZAI|52=20200228-16:07:53.996|56=EXEC|10=110|
8=FIXT.1.1|9=55|35=0|34=213|49=EXEC|52=20200228-16:07:58.140|56=BANZAI|10=099|
8=FIXT.1.1|9=55|35=0|34=211|49=BANZAI|52=20200228-16:08:13.999|56=EXEC|10=111|
8=FIXT.1.1|9=55|35=0|34=214|49=EXEC|52=20200228-16:08:18.140|56=BANZAI|10=097|
8=FIXT.1.1|9=55|35=0|34=212|49=BANZAI|52=20200228-16:08:34.002|56=EXEC|10=090|
8=FIXT.1.1|9=55|35=0|34=215|49=EXEC|52=20200228-16:08:38.140|56=BANZAI|10=100|
8=FIXT.1.1|9=55|35=0|34=213|49=BANZAI|52=20200228-16:08:54.005|56=EXEC|10=096|
8=FIXT.1.1|9=55|35=0|34=216|49=EXEC|52=20200228-16:08:58.140|56=BANZAI|10=103|
8=FIXT.1.1|9=55|35=0|34=214|49=BANZAI|52=20200228-16:09:14.007|56=EXEC|10=096|
8=FIXT.1.1|9=55|35=0|34=217|49=EXEC|52=20200228-16:09:18.140|56=BANZAI|10=101|
8=FIXT.1.1|9=55|35=0|34=215|49=BANZAI|52=20200228-16:09:34.010|56=EXEC|10=093|
8=FIXT.1.1|9=55|35=0|34=218|49=EXEC|52=20200228-16:09:38.140|56=BANZAI|10=104|
8=FIXT.1.1|9=55|35=0|34=216|49=BANZAI|52=20200228-16:09:54.013|56=EXEC|10=099|
8=FIXT.1.1|9=55|35=0|34=219|49=EXEC|52=20200228-16:09:58.140|56=BANZAI|10=107|
8=FIXT.1.1|9=55|35=0|34=217|49=BANZAI|52=20200228-16:10:14.017|56=EXEC|10=092|
8=FIXT.1.1|9=55|35=0|34=220|49=EXEC|52=20200228-16:10:18.140|56=BANZAI|10=087|
8=FIXT.1.1|9=55|35=0|34=218|49=BANZAI|52=20200228-16:10:34.019|56=EXEC|10=097|
8=FIXT.1.1|9=55|35=0|34=221|49=EXEC|52=20200228-16:10:38.140|56=BANZAI|10=090|
8=FIXT.1.1|9=55|35=0|34=219|49=BANZAI|52=20200228-16:10:54.021|56=EXEC|10=093|
8=FIXT.1.1|9=55|35=0|34=222|49=EXEC|52=20200228-16:10:58.140|56=BANZAI|10=093|
8=FIXT.1.1|9=55|35=0|34=220|49=BANZAI|52=20200228-16:11:14.024|56=EXEC|10=085|
8=FIXT.1.1|9=55|35=0|34=223|49=EXEC|52=20200228-16:11:18.140|56=BANZAI|10=091|
8=FIXT.1.1|9=55|35=0|34=221|49=BANZAI|52=20200228-16:11:34.027|56=EXEC|10=091|
8=FIXT.1.1|9=55|35=0|34=224|49=EXEC|52=20200228-16:11:38.140|56=BANZAI|10=094|
8=FIXT.1.1|9=55|35=0|34=222|49=BANZAI|52=20200228-16:11:54.030|56=EXEC|10=088|
8=FIXT.1.1|9=55|35=0|34=225|49=EXEC|52=20200228-16:11:58.140|56=BANZAI|10=097|
8=FIXT.1.1|9=55|35=0|34=223|49=BANZAI|52=20200228-16:12:14.034|56=EXEC|10=090|
8=FIXT.1.1|9=55|35=0|34=226|49=EXEC|52=20200228-16:12:18.140|56=BANZAI|10=095|
8=FIXT.1.1|9=55|35=0|34=224|49=BANZAI|52=20200228-16:12:34.036|56=EXEC|10=095|
8=FIXT.1.1|9=55|35=0|34=227|49=EXEC|52=20200228-16:12:38.140|56=BANZAI|10=098|
8=FIXT.1.1|9=55|35=0|34=225|49=BANZAI|52=20200228-16:12:54.038|56=EXEC|10=100|
8=FIXT.1.1|9=55|35=0|34=228|49=EXEC|52=20200228-16:12:58.140|56=BANZAI|10=101|
8=FIXT.1.1|9=55|35=0|34=226|49=BANZAI|52=20200228-16:13:14.042|56=EXEC|10=093|
8=FIXT.1.1|9=55|35=0|34=229|49=EXEC|52=20200228-16:13:18.140|56=BANZAI|10=099|
8=FIXT.1.1|9=55|35=0|34=227|49=BANZAI|52=20200228-16:13:34.044|56=EXEC|10=098|
8=FIXT.1.1|9=55|35=0|34=230|49=EXEC|52=20200228-16:13:38.140|56=BANZAI|10=093|
8=FIXT.1.1|9=55|35=0|34=228|49=BANZAI|52=20200228-16:13:54.047|56=EXEC|10=104|
8=FIXT.1.1|9=55|35=0|34=231|49=EXEC|52=20200228-16:13:58.140|56=BANZAI|10=096|
8=FIXT.1.1|9=55|35=0|34=229|49=BANZAI|52=20200228-16:14:14.050|56=EXEC|10=096|
8=FIXT.1.1|9=55|35=0|34=232|49=EXEC|52=20200228-16:14:18.140|56=BANZAI|10=094|
8=FIXT.1.1|9=55|35=0|34=230|49=BANZAI|52=20200228-16:14:34.053|56=EXEC|10=093|
8=FIXT.1.1|9=55|35=0|34=233|49=EXEC|52=20200228-16:14:38.140|56=BANZAI|10=097|
8=FIXT.1.1|9=55|35=0|34=231|49=BANZAI|52=20200228-16:14:54.056|56=EXEC|10=099|
8=FIXT.1.1|9=55|35=0|34=234|49=EXEC|52=20200228-16:14:58.140|56=BANZAI|10=100|
8=FIXT.1.1|9=55|35=0|34=232|49=BANZAI|52=20200228-16:15:14.060|56=EXEC|10=092|
8=FIXT.1.1|9=55|35=0|34=235|49=EXEC|52=20200228-16:15:18.140|56=BANZAI|10=098|
8=FIXT.1.1|9=55|35=0|34=233|49=BANZAI|52=20200228-16:15:34.062|56=EXEC|10=097|
8=FIXT.1.1|9=55|35=0|34=236|49=EXEC|52=20200228-16:15:38.140|56=BANZAI|10=101|
8=FIXT.1.1|9=55|35=0|34=234|49=BANZAI|52=20200228-16:15:54.065|56=EXEC|10=103|
8=FIXT.1.1|9=55|35=0|34=237|49=EXEC|52=20200228-16:15:58.140|56=BANZAI|10=104|
8=FIXT.1.1|9=55|35=0|34=235|49=BANZAI|52=20200228-16:16:14.068|56=EXEC|10=104|
8=FIXT.1.1|9=55|35=0|34=238|49=EXEC|52=20200228-16:16:18.140|56=BANZAI|10=102|
8=FIXT.1.1|9=55|35=0|34=236|49=BANZAI|52=20200228-16:16:34.072|56=EXEC|10=102|
8=FIXT.1.1|9=55|35=0|34=239|49=EXEC|52=20200228-16:16:38.140|56=BANZAI|10=105|
8=FIXT.1.1|9=55|35=0|34=237|49=BANZAI|52=20200228-16:16:54.074|56=EXEC|10=107|
8=FIXT.1.1|9=55|35=0|34=240|49=EXEC|52=20200228-16:16:58.140|56=BANZAI|10=099|
8=FIXT.1.1|9=55|35=0|34=238|49=BANZAI|52=20200228-16:17:14.077|56=EXEC|10=108|
8=FIXT.1.1|9=55|35=0|34=241|49=EXEC|52=20200228-16:17:18.140|56=BANZAI|10=097|
8=FIXT.1.1|9=55|35=0|34=239|49=BANZAI|52=20200228-16:17:34.080|56=EXEC|10=105|
8=FIXT.1.1|9=55|35=0|34=242|49=EXEC|52=20200228-16:17:38.140|56=BANZAI|10=100|
8=FIXT.1.1|9=55|35=0|34=240|49=BANZAI|52=20200228-16:17:54.083|56=EXEC|10=102|
8=FIXT.1.1|9=55|35=0|34=243|49=EXEC|52=20200228-16:17:58.140|56=BANZAI|10=103|
8=FIXT.1.1|9=55|35=0|34=241|49=BANZAI|52=20200228-16:18:14.086|56=EXEC|10=103|
8=FIXT.1.1|9=55|35=0|34=244|49=EXEC|52=20200228-16:18:18.140|56=BANZAI|10=101|
8=FIXT.1.1|9=55|35=0|34=242|49=BANZAI|52=20200228-16:18:34.089|56=EXEC|10=109|
8=FIXT.1.1|9=55|35=0|34=245|49=EXEC|52=20200228-16:18:38.140|56=BANZAI|10=104|
8=FIXT.1.1|9=55|35=0|34=243|49=BANZAI|52=20200228-16:18:54.092|56=EXEC|10=106|
8=FIXT.1.1|9=55|35=0|34=246|49=EXEC|52=20200228-16:18:58.140|56=BANZAI|10=107|
8=FIXT.1.1|9=55|35=0|34=244|49=BANZAI|52=20200228-16:19:14.095|56=EXEC|10=107|
8=FIXT.1.1|9=55|35=0|34=247|49=EXEC|52=20200228-16:19:18.140|56=BANZAI|10=105|
8=FIXT.1.1|9=55|35=0|34=245|49=BANZAI|52=20200228-16:19:34.098|56=EXEC|10=113|
8=FIXT.1.1|9=55|35=0|34=248|49=EXEC|52=20200228-16:19:38.140|56=BANZAI|10=108|
8=FIXT.1.1|9=55|35=0|34=246|49=BANZAI|52=20200228-16:19:54.100|56=EXEC|10=100|
8=FIXT.1.1|9=55|35=0|34=249|49=EXEC|52=20200228-16:19:58.140|56=BANZAI|10=111|
8=FIXT.1.1|9=55|35=0|34=247|49=BANZAI|52=20200228-16:20:14.103|56=EXEC|10=092|
8=FIXT.1.1|9=55|35=0|34=250|49=EXEC|52=20200228-16:20:18.140|56=BANZAI|10=091|
8=FIXT.1.1|9=55|35=0|34=248|49=BANZAI|52=20200228-16:20:34.106|56=EXEC|10=098|
8=FIXT.1.1|9=55|35=0|34=251|49=EXEC|52=20200228-16:20:38.140|56=BANZAI|10=094|
8=FIXT.1.1|9=55|35=0|34=249|49=BANZAI|52=20200228-16:20:54.109|56=EXEC|10=104|
8=FIXT.1.1|9=55|35=0|34=252|49=EXEC|52=20200228-16:20:58.140|56=BANZAI|10=097|
8=FIXT.1.1|9=55|35=0|34=250|49=BANZAI|52=20200228-16:21:14.112|56=EXEC|10=087|
8=FIXT.1.1|9=55|35=0|34=253|49=EXEC|52=20200228-16:21:18.140|56=BANZAI|10=095|
8=FIXT.1.1|9=55|35=0|34=251|49=BANZAI|52=20200228-16:21:34.114|56=EXEC|10=092|
8=FIXT.1.1|9=55|35=0|34=254|49=EXEC|52=20200228-16:21:38.140|56=BANZAI|10=098|
8=FIXT.1.1|9=55|35=0|34=252|49=BANZAI|52=20200228-16:21:54.117|56=EXEC|10=098|
8=FIXT.1.1|9=55|35=0|34=255|49=EXEC|52=20200228-16:21:58.140|56=BANZAI|10=101|
8=FIXT.1.1|9=55|35=0|34=253|49=BANZAI|52=20200228-16:22:14.120|56=EXEC|10=090|
8=FIXT.1.1|9=55|35=0|34=256|49=EXEC|52=20200228-16:22:18.140|56=BANZAI|10=099|
8=FIXT.1.1|9=55|35=0|34=254|49=BANZAI|52=20200228-16:22:34.124|56=EXEC|10=097|
8=FIXT.1.1|9=55|35=0|34=257|49=EXEC|52=20200228-16:22:38.140|56=BANZAI|10=102|
8=FIXT.1.1|9=55|35=0|34=255|49=BANZAI|52=20200228-16:22:54.127|56=EXEC|10=103|
8=FIXT.1.1|9=55|35=0|34=258|49=EXEC|52=20200228-16:22:58.140|56=BANZAI|10=105|
8=FIXT.1.1|9=55|35=0|34=256|49=BANZAI|52=20200228-16:23:14.130|56=EXEC|10=095|
8=FIXT.1.1|9=55|35=0|34=259|49=EXEC|52=20200228-16:23:18.140|56=BANZAI|10=103|
8=FIXT.1.1|9=55|35=0|34=257|49=BANZAI|52=20200228-16:23:34.133|56=EXEC|10=101|
8=FIXT.1.1|9=55|35=0|34=260|49=EXEC|52=20200228-16:23:38.140|56=BANZAI|10=097|
8=FIXT.1.1|9=55|35=0|34=258|49=BANZAI|52=20200228-16:23:54.136|56=EXEC|10=107|
8=FIXT.1.1|9=55|35=0|34=261|49=EXEC|52=20200228-16:23:58.140|56=BANZAI|10=100|
8=FIXT.1.1|9=55|35=0|34=259|49=BANZAI|52=20200228-16:24:14.139|56=EXEC|10=108|
8=FIXT.1.1|9=55|35=0|34=262|49=EXEC|52=20200228-16:24:18.140|56=BANZAI|10=098|
8=FIXT.1.1|9=55|35=0|34=260|49=BANZAI|52=20200228-16:24:34.142|56=EXEC|10=096|
8=FIXT.1.1|9=55|35=0|34=263|49=EXEC|52=20200228-16:24:38.140|56=BANZAI|10=101|
8=FIXT.1.1|9=55|35=0|34=261|49=BANZAI|52=20200228-16:24:54.145|56=EXEC|10=102|
8=FIXT.1.1|9=55|35=0|34=264|49=EXEC|52=20200228-16:24:58.140|56=BANZAI|10=104|
8=FIXT.1.1|9=55|35=0|34=262|49=BANZAI|52=20200228-16:25:14.148|56=EXEC|10=103|
8=FIXT.1.1|9=55|35=0|34=265|49=EXEC|52=20200228-16:25:18.140|56=BANZAI|10=102|
8=FIXT.1.1|9=55|35=0|34=263|49=BANZAI|52=20200228-16:25:34.151|56=EXEC|10=100|
8=FIXT.1.1|9=55|35=0|34=266|49=EXEC|52=20200228-16:25:38.140|56=BANZAI|10=105|
8=FIXT.1.1|9=55|35=0|34=264|49=BANZAI|52=20200228-16:25:54.154|56=EXEC|10=106|
8=FIXT.1.1|9=55|35=0|34=267|49=EXEC|52=20200228-16:25:58.140|56=BANZAI|10=108|
8=FIXT.1.1|9=55|35=0|34=265|49=BANZAI|52=20200228-16:26:14.157|56=EXEC|10=107|
8=FIXT.1.1|9=55|35=0|34=268|49=EXEC|52=20200228-16:26:18.140|56=BANZAI|10=106|
8=FIXT.1.1|9=55|35=0|34=266|49=BANZAI|52=20200228-16:26:34.159|56=EXEC|10=112|
8=FIXT.1.1|9=55|35=0|34=269|49=EXEC|52=20200228-16:26:38.140|56=BANZAI|10=109|
8=FIXT.1.1|9=55|35=0|34=267|49=BANZAI|52=20200228-16:26:54.162|56=EXEC|10=109|
8=FIXT.1.1|9=55|35=0|34=270|49=EXEC|52=20200228-16:26:58.140|56=BANZAI|10=103|
8=FIXT.1.1|9=55|35=0|34=268|49=BANZAI|52=20200228-16:27:14.165|56=EXEC|10=110|
8=FIXT.1.1|9=55|35=0|34=271|49=EXEC|52=20200228-16:27:18.140|56=BANZAI|10=101|
8=FIXT.1.1|9=55|35=0|34=269|49=BANZAI|52=20200228-16:27:34.169|56=EXEC|10=117|
8=FIXT.1.1|9=55|35=0|34=272|49=EXEC|52=20200228-16:27:38.140|56=BANZAI|10=104|
8=FIXT.1.1|9=55|35=0|34=270|49=BANZAI|52=20200228-16:27:54.172|56=EXEC|10=105|
8=FIXT.1.1|9=55|35=0|34=273|49=EXEC|52=20200228-16:27:58.140|56=BANZAI|10=107|
8=FIXT.1.1|9=55|35=0|34=271|49=BANZAI|52=20200228-16:28:14.175|56=EXEC|10=106|
8=FIXT.1.1|9=55|35=0|34=274|49=EXEC|52=20200228-16:28:18.140|56=BANZAI|10=105|
8=FIXT.1.1|9=55|35=0|34=272|49=BANZAI|52=20200228-16:28:34.179|56=EXEC|10=113|
8=FIXT.1.1|9=55|35=0|34=275|49=EXEC|52=20200228-16:28:38.140|56=BANZAI|10=108|
8=FIXT.1.1|9=55|35=0|34=273|49=BANZAI|52=20200228-16:28:54.182|56=EXEC|10=110|
8=FIXT.1.1|9=55|35=0|34=276|49=EXEC|52=20200228-16:28:58.140|56=BANZAI|10=111|
8=FIXT.1.1|9=55|35=0|34=274|49=BANZAI|52=20200228-16:29:14.185|56=EXEC|10=111|
8=FIXT.1.1|9=55|35=0|34=277|49=EXEC|52=20200228-16:29:18.140|56=BANZAI|10=109|
8=FIXT.1.1|9=55|35=0|34=275|49=BANZAI|52=20200228-16:29:34.188|56=EXEC|10=117|
8=FIXT.1.1|9=55|35=0|34=278|49=EXEC|52=20200228-16:29:38.140|56=BANZAI|10=112|
8=FIXT.1.1|9=55|35=0|34=276|49=BANZAI|52=20200228-16:29:54.190|56=EXEC|10=113|
8=FIXT.1.1|9=55|35=0|34=279|49=EXEC|52=20200228-16:29:58.140|56=BANZAI|10=115|
8=FIXT.1.1|9=55|35=0|34=277|49=BANZAI|52=20200228-16:30:14.193|56=EXEC|10=105|
8=FIXT.1.1|9=55|35=0|34=280|49=EXEC|52=20200228-16:30:18.140|56=BANZAI|10=095|
8=FIXT.1.1|9=55|35=0|34=278|49=BANZAI|52=20200228-16:30:34.197|56=EXEC|10=112|
8=FIXT.1.1|9=55|35=0|34=281|49=EXEC|52=20200228-16:30:38.140|56=BANZAI|10=098|
8=FIXT.1.1|9=55|35=0|34=279|49=BANZAI|52=20200228-16:30:54.199|56=EXEC|10=117|
8=FIXT.1.1|9=55|35=0|34=282|49=EXEC|52=20200228-16:30:58.140|56=BANZAI|10=101|
8=FIXT.1.1|9=55|35=0|34=280|49=BANZAI|52=20200228-16:31:14.202|56=EXEC|10=091|
8=FIXT.1.1|9=55|35=0|34=283|49=EXEC|52=20200228-16:31:18.140|56=BANZAI|10=099|
8=FIXT.1.1|9=55|35=0|34=281|49=BANZAI|52=20200228-16:31:34.230|56=EXEC|10=095|
8=FIXT.1.1|9=55|35=0|34=284|49=EXEC|52=20200228-16:31:38.140|56=BANZAI|10=102|
8=FIXT.1.1|9=55|35=0|34=282|49=BANZAI|52=20200228-16:31:54.232|56=EXEC|10=100|
8=FIXT.1.1|9=55|35=0|34=285|49=EXEC|52=20200228-16:31:58.140|56=BANZAI|10=105|
8=FIXT.1.1|9=55|35=0|34=283|49=BANZAI|52=20200228-16:32:14.236|56=EXEC|10=102|
8=FIXT.1.1|9=55|35=0|34=286|49=EXEC|52=20200228-16:32:18.140|56=BANZAI|10=103|
8=FIXT.1.1|9=55|35=0|34=284|49=BANZAI|52=20200228-16:32:34.238|56=EXEC|10=107|
8=FIXT.1.1|9=55|35=0|34=287|49=EXEC|52=20200228-16:32:38.140|56=BANZAI|10=106|
8=FIXT.1.1|9=55|35=0|34=285|49=BANZAI|52=20200228-16:32:54.242|56=EXEC|10=105|
8=FIXT.1.1|9=55|35=0|34=288|49=EXEC|52=20200228-16:32:58.140|56=BANZAI|10=109|
8=FIXT.1.1|9=55|35=0|34=286|49=BANZAI|52=20200228-16:33:14.245|56=EXEC|10=106|
8=FIXT.1.1|9=55|35=0|34=289|49=EXEC|52=20200228-16:33:18.140|56=BANZAI|10=107|
8=FIXT.1.1|9=55|35=0|34=287|49=BANZAI|52=20200228-16:33:34.248|56=EXEC|10=112|
8=FIXT.1.1|9=55|35=0|34=290|49=EXEC|52=20200228-16:33:38.140|56=BANZAI|10=101|
8=FIXT.1.1|9=55|35=0|34=288|49=BANZAI|52=20200228-16:33:54.250|56=EXEC|10=108|
8=FIXT.1.1|9=55|35=0|34=291|49=EXEC|52=20200228-16:33:58.140|56=BANZAI|10=104|
8=FIXT.1.1|9=55|35=0|34=289|49=BANZAI|52=20200228-16:34:14.255|56=EXEC|10=111|
8=FIXT.1.1|9=55|35=0|34=292|49=EXEC|52=20200228-16:34:18.140|56=BANZAI|10=102|
8=FIXT.1.1|9=55|35=0|34=290|49=BANZAI|52=20200228-16:34:34.259|56=EXEC|10=109|
8=FIXT.1.1|9=55|35=0|34=293|49=EXEC|52=20200228-16:34:38.140|56=BANZAI|10=105|
8=FIXT.1.1|9=55|35=0|34=291|49=BANZAI|52=20200228-16:34:54.262|56=EXEC|10=106|
8=FIXT.1.1|9=55|35=0|34=294|49=EXEC|52=20200228-16:34:58.140|56=BANZAI|10=108|
8=FIXT.1.1|9=55|35=0|34=292|49=BANZAI|52=20200228-16:35:14.265|56=EXEC|10=107|
8=FIXT.1.1|9=55|35=0|34=295|49=EXEC|52=20200228-16:35:18.140|56=BANZAI|10=106|
8=FIXT.1.1|9=55|35=0|34=293|49=BANZAI|52=20200228-16:35:34.268|56=EXEC|10=113|
8=FIXT.1.1|9=55|35=0|34=296|49=EXEC|52=20200228-16:35:38.140|56=BANZAI|10=109|
8=FIXT.1.1|9=55|35=0|34=294|49=BANZAI|52=20200228-16:35:54.271|56=EXEC|10=110|
8=FIXT.1.1|9=55|35=0|34=297|49=EXEC|52=20200228-16:35:58.140|56=BANZAI|10=112|
8=FIXT.1.1|9=55|35=0|34=295|49=BANZAI|52=20200228-16:36:14.274|56=EXEC|10=111|
8=FIXT.1.1|9=55|35=0|34=298|49=EXEC|52=20200228-16:36:18.140|56=BANZAI|10=110|
8=FIXT.1.1|9=55|35=0|34=296|49=BANZAI|52=20200228-16:36:34.277|56=EXEC|10=117|
8=FIXT.1.1|9=55|35=0|34=299|49=EXEC|52=20200228-16:36:38.140|56=BANZAI|10=113|
8=FIXT.1.1|9=55|35=0|34=297|49=BANZAI|52=20200228-16:36:54.280|56=EXEC|10=114|
8=FIXT.1.1|9=55|35=0|34=300|49=EXEC|52=20200228-16:36:58.140|56=BANZAI|10=098|
8=FIXT.1.1|9=55|35=0|34=298|49=BANZAI|52=20200228-16:37:14.283|56=EXEC|10=115|
8=FIXT.1.1|9=55|35=0|34=301|49=EXEC|52=20200228-16:37:18.140|56=BANZAI|10=096|
8=FIXT.1.1|9=55|35=0|34=299|49=BANZAI|52=20200228-16:37:34.285|56=EXEC|10=120|
8=FIXT.1.1|9=55|35=0|34=302|49=EXEC|52=20200228-16:37:38.140|56=BANZAI|10=099|
8=FIXT.1.1|9=55|35=0|34=300|49=BANZAI|52=20200228-16:37:54.288|56=EXEC|10=108|
8=FIXT.1.1|9=55|35=0|34=303|49=EXEC|52=20200228-16:37:58.140|56=BANZAI|10=102|
8=FIXT.1.1|9=55|35=0|34=301|49=BANZAI|52=20200228-16:38:14.291|56=EXEC|10=100|
8=FIXT.1.1|9=55|35=0|34=304|49=EXEC|52=20200228-16:38:18.140|56=BANZAI|10=100|
8=FIXT.1.1|9=55|35=0|34=302|49=BANZAI|52=20200228-16:38:34.294|56=EXEC|10=106|
8=FIXT.1.1|9=55|35=0|34=305|49=EXEC|52=20200228-16:38:38.140|56=BANZAI|10=103|
8=FIXT.1.1|9=55|35=0|34=303|49=BANZAI|52=20200228-16:38:54.296|56=EXEC|10=111|
8=FIXT.1.1|9=55|35=0|34=306|49=EXEC|52=20200228-16:38:58.140|56=BANZAI|10=106|
8=FIXT.1.1|9=55|35=0|34=304|49=BANZAI|52=20200228-16:39:14.299|56=EXEC|10=112|
8=FIXT.1.1|9=55|35=0|34=307|49=EXEC|52=20200228-16:39:18.140|56=BANZAI|10=104|
8=FIXT.1.1|9=55|35=0|34=305|49=BANZAI|52=20200228-16:39:34.301|56=EXEC|10=099|
8=FIXT.1.1|9=55|35=0|34=308|49=EXEC|52=20200228-16:39:38.140|56=BANZAI|10=107|
8=FIXT.1.1|9=55|35=0|34=306|49=BANZAI|52=20200228-16:39:54.304|56=EXEC|10=105|
8=FIXT.1.1|9=55|35=0|34=309|49=EXEC|52=20200228-16:39:58.140|56=BANZAI|10=110|
8=FIXT.1.1|9=55|35=0|34=307|49=BANZAI|52=20200228-16:40:14.307|56=EXEC|10=097|
8=FIXT.1.1|9=55|35=0|34=310|49=EXEC|52=20200228-16:40:18.140|56=BANZAI|10=090|
8=FIXT.1.1|9=55|35=0|34=308|49=BANZAI|52=20200228-16:40:34.309|56=EXEC|10=102|
8=FIXT.1.1|9=55|35=0|34=311|49=EXEC|52=20200228-16:40:38.140|56=BANZAI|10=093|
8=FIXT.1.1|9=55|35=0|34=309|49=BANZAI|52=20200228-16:40:54.312|56=EXEC|10=099|
8=FIXT.1.1|9=55|35=0|34=312|49=EXEC|52=20200228-16:40:58.140|56=BANZAI|10=096|
8=FIXT.1.1|9=55|35=0|34=310|49=BANZAI|52=20200228-16:41:14.315|56=EXEC|10=091|
8=FIXT.1.1|9=55|35=0|34=313|49=EXEC|52=20200228-16:41:18.140|56=BANZAI|10=094|
8=FIXT.1.1|9=55|35=0|34=311|49=BANZAI|52=20200228-16:41:34.319|56=EXEC|10=098|
8=FIXT.1.1|9=55|35=0|34=314|49=EXEC|52=20200228-16:41:38.140|56=BANZAI|10=097|
8=FIXT.1.1|9=55|35=0|34=312|49=BANZAI|52=20200228-16:41:54.321|56=EXEC|10=094|
8=FIXT.1.1|9=55|35=0|34=315|49=EXEC|52=20200228-16:41:58.141|56=BANZAI|10=101|
8=FIXT.1.1|9=55|35=0|34=313|49=BANZAI|52=20200228-16:42:14.325|56=EXEC|10=096|
8=FIXT.1.1|9=55|35=0|34=316|49=EXEC|52=20200228-16:42:18.140|56=BANZAI|10=098|
8=FIXT.1.1|9=55|35=0|34=314|49=BANZAI|52=20200228-16:42:34.328|56=EXEC|10=102|
8=FIXT.1.1|9=55|35=0|34=317|49=EXEC|52=20200228-16:42:38.140|56=BANZAI|10=101|
8=FIXT.1.1|9=55|35=0|34=315|49=BANZAI|52=20200228-16:42:54.330|56=EXEC|10=098|
8=FIXT.1.1|9=55|35=0|34=318|49=EXEC|52=20200228-16:42:58.140|56=BANZAI|10=104|
8=FIXT.1.1|9=55|35=0|34=316|49=BANZAI|52=20200228-16:43:14.334|56=EXEC|10=100|
8=FIXT.1.1|9=55|35=0|34=319|49=EXEC|52=20200228-16:43:18.140|56=BANZAI|10=102|
8=FIXT.1.1|9=55|35=0|34=317|49=BANZAI|52=20200228-16:43:34.336|56=EXEC|10=105|
8=FIXT.1.1|9=55|35=0|34=320|49=EXEC|52=20200228-16:43:38.140|56=BANZAI|10=096|
8=FIXT.1.1|9=55|35=0|34=318|49=BANZAI|52=20200228-16:43:54.339|56=EXEC|10=111|
8=FIXT.1.1|9=55|35=0|34=321|49=EXEC|52=20200228-16:43:58.140|56=BANZAI|10=099|
8=FIXT.1.1|9=55|35=0|34=319|49=BANZAI|52=20200228-16:44:14.342|56=EXEC|10=103|
8=FIXT.1.1|9=55|35=0|34=322|49=EXEC|52=20200228-16:44:18.140|56=BANZAI|10=097|
8=FIXT.1.1|9=55|35=0|34=320|49=BANZAI|52=20200228-16:44:34.345|56=EXEC|10=100|
8=FIXT.1.1|9=55|35=0|34=323|49=EXEC|52=20200228-16:44:38.140|56=BANZAI|10=100|
8=FIXT.1.1|9=55|35=0|34=321|49=BANZAI|52=20200228-16:44:54.348|56=EXEC|10=106|
8=FIXT.1.1|9=55|35=0|34=324|49=EXEC|52=20200228-16:44:58.140|56=BANZAI|10=103|
8=FIXT.1.1|9=55|35=0|34=322|49=BANZAI|52=20200228-16:45:14.351|56=EXEC|10=098|
8=FIXT.1.1|9=55|35=0|34=325|49=EXEC|52=20200228-16:45:18.140|56=BANZAI|10=101|
8=FIXT.1.1|9=55|35=0|34=323|49=BANZAI|52=20200228-16:45:34.354|56=EXEC|10=104|
8=FIXT.1.1|9=55|35=0|34=326|49=EXEC|52=20200228-16:45:38.140|56=BANZAI|10=104|
8=FIXT.1.1|9=55|35=0|34=324|49=BANZAI|52=20200228-16:45:54.357|56=EXEC|10=110|
8=FIXT.1.1|9=55|35=0|34=327|49=EXEC|52=20200228-16:45:58.140|56=BANZAI|10=107|
8=FIXT.1.1|9=55|35=0|34=325|49=BANZAI|52=20200228-16:46:14.359|56=EXEC|10=110|
8=FIXT.1.1|9=55|35=0|34=328|49=EXEC|52=20200228-16:46:18.140|56=BANZAI|10=105|
8=FIXT.1.1|9=55|35=0|34=326|49=BANZAI|52=20200228-16:46:34.363|56=EXEC|10=108|
8=FIXT.1.1|9=55|35=0|34=329|49=EXEC|52=20200228-16:46:38.140|56=BANZAI|10=108|
8=FIXT.1.1|9=55|35=0|34=327|49=BANZAI|52=20200228-16:46:54.366|56=EXEC|10=114|
8=FIXT.1.1|9=55|35=0|34=330|49=EXEC|52=20200228-16:46:58.140|56=BANZAI|10=102|
8=FIXT.1.1|9=55|35=0|34=328|49=BANZAI|52=20200228-16:47:14.368|56=EXEC|10=114|
8=FIXT.1.1|9=55|35=0|34=331|49=EXEC|52=20200228-16:47:18.140|56=BANZAI|10=100|
8=FIXT.1.1|9=55|35=0|34=329|49=BANZAI|52=20200228-16:47:34.371|56=EXEC|10=111|
8=FIXT.1.1|9=55|35=0|34=332|49=EXEC|52=20200228-16:47:38.140|56=BANZAI|10=103|
8=FIXT.1.1|9=55|35=0|34=330|49=BANZAI|52=20200228-16:47:54.373|56=EXEC|10=107|
8=FIXT.1.1|9=55|35=0|34=333|49=EXEC|52=20200228-16:47:58.140|56=BANZAI|10=106|
8=FIXT.1.1|9=55|35=0|34=331|49=BANZAI|52=20200228-16:48:14.377|56=EXEC|10=109|
8=FIXT.1.1|9=55|35=0|34=334|49=EXEC|52=20200228-16:48:18.140|56=BANZAI|10=104|
8=FIXT.1.1|9=55|35=0|34=332|49=BANZAI|52=20200228-16:48:34.415|56=EXEC|10=105|
8=FIXT.1.1|9=55|35=0|34=335|49=EXEC|52=20200228-16:48:38.140|56=BANZAI|10=107|
8=FIXT.1.1|9=55|35=0|34=333|49=BANZAI|52=20200228-16:48:54.419|56=EXEC|10=112|
8=FIXT.1.1|9=55|35=0|34=336|49=EXEC|52=20200228-16:48:58.140|56=BANZAI|10=110|
8=FIXT.1.1|9=55|35=0|34=334|49=BANZAI|52=20200228-16:49:14.422|56=EXEC|10=104|
8=FIXT.1.1|9=55|35=0|34=337|49=EXEC|52=20200228-16:49:18.140|56=BANZAI|10=108|
8=FIXT.1.1|9=55|35=0|34=335|49=BANZAI|52=20200228-16:49:34.425|56=EXEC|10=110|
8=FIXT.1.1|9=55|35=0|34=338|49=EXEC|52=20200228-16:49:38.140|56=BANZAI|10=111|
8=FIXT.1.1|9=55|35=0|34=336|49=BANZAI|52=20200228-16:49:54.428|56=EXEC|10=116|
8=FIXT.1.1|9=55|35=0|34=339|49=EXEC|52=20200228-16:49:58.140|56=BANZAI|10=114|
8=FIXT.1.1|9=55|35=0|34=337|49=BANZAI|52=20200228-16:50:14.432|56=EXEC|10=100|
8=FIXT.1.1|9=55|35=0|34=340|49=EXEC|52=20200228-16:50:18.140|56=BANZAI|10=094|
8=FIXT.1.1|9=55|35=0|34=338|49=BANZAI|52=20200228-16:50:34.436|56=EXEC|10=107|
8=FIXT.1.1|9=55|35=0|34=341|49=EXEC|52=20200228-16:50:38.140|56=BANZAI|10=097|
8=FIXT.1.1|9=55|35=0|34=339|49=BANZAI|52=20200228-16:50:54.439|56=EXEC|10=113|
8=FIXT.1.1|9=55|35=0|34=342|49=EXEC|52=20200228-16:50:58.140|56=BANZAI|10=100|
8=FIXT.1.1|9=55|35=0|34=340|49=BANZAI|52=20200228-16:51:14.442|56=EXEC|10=096|
8=FIXT.1.1|9=55|35=0|34=343|49=EXEC|52=20200228-16:51:18.140|56=BANZAI|10=098|
8=FIXT.1.1|9=55|35=0|34=341|49=BANZAI|52=20200228-16:51:34.445|56=EXEC|10=102|
8=FIXT.1.1|9=55|35=0|34=344|49=EXEC|52=20200228-16:51:38.140|56=BANZAI|10=101|
8=FIXT.1.1|9=55|35=0|34=342|49=BANZAI|52=20200228-16:51:54.448|56=EXEC|10=108|
8=FIXT.1.1|9=55|35=0|34=345|49=EXEC|52=20200228-16:51:58.140|56=BANZAI|10=104|
8=FIXT.1.1|9=55|35=0|34=343|49=BANZAI|52=20200228-16:52:14.451|56=EXEC|10=100|
8=FIXT.1.1|9=55|35=0|34=346|49=EXEC|52=20200228-16:52:18.140|56=BANZAI|10=102|
8=FIXT.1.1|9=55|35=0|34=344|49=BANZAI|52=20200228-16:52:34.454|56=EXEC|10=106|
8=FIXT.1.1|9=55|35=0|34=347|49=EXEC|52=20200228-16:52:38.140|56=BANZAI|10=105|
8=FIXT.1.1|9=55|35=0|34=345|49=BANZAI|52=20200228-16:52:54.457|56=EXEC|10=112|
8=FIXT.1.1|9=55|35=0|34=348|49=EXEC|52=20200228-16:52:58.140|56=BANZAI|10=108|
8=FIXT.1.1|9=55|35=0|34=346|49=BANZAI|52=20200228-16:53:14.460|56=EXEC|10=104|
8=FIXT.1.1|9=55|35=0|34=349|49=EXEC|52=20200228-16:53:18.140|56=BANZAI|10=106|
8=FIXT.1.1|9=55|35=0|34=347|49=BANZAI|52=20200228-16:53:34.463|56=EXEC|10=110|
8=FIXT.1.1|9=55|35=0|34=350|49=EXEC|52=20200228-16:53:38.140|56=BANZAI|10=100|
8=FIXT.1.1|9=55|35=0|34=348|49=BANZAI|52=20200228-16:53:54.465|56=EXEC|10=115|
8=FIXT.1.1|9=55|35=0|34=351|49=EXEC|52=20200228-16:53:58.140|56=BANZAI|10=103|
8=FIXT.1.1|9=55|35=0|34=349|49=BANZAI|52=20200228-16:54:14.475|56=EXEC|10=114|
8=FIXT.1.1|9=55|35=0|34=352|49=EXEC|52=20200228-16:54:18.140|56=BANZAI|10=101|
8=FIXT.1.1|9=55|35=0|34=350|49=BANZAI|52=20200228-16:54:34.478|56=EXEC|10=111|
8=FIXT.1.1|9=55|35=0|34=353|49=EXEC|52=20200228-16:54:38.140|56=BANZAI|10=104|
8=FIXT.1.1|9=55|35=0|34=351|49=BANZAI|52=20200228-16:54:54.481|56=EXEC|10=108|
8=FIXT.1.1|9=55|35=0|34=354|49=EXEC|52=20200228-16:54:58.140|56=BANZAI|10=107|
8=FIXT.1.1|9=55|35=0|34=352|49=BANZAI|52=20200228-16:55:14.483|56=EXEC|10=108|
8=FIXT.1.1|9=55|35=0|34=355|49=EXEC|52=20200228-16:55:18.140|56=BANZAI|10=105|
8=FIXT.1.1|9=55|35=0|34=353|49=BANZAI|52=20200228-16:55:34.486|56=EXEC|10=114|
8=FIXT.1.1|9=55|35=0|34=356|49=EXEC|52=20200228-16:55:38.140|56=BANZAI|10=108|
8=FIXT.1.1|9=55|35=0|34=354|49=BANZAI|52=20200228-16:55:54.488|56=EXEC|10=119|
8=FIXT.1.1|9=55|35=0|34=357|49=EXEC|52=20200228-16:55:58.140|56=BANZAI|10=111|
8=FIXT.1.1|9=55|35=0|34=355|49=BANZAI|52=20200228-16:56:14.492|56=EXEC|10=112|
8=FIXT.1.1|9=55|35=0|34=358|49=EXEC|52=20200228-16:56:18.140|56=BANZAI|10=109|
8=FIXT.1.1|9=55|35=0|34=356|49=BANZAI|52=20200228-16:56:34.497|56=EXEC|10=120|
8=FIXT.1.1|9=55|35=0|34=359|49=EXEC|52=20200228-16:56:38.140|56=BANZAI|10=112|
8=FIXT.1.1|9=55|35=0|34=357|49=BANZAI|52=20200228-16:56:54.500|56=EXEC|10=108|
8=FIXT.1.1|9=55|35=0|34=360|49=EXEC|52=20200228-16:56:58.140|56=BANZAI|10=106|
8=FIXT.1.1|9=55|35=0|34=358|49=BANZAI|52=20200228-16:57:14.503|56=EXEC|10=109|
8=FIXT.1.1|9=55|35=0|34=361|49=EXEC|52=20200228-16:57:18.140|56=BANZAI|10=104|
8=FIXT.1.1|9=55|35=0|34=359|49=BANZAI|52=20200228-16:57:34.505|56=EXEC|10=114|
8=FIXT.1.1|9=55|35=0|34=362|49=EXEC|52=20200228-16:57:38.140|56=BANZAI|10=107|
8=FIXT.1.1|9=55|35=0|34=360|49=BANZAI|52=20200228-16:57:54.508|56=EXEC|10=111|
8=FIXT.1.1|9=55|35=0|34=363|49=EXEC|52=20200228-16:57:58.140|56=BANZAI|10=110|
8=FIXT.1.1|9=55|35=0|34=361|49=BANZAI|52=20200228-16:58:14.511|56=EXEC|10=103|
8=FIXT.1.1|9=55|35=0|34=364|49=EXEC|52=20200228-16:58:18.140|56=BANZAI|10=108|
8=FIXT.1.1|9=55|35=0|34=362|49=BANZAI|52=20200228-16:58:34.514|56=EXEC|10=109|
8=FIXT.1.1|9=55|35=0|34=365|49=EXEC|52=20200228-16:58:38.140|56=BANZAI|10=111|
8=FIXT.1.1|9=55|35=0|34=363|49=BANZAI|52=20200228-16:58:54.517|56=EXEC|10=115|
8=FIXT.1.1|9=55|35=0|34=366|49=EXEC|52=20200228-16:58:58.140|56=BANZAI|10=114|
8=FIXT.1.1|9=55|35=0|34=364|49=BANZAI|52=20200228-16:59:14.520|56=EXEC|10=107|
8=FIXT.1.1|9=55|35=0|34=367|49=EXEC|52=20200228-16:59:18.140|56=BANZAI|10=112|
8=FIXT.1.1|9=55|35=0|34=365|49=BANZAI|52=20200228-16:59:34.523|56=EXEC|10=113|
8=FIXT.1.1|9=55|35=0|34=368|49=EXEC|52=20200228-16:59:38.140|56=BANZAI|10=115|
8=FIXT.1.1|9=55|35=0|34=366|49=BANZAI|52=20200228-16:59:54.526|56=EXEC|10=119|
8=FIXT.1.1|9=55|35=0|34=369|49=EXEC|52=20200228-16:59:58.140|56=BANZAI|10=118|
8=FIXT.1.1|9=55|35=0|34=367|49=BANZAI|52=20200228-17:00:14.529|56=EXEC|10=106|
8=FIXT.1.1|9=55|35=0|34=370|49=EXEC|52=20200228-17:00:18.140|56=BANZAI|10=093|
8=FIXT.1.1|9=55|35=0|34=368|49=BANZAI|52=20200228-17:00:34.533|56=EXEC|10=104|
8=FIXT.1.1|9=55|35=0|34=371|49=EXEC|52=20200228-17:00:38.140|56=BANZAI|10=096|
8=FIXT.1.1|9=55|35=0|34=369|49=BANZAI|52=20200228-17:00:54.536|56=EXEC|10=110|
8=FIXT.1.1|9=55|35=0|34=372|49=EXEC|52=20200228-17:00:58.140|56=BANZAI|10=099|
8=FIXT.1.1|9=55|35=0|34=370|49=BANZAI|52=20200228-17:01:14.540|56=EXEC|10=094|
8=FIXT.1.1|9=55|35=0|34=373|49=EXEC|52=20200228-17:01:18.140|56=BANZAI|10=097|
8=FIXT.1.1|9=55|35=0|34=371|49=BANZAI|52=20200228-17:01:34.542|56=EXEC|10=099|
8=FIXT.1.1|9=55|35=0|34=374|49=EXEC|52=20200228-17:01:38.140|56=BANZAI|10=100|
8=FIXT.1.1|9=55|35=0|34=372|49=BANZAI|52=20200228-17:01:54.546|56=EXEC|10=106|
8=FIXT.1.1|9=55|35=0|34=375|49=EXEC|52=20200228-17:01:58.140|56=BANZAI|10=103|
8=FIXT.1.1|9=55|35=0|34=373|49=BANZAI|52=20200228-17:02:14.549|56=EXEC|10=107|
8=FIXT.1.1|9=55|35=0|34=376|49=EXEC|52=20200228-17:02:18.140|56=BANZAI|10=101|
8=FIXT.1.1|9=55|35=0|34=374|49=BANZAI|52=20200228-17:02:34.555|56=EXEC|10=107|
8=FIXT.1.1|9=55|35=0|34=377|49=EXEC|52=20200228-17:02:38.140|56=BANZAI|10=104|
8=FIXT.1.1|9=55|35=0|34=375|49=BANZAI|52=20200228-17:02:54.558|56=EXEC|10=113|
8=FIXT.1.1|9=55|35=0|34=378|49=EXEC|52=20200228-17:02:58.140|56=BANZAI|10=107|
8=FIXT.1.1|9=55|35=0|34=376|49=BANZAI|52=20200228-17:03:14.561|56=EXEC|10=105|
8=FIXT.1.1|9=55|35=0|34=379|49=EXEC|52=20200228-17:03:18.140|56=BANZAI|10=105|
8=FIXT.1.1|9=55|35=0|34=377|49=BANZAI|52=20200228-17:03:34.564|56=EXEC|10=111|
8=FIXT.1.1|9=55|35=0|34=380|49=EXEC|52=20200228-17:03:38.140|56=BANZAI|10=099|
8=FIXT.1.1|9=55|35=0|34=378|49=BANZAI|52=20200228-17:03:54.567|56=EXEC|10=117|
8=FIXT.1.1|9=55|35=0|34=381|49=EXEC|52=20200228-17:03:58.140|56=BANZAI|10=102|
8=FIXT.1.1|9=55|35=0|34=379|49=BANZAI|52=20200228-17:04:14.569|56=EXEC|10=117|
8=FIXT.1.1|9=55|35=0|34=382|49=EXEC|52=20200228-17:04:18.140|56=BANZAI|10=100|
8=FIXT.1.1|9=55|35=0|34=380|49=BANZAI|52=20200228-17:04:34.573|56=EXEC|10=106|
8=FIXT.1.1|9=55|35=0|34=383|49=EXEC|52=20200228-17:04:38.140|56=BANZAI|10=103|
8=FIXT.1.1|9=55|35=0|34=381|49=BANZAI|52=20200228-17:04:54.576|56=EXEC|10=112|
8=FIXT.1.1|9=55|35=0|34=384|49=EXEC|52=20200228-17:04:58.140|56=BANZAI|10=106|
8=FIXT.1.1|9=55|35=0|34=382|49=BANZAI|52=20200228-17:05:14.579|56=EXEC|10=113|
8=FIXT.1.1|9=55|35=0|34=385|49=EXEC|52=20200228-17:05:18.140|56=BANZAI|10=104|
8=FIXT.1.1|9=55|35=0|34=383|49=BANZAI|52=20200228-17:05:34.582|56=EXEC|10=110|
8=FIXT.1.1|9=55|35=0|34=386|49=EXEC|52=20200228-17:05:38.140|56=BANZAI|10=107|
8=FIXT.1.1|9=55|35=0|34=384|49=BANZAI|52=20200228-17:05:54.584|56=EXEC|10=115|
8=FIXT.1.1|9=55|35=0|34=387|49=EXEC|52=20200228-17:05:58.140|56=BANZAI|10=110|
8=FIXT.1.1|9=55|35=0|34=385|49=BANZAI|52=20200228-17:06:14.588|56=EXEC|10=117|
8=FIXT.1.1|9=55|35=0|34=388|49=EXEC|52=20200228-17:06:18.140|56=BANZAI|10=108|
8=FIXT.1.1|9=55|35=0|34=386|49=BANZAI|52=20200228-17:06:34.591|56=EXEC|10=114|
8=FIXT.1.1|9=55|35=0|34=389|49=EXEC|52=20200228-17:06:38.140|56=BANZAI|10=111|
8=FIXT.1.1|9=55|35=0|34=387|49=BANZAI|52=20200228-17:06:54.594|56=EXEC|10=120|
8=FIXT.1.1|9=55|35=0|34=390|49=EXEC|52=20200228-17:06:58.140|56=BANZAI|10=105|
8=FIXT.1.1|9=55|35=0|34=388|49=BANZAI|52=20200228-17:07:14.604|56=EXEC|10=110|
8=FIXT.1.1|9=55|35=0|34=391|49=EXEC|52=20200228-17:07:18.140|56=BANZAI|10=103|
8=FIXT.1.1|9=55|35=0|34=389|49=BANZAI|52=20200228-17:07:34.608|56=EXEC|10=117|
8=FIXT.1.1|9=55|35=0|34=392|49=EXEC|52=20200228-17:07:38.140|56=BANZAI|10=106|
8=FIXT.1.1|9=55|35=0|34=390|49=BANZAI|52=20200228-17:07:54.610|56=EXEC|10=104|
8=FIXT.1.1|9=55|35=0|34=393|49=EXEC|52=20200228-17:07:58.140|56=BANZAI|10=109|
8=FIXT.1.1|9=55|35=0|34=391|49=BANZAI|52=20200228-17:08:14.614|56=EXEC|10=106|
8=FIXT.1.1|9=55|35=0|34=394|49=EXEC|52=20200228-17:08:18.140|56=BANZAI|10=107|
8=FIXT.1.1|9=55|35=0|34=392|49=BANZAI|52=20200228-17:08:34.619|56=EXEC|10=114|
8=FIXT.1.1|9=55|35=0|34=395|49=EXEC|52=20200228-17:08:38.140|56=BANZAI|10=110|
8=FIXT.1.1|9=55|35=0|34=393|49=BANZAI|52=20200228-17:08:54.622|56=EXEC|10=111|
8=FIXT.1.1|9=55|35=0|34=396|49=EXEC|52=20200228-17:08:58.140|56=BANZAI|10=113|
8=FIXT.1.1|9=55|35=0|34=394|49=BANZAI|52=20200228-17:09:14.624|56=EXEC|10=111|
8=FIXT.1.1|9=55|35=0|34=397|49=EXEC|52=20200228-17:09:18.140|56=BANZAI|10=111|
8=FIXT.1.1|9=55|35=0|34=395|49=BANZAI|52=20200228-17:09:34.627|56=EXEC|10=117|
8=FIXT.1.1|9=55|35=0|34=398|49=EXEC|52=20200228-17:09:38.140|56=BANZAI|10=114|
8=FIXT.1.1|9=55|35=0|34=396|49=BANZAI|52=20200228-17:09:54.630|56=EXEC|10=114|
8=FIXT.1.1|9=55|35=0|34=399|49=EXEC|52=20200228-17:09:58.140|56=BANZAI|10=117|
8=FIXT.1.1|9=55|35=0|34=397|49=BANZAI|52=20200228-17:10:14.633|56=EXEC|10=106|
8=FIXT.1.1|9=55|35=0|34=400|49=EXEC|52=20200228-17:10:18.140|56=BANZAI|10=088|
8=FIXT.1.1|9=55|35=0|34=398|49=BANZAI|52=20200228-17:10:34.637|56=EXEC|10=113|
8=FIXT.1.1|9=55|35=0|34=401|49=EXEC|52=20200228-17:10:38.140|56=BANZAI|10=091|
8=FIXT.1.1|9=55|35=0|34=399|49=BANZAI|52=20200228-17:10:54.639|56=EXEC|10=118|
8=FIXT.1.1|9=55|35=0|34=402|49=EXEC|52=20200228-17:10:58.140|56=BANZAI|10=094|
8=FIXT.1.1|9=55|35=0|34=400|49=BANZAI|52=20200228-17:11:14.642|56=EXEC|10=092|
8=FIXT.1.1|9=55|35=0|34=403|49=EXEC|52=20200228-17:11:18.140|56=BANZAI|10=092|
8=FIXT.1.1|9=55|35=0|34=401|49=BANZAI|52=20200228-17:11:34.645|56=EXEC|10=098|
8=FIXT.1.1|9=55|35=0|34=404|49=EXEC|52=20200228-17:11:38.140|56=BANZAI|10=095|
8=FIXT.1.1|9=55|35=0|34=402|49=BANZAI|52=20200228-17:11:54.648|56=EXEC|10=104|
8=FIXT.1.1|9=55|35=0|34=405|49=EXEC|52=20200228-17:11:58.140|56=BANZAI|10=098|
8=FIXT.1.1|9=55|35=0|34=403|49=BANZAI|52=20200228-17:12:14.651|56=EXEC|10=096|
8=FIXT.1.1|9=55|35=0|34=406|49=EXEC|52=20200228-17:12:18.140|56=BANZAI|10=096|
8=FIXT.1.1|9=55|35=0|34=404|49=BANZAI|52=20200228-17:12:34.657|56=EXEC|10=105|
8=FIXT.1.1|9=55|35=0|34=407|49=EXEC|52=20200228-17:12:38.140|56=BANZAI|10=099|
8=FIXT.1.1|9=55|35=0|34=405|49=BANZAI|52=20200228-17:12:54.660|56=EXEC|10=102|
8=FIXT.1.1|9=55|35=0|34=408|49=EXEC|52=20200228-17:12:58.140|56=BANZAI|10=102|
8=FIXT.1.1|9=55|35=0|34=406|49=BANZAI|52=20200228-17:13:14.663|56=EXEC|10=103|
8=FIXT.1.1|9=55|35=0|34=409|49=EXEC|52=20200228-17:13:18.140|56=BANZAI|10=100|
8=FIXT.1.1|9=55|35=0|34=407|49=BANZAI|52=20200228-17:13:34.665|56=EXEC|10=108|
8=FIXT.1.1|9=55|35=0|34=410|49=EXEC|52=20200228-17:13:38.140|56=BANZAI|10=094|
8=FIXT.1.1|9=55|35=0|34=408|49=BANZAI|52=20200228-17:13:54.668|56=EXEC|10=114|
8=FIXT.1.1|9=55|35=0|34=411|49=EXEC|52=20200228-17:13:58.140|56=BANZAI|10=097|
8=FIXT.1.1|9=55|35=0|34=409|49=BANZAI|52=20200228-17:14:14.671|56=EXEC|10=106|
8=FIXT.1.1|9=55|35=0|34=412|49=EXEC|52=20200228-17:14:18.140|56=BANZAI|10=095|
8=FIXT.1.1|9=55|35=0|34=410|49=BANZAI|52=20200228-17:14:34.675|56=EXEC|10=104|
8=FIXT.1.1|9=55|35=0|34=413|49=EXEC|52=20200228-17:14:38.140|56=BANZAI|10=098|
8=FIXT.1.1|9=55|35=0|34=411|49=BANZAI|52=20200228-17:14:54.678|56=EXEC|10=110|
8=FIXT.1.1|9=55|35=0|34=414|49=EXEC|52=20200228-17:14:58.140|56=BANZAI|10=101|
8=FIXT.1.1|9=55|35=0|34=412|49=BANZAI|52=20200228-17:15:14.681|56=EXEC|10=102|
8=FIXT.1.1|9=55|35=0|34=415|49=EXEC|52=20200228-17:15:18.140|56=BANZAI|10=099|
8=FIXT.1.1|9=55|35=0|34=413|49=BANZAI|52=20200228-17:15:34.683|56=EXEC|10=107|
8=FIXT.1.1|9=55|35=0|34=416|49=EXEC|52=20200228-17:15:38.140|56=BANZAI|10=102|
8=FIXT.1.1|9=55|35=0|34=414|49=BANZAI|52=20200228-17:15:54.686|56=EXEC|10=113|
8=FIXT.1.1|9=55|35=0|34=417|49=EXEC|52=20200228-17:15:58.140|56=BANZAI|10=105|
8=FIXT.1.1|9=55|35=0|34=415|49=BANZAI|52=20200228-17:16:14.689|56=EXEC|10=114|
8=FIXT.1.1|9=55|35=0|34=418|49=EXEC|52=20200228-17:16:18.140|56=BANZAI|10=103|
8=FIXT.1.1|9=55|35=0|34=416|49=BANZAI|52=20200228-17:16:34.692|56=EXEC|10=111|
8=FIXT.1.1|9=55|35=0|34=419|49=EXEC|52=20200228-17:16:38.140|56=BANZAI|10=106|
8=FIXT.1.1|9=55|35=0|34=417|49=BANZAI|52=20200228-17:16:54.694|56=EXEC|10=116|
8=FIXT.1.1|9=55|35=0|34=420|49=EXEC|52=20200228-17:16:58.140|56=BANZAI|10=100|
8=FIXT.1.1|9=55|35=0|34=418|49=BANZAI|52=20200228-17:17:14.697|56=EXEC|10=117|
8=FIXT.1.1|9=55|35=0|34=421|49=EXEC|52=20200228-17:17:18.140|56=BANZAI|10=098|
8=FIXT.1.1|9=55|35=0|34=419|49=BANZAI|52=20200228-17:17:34.700|56=EXEC|10=105|
8=FIXT.1.1|9=55|35=0|34=422|49=EXEC|52=20200228-17:17:38.140|56=BANZAI|10=101|
8=FIXT.1.1|9=55|35=0|34=420|49=BANZAI|52=20200228-17:17:54.703|56=EXEC|10=102|
8=FIXT.1.1|9=55|35=0|34=423|49=EXEC|52=20200228-17:17:58.140|56=BANZAI|10=104|
8=FIXT.1.1|9=55|35=0|34=421|49=BANZAI|52=20200228-17:18:14.706|56=EXEC|10=103|
8=FIXT.1.1|9=55|35=0|34=424|49=EXEC|52=20200228-17:18:18.140|56=BANZAI|10=102|
8=FIXT.1.1|9=55|35=0|34=422|49=BANZAI|52=20200228-17:18:34.709|56=EXEC|10=109|
8=FIXT.1.1|9=55|35=0|34=425|49=EXEC|52=20200228-17:18:38.140|56=BANZAI|10=105|
8=FIXT.1.1|9=55|35=0|34=423|49=BANZAI|52=20200228-17:18:54.712|56=EXEC|10=106|
8=FIXT.1.1|9=55|35=0|34=426|49=EXEC|52=20200228-17:18:58.140|56=BANZAI|10=108|
8=FIXT.1.1|9=55|35=0|34=424|49=BANZAI|52=20200228-17:19:14.716|56=EXEC|10=108|
8=FIXT.1.1|9=55|35=0|34=427|49=EXEC|52=20200228-17:19:18.140|56=BANZAI|10=106|
8=FIXT.1.1|9=55|35=0|34=425|49=BANZAI|52=20200228-17:19:34.719|56=EXEC|10=114|
8=FIXT.1.1|9=55|35=0|34=428|49=EXEC|52=20200228-17:19:38.140|56=BANZAI|10=109|
8=FIXT.1.1|9=55|35=0|34=426|49=BANZAI|52=20200228-17:19:54.722|56=EXEC|10=111|
8=FIXT.1.1|9=55|35=0|34=429|49=EXEC|52=20200228-17:19:58.140|56=BANZAI|10=112|
8=FIXT.1.1|9=55|35=0|34=427|49=BANZAI|52=20200228-17:20:14.726|56=EXEC|10=104|
8=FIXT.1.1|9=55|35=0|34=430|49=EXEC|52=20200228-17:20:18.140|56=BANZAI|10=092|
8=FIXT.1.1|9=55|35=0|34=428|49=BANZAI|52=20200228-17:20:34.730|56=EXEC|10=102|
8=FIXT.1.1|9=55|35=0|34=431|49=EXEC|52=20200228-17:20:38.140|56=BANZAI|10=095|
8=FIXT.1.1|9=55|35=0|34=429|49=BANZAI|52=20200228-17:20:54.733|56=EXEC|10=108|
8=FIXT.1.1|9=55|35=0|34=432|49=EXEC|52=20200228-17:20:58.140|56=BANZAI|10=098|
8=FIXT.1.1|9=55|35=0|34=430|49=BANZAI|52=20200228-17:21:14.736|56=EXEC|10=100|
8=FIXT.1.1|9=55|35=0|34=433|49=EXEC|52=20200228-17:21:18.140|56=BANZAI|10=096|
8=FIXT.1.1|9=55|35=0|34=431|49=BANZAI|52=20200228-17:21:34.738|56=EXEC|10=105|
8=FIXT.1.1|9=55|35=0|34=434|49=EXEC|52=20200228-17:21:38.140|56=BANZAI|10=099|
8=FIXT.1.1|9=55|35=0|34=432|49=BANZAI|52=20200228-17:21:54.741|56=EXEC|10=102|
8=FIXT.1.1|9=55|35=0|34=435|49=EXEC|52=20200228-17:21:58.140|56=BANZAI|10=102|
8=FIXT.1.1|9=55|35=0|34=433|49=BANZAI|52=20200228-17:22:14.744|56=EXEC|10=103|
8=FIXT.1.1|9=55|35=0|34=436|49=EXEC|52=20200228-17:22:18.140|56=BANZAI|10=100|
8=FIXT.1.1|9=55|35=0|34=434|49=BANZAI|52=20200228-17:22:34.747|56=EXEC|10=109|
8=FIXT.1.1|9=55|35=0|34=437|49=EXEC|52=20200228-17:22:38.140|56=BANZAI|10=103|
8=FIXT.1.1|9=55|35=0|34=435|49=BANZAI|52=20200228-17:22:54.750|56=EXEC|10=106|
8=FIXT.1.1|9=55|35=0|34=438|49=EXEC|52=20200228-17:22:58.140|56=BANZAI|10=106|
8=FIXT.1.1|9=55|35=0|34=436|49=BANZAI|52=20200228-17:23:14.754|56=EXEC|10=108|
8=FIXT.1.1|9=55|35=0|34=439|49=EXEC|52=20200228-17:23:18.140|56=BANZAI|10=104|
8=FIXT.1.1|9=55|35=0|34=437|49=BANZAI|52=20200228-17:23:34.757|56=EXEC|10=114|
8=FIXT.1.1|9=55|35=0|34=440|49=EXEC|52=20200228-17:23:38.140|56=BANZAI|10=098|
8=FIXT.1.1|9=55|35=0|34=438|49=BANZAI|52=20200228-17:23:54.759|56=EXEC|10=119|
8=FIXT.1.1|9=55|35=0|34=441|49=EXEC|52=20200228-17:23:58.140|56=BANZAI|10=101|
8=FIXT.1.1|9=55|35=0|34=439|49=BANZAI|52=20200228-17:24:14.762|56=EXEC|10=111|
8=FIXT.1.1|9=55|35=0|34=442|49=EXEC|52=20200228-17:24:18.140|56=BANZAI|10=099|
8=FIXT.1.1|9=55|35=0|34=440|49=BANZAI|52=20200228-17:24:34.765|56=EXEC|10=108|
8=FIXT.1.1|9=55|35=0|34=443|49=EXEC|52=20200228-17:24:38.140|56=BANZAI|10=102|
8=FIXT.1.1|9=55|35=0|34=441|49=BANZAI|52=20200228-17:24:54.768|56=EXEC|10=114|
8=FIXT.1.1|9=55|35=0|34=444|49=EXEC|52=20200228-17:24:58.140|56=BANZAI|10=105|
8=FIXT.1.1|9=55|35=0|34=442|49=BANZAI|52=20200228-17:25:14.771|56=EXEC|10=106|
8=FIXT.1.1|9=55|35=0|34=445|49=EXEC|52=20200228-17:25:18.140|56=BANZAI|10=103|
8=FIXT.1.1|9=55|35=0|34=443|49=BANZAI|52=20200228-17:25:34.774|56=EXEC|10=112|
8=FIXT.1.1|9=55|35=0|34=446|49=EXEC|52=20200228-17:25:38.140|56=BANZAI|10=106|
8=FIXT.1.1|9=55|35=0|34=444|49=BANZAI|52=20200228-17:25:54.777|56=EXEC|10=118|
8=FIXT.1.1|9=55|35=0|34=447|49=EXEC|52=20200228-17:25:58.140|56=BANZAI|10=109|
8=FIXT.1.1|9=55|35=0|34=445|49=BANZAI|52=20200228-17:26:14.779|56=EXEC|10=118|
8=FIXT.1.1|9=55|35=0|34=448|49=EXEC|52=20200228-17:26:18.140|56=BANZAI|10=107|
8=FIXT.1.1|9=55|35=0|34=446|49=BANZAI|52=20200228-17:26:34.782|56=EXEC|10=115|
8=FIXT.1.1|9=55|35=0|34=449|49=EXEC|52=20200228-17:26:38.140|56=BANZAI|10=110|
8=FIXT.1.1|9=55|35=0|34=447|49=BANZAI|52=20200228-17:26:54.785|56=EXEC|10=121|
8=FIXT.1.1|9=55|35=0|34=450|49=EXEC|52=20200228-17:26:58.140|56=BANZAI|10=104|
8=FIXT.1.1|9=55|35=0|34=448|49=BANZAI|52=20200228-17:27:14.788|56=EXEC|10=122|
8=FIXT.1.1|9=55|35=0|34=451|49=EXEC|52=20200228-17:27:18.140|56=BANZAI|10=102|
8=FIXT.1.1|9=55|35=0|34=449|49=BANZAI|52=20200228-17:27:34.790|56=EXEC|10=118|
8=FIXT.1.1|9=55|35=0|34=452|49=EXEC|52=20200228-17:27:38.140|56=BANZAI|10=105|
8=FIXT.1.1|9=55|35=0|34=450|49=BANZAI|52=20200228-17:27:54.793|56=EXEC|10=115|
8=FIXT.1.1|9=55|35=0|34=453|49=EXEC|52=20200228-17:27:58.140|56=BANZAI|10=108|
8=FIXT.1.1|9=55|35=0|34=451|49=BANZAI|52=20200228-17:28:14.795|56=EXEC|10=115|
8=FIXT.1.1|9=55|35=0|34=454|49=EXEC|52=20200228-17:28:18.140|56=BANZAI|10=106|
8=FIXT.1.1|9=55|35=0|34=452|49=BANZAI|52=20200228-17:28:34.800|56=EXEC|10=105|
8=FIXT.1.1|9=55|35=0|34=455|49=EXEC|52=20200228-17:28:38.140|56=BANZAI|10=109|
8=FIXT.1.1|9=55|35=0|34=453|49=BANZAI|52=20200228-17:28:54.802|56=EXEC|10=110|
8=FIXT.1.1|9=55|35=0|34=456|49=EXEC|52=20200228-17:28:58.140|56=BANZAI|10=112|
8=FIXT.1.1|9=55|35=0|34=454|49=BANZAI|52=20200228-17:29:14.805|56=EXEC|10=111|
8=FIXT.1.1|9=55|35=0|34=457|49=EXEC|52=20200228-17:29:18.140|56=BANZAI|10=110|
8=FIXT.1.1|9=55|35=0|34=455|49=BANZAI|52=20200228-17:29:34.808|56=EXEC|10=117|
8=FIXT.1.1|9=55|35=0|34=458|49=EXEC|52=20200228-17:29:38.140|56=BANZAI|10=113|
8=FIXT.1.1|9=55|35=0|34=456|49=BANZAI|52=20200228-17:29:54.811|56=EXEC|10=114|
8=FIXT.1.1|9=55|35=0|34=459|49=EXEC|52=20200228-17:29:58.140|56=BANZAI|10=116|
8=FIXT.1.1|9=55|35=0|34=457|49=BANZAI|52=20200228-17:30:14.814|56=EXEC|10=106|
8=FIXT.1.1|9=55|35=0|34=460|49=EXEC|52=20200228-17:30:18.140|56=BANZAI|10=096|
8=FIXT.1.1|9=55|35=0|34=458|49=BANZAI|52=20200228-17:30:34.819|56=EXEC|10=114|
8=FIXT.1.1|9=55|35=0|34=461|49=EXEC|52=20200228-17:30:38.140|56=BANZAI|10=099|
8=FIXT.1.1|9=55|35=0|34=459|49=BANZAI|52=20200228-17:30:54.822|56=EXEC|10=111|
8=FIXT.1.1|9=55|35=0|34=462|49=EXEC|52=20200228-17:30:58.140|56=BANZAI|10=102|
8=FIXT.1.1|9=55|35=0|34=460|49=BANZAI|52=20200228-17:31:14.825|56=EXEC|10=103|
8=FIXT.1.1|9=55|35=0|34=463|49=EXEC|52=20200228-17:31:18.140|56=BANZAI|10=100|
8=FIXT.1.1|9=55|35=0|34=461|49=BANZAI|52=20200228-17:31:34.828|56=EXEC|10=109|
8=FIXT.1.1|9=55|35=0|34=464|49=EXEC|52=20200228-17:31:38.140|56=BANZAI|10=103|
8=FIXT.1.1|9=55|35=0|34=462|49=BANZAI|52=20200228-17:31:54.831|56=EXEC|10=106|
8=FIXT.1.1|9=55|35=0|34=465|49=EXEC|52=20200228-17:31:58.140|56=BANZAI|10=106|
8=FIXT.1.1|9=55|35=0|34=463|49=BANZAI|52=20200228-17:32:14.834|56=EXEC|10=107|
8=FIXT.1.1|9=55|35=0|34=466|49=EXEC|52=20200228-17:32:18.140|56=BANZAI|10=104|
8=FIXT.1.1|9=55|35=0|34=464|49=BANZAI|52=20200228-17:32:34.839|56=EXEC|10=115|
8=FIXT.1.1|9=55|35=0|34=467|49=EXEC|52=20200228-17:32:38.140|56=BANZAI|10=107|
8=FIXT.1.1|9=55|35=0|34=465|49=BANZAI|52=20200228-17:32:54.842|56=EXEC|10=112|
8=FIXT.1.1|9=55|35=0|34=468|49=EXEC|52=20200228-17:32:58.140|56=BANZAI|10=110|
8=FIXT.1.1|9=55|35=0|34=466|49=BANZAI|52=20200228-17:33:14.845|56=EXEC|10=113|
8=FIXT.1.1|9=55|35=0|34=469|49=EXEC|52=20200228-17:33:18.140|56=BANZAI|10=108|
8=FIXT.1.1|9=55|35=0|34=467|49=BANZAI|52=20200228-17:33:34.847|56=EXEC|10=118|
8=FIXT.1.1|9=55|35=0|34=470|49=EXEC|52=20200228-17:33:38.140|56=BANZAI|10=102|
8=FIXT.1.1|9=55|35=0|34=468|49=BANZAI|52=20200228-17:33:54.850|56=EXEC|10=115|
8=FIXT.1.1|9=55|35=0|34=471|49=EXEC|52=20200228-17:33:58.140|56=BANZAI|10=105|
8=FIXT.1.1|9=55|35=0|34=469|49=BANZAI|52=20200228-17:34:14.853|56=EXEC|10=116|
8=FIXT.1.1|9=55|35=0|34=472|49=EXEC|52=20200228-17:34:18.140|56=BANZAI|10=103|
8=FIXT.1.1|9=55|35=0|34=470|49=BANZAI|52=20200228-17:34:34.857|56=EXEC|10=114|
8=FIXT.1.1|9=55|35=0|34=473|49=EXEC|52=20200228-17:34:38.140|56=BANZAI|10=106|
8=FIXT.1.1|9=55|35=0|34=471|49=BANZAI|52=20200228-17:34:54.860|56=EXEC|10=111|
8=FIXT.1.1|9=55|35=0|34=474|49=EXEC|52=20200228-17:34:58.140|56=BANZAI|10=109|
8=FIXT.1.1|9=55|35=0|34=472|49=BANZAI|52=20200228-17:35:14.863|56=EXEC|10=112|
8=FIXT.1.1|9=55|35=0|34=475|49=EXEC|52=20200228-17:35:18.140|56=BANZAI|10=107|
8=FIXT.1.1|9=55|35=0|34=473|49=BANZAI|52=20200228-17:35:34.866|56=EXEC|10=118|
8=FIXT.1.1|9=55|35=0|34=476|49=EXEC|52=20200228-17:35:38.140|56=BANZAI|10=110|
8=FIXT.1.1|9=55|35=0|34=474|49=BANZAI|52=20200228-17:35:54.869|56=EXEC|10=124|
8=FIXT.1.1|9=55|35=0|34=477|49=EXEC|52=20200228-17:35:58.140|56=BANZAI|10=113|
8=FIXT.1.1|9=55|35=0|34=475|49=BANZAI|52=20200228-17:36:14.872|56=EXEC|10=116|
8=FIXT.1.1|9=55|35=0|34=478|49=EXEC|52=20200228-17:36:18.140|56=BANZAI|10=111|
8=FIXT.1.1|9=55|35=0|34=476|49=BANZAI|52=20200228-17:36:34.874|56=EXEC|10=121|
8=FIXT.1.1|9=55|35=0|34=479|49=EXEC|52=20200228-17:36:38.140|56=BANZAI|10=114|
8=FIXT.1.1|9=55|35=0|34=477|49=BANZAI|52=20200228-17:36:54.877|56=EXEC|10=127|
8=FIXT.1.1|9=55|35=0|34=480|49=EXEC|52=20200228-17:36:58.140|56=BANZAI|10=108|
8=FIXT.1.1|9=55|35=0|34=478|49=BANZAI|52=20200228-17:37:14.880|56=EXEC|10=119|
8=FIXT.1.1|9=55|35=0|34=481|49=EXEC|52=20200228-17:37:18.140|56=BANZAI|10=106|
8=FIXT.1.1|9=55|35=0|34=479|49=BANZAI|52=20200228-17:37:34.882|56=EXEC|10=124|
8=FIXT.1.1|9=55|35=0|34=482|49=EXEC|52=20200228-17:37:38.140|56=BANZAI|10=109|
8=FIXT.1.1|9=55|35=0|34=480|49=BANZAI|52=20200228-17:37:54.885|56=EXEC|10=121|
8=FIXT.1.1|9=55|35=0|34=483|49=EXEC|52=20200228-17:37:58.140|56=BANZAI|10=112|
8=FIXT.1.1|9=55|35=0|34=481|49=BANZAI|52=20200228-17:38:14.889|56=EXEC|10=123|
8=FIXT.1.1|9=55|35=0|34=484|49=EXEC|52=20200228-17:38:18.140|56=BANZAI|10=110|
8=FIXT.1.1|9=55|35=0|34=482|49=BANZAI|52=20200228-17:38:34.892|56=EXEC|10=120|
8=FIXT.1.1|9=55|35=0|34=485|49=EXEC|52=20200228-17:38:38.140|56=BANZAI|10=113|
8=FIXT.1.1|9=55|35=0|34=483|49=BANZAI|52=20200228-17:38:54.894|56=EXEC|10=125|
8=FIXT.1.1|9=55|35=0|34=486|49=EXEC|52=20200228-17:38:58.140|56=BANZAI|10=116|
8=FIXT.1.1|9=55|35=0|34=484|49=BANZAI|52=20200228-17:39:14.897|56=EXEC|10=126|
8=FIXT.1.1|9=55|35=0|34=487|49=EXEC|52=20200228-17:39:18.140|56=BANZAI|10=114|
8=FIXT.1.1|9=55|35=0|34=485|49=BANZAI|52=20200228-17:39:34.899|56=EXEC|10=131|
8=FIXT.1.1|9=55|35=0|34=488|49=EXEC|52=20200228-17:39:38.140|56=BANZAI|10=117|
8=FIXT.1.1|9=55|35=0|34=486|49=BANZAI|52=20200228-17:39:54.903|56=EXEC|10=120|
8=FIXT.1.1|9=55|35=0|34=489|49=EXEC|52=20200228-17:39:58.140|56=BANZAI|10=120|
8=FIXT.1.1|9=55|35=0|34=487|49=BANZAI|52=20200228-17:40:14.906|56=EXEC|10=112|
8=FIXT.1.1|9=55|35=0|34=490|49=EXEC|52=20200228-17:40:18.140|56=BANZAI|10=100|
8=FIXT.1.1|9=55|35=0|34=488|49=BANZAI|52=20200228-17:40:34.912|56=EXEC|10=112|
8=FIXT.1.1|9=55|35=0|34=491|49=EXEC|52=20200228-17:40:38.140|56=BANZAI|10=103|
8=FIXT.1.1|9=55|35=0|34=489|49=BANZAI|52=20200228-17:40:54.915|56=EXEC|10=118|
8=FIXT.1.1|9=55|35=0|34=492|49=EXEC|52=20200228-17:40:58.140|56=BANZAI|10=106|
8=FIXT.1.1|9=55|35=0|34=490|49=BANZAI|52=20200228-17:41:14.918|56=EXEC|10=110|
8=FIXT.1.1|9=55|35=0|34=493|49=EXEC|52=20200228-17:41:18.140|56=BANZAI|10=104|
8=FIXT.1.1|9=55|35=0|34=491|49=BANZAI|52=20200228-17:41:34.920|56=EXEC|10=106|
8=FIXT.1.1|9=55|35=0|34=494|49=EXEC|52=20200228-17:41:38.140|56=BANZAI|10=107|
8=FIXT.1.1|9=55|35=0|34=492|49=BANZAI|52=20200228-17:41:54.923|56=EXEC|10=112|
8=FIXT.1.1|9=55|35=0|34=495|49=EXEC|52=20200228-17:41:58.140|56=BANZAI|10=110|
8=FIXT.1.1|9=55|35=0|34=493|49=BANZAI|52=20200228-17:42:14.926|56=EXEC|10=113|
8=FIXT.1.1|9=55|35=0|34=496|49=EXEC|52=20200228-17:42:18.140|56=BANZAI|10=108|
8=FIXT.1.1|9=55|35=0|34=494|49=BANZAI|52=20200228-17:42:34.930|56=EXEC|10=111|
8=FIXT.1.1|9=55|35=0|34=497|49=EXEC|52=20200228-17:42:38.140|56=BANZAI|10=111|
8=FIXT.1.1|9=55|35=0|34=495|49=BANZAI|52=20200228-17:42:54.933|56=EXEC|10=117|
8=FIXT.1.1|9=55|35=0|34=498|49=EXEC|52=20200228-17:42:58.140|56=BANZAI|10=114|
8=FIXT.1.1|9=55|35=0|34=496|49=BANZAI|52=20200228-17:43:14.936|56=EXEC|10=118|
8=FIXT.1.1|9=55|35=0|34=499|49=EXEC|52=20200228-17:43:18.140|56=BANZAI|10=112|
8=FIXT.1.1|9=55|35=0|34=497|49=BANZAI|52=20200228-17:43:34.938|56=EXEC|10=123|
8=FIXT.1.1|9=55|35=0|34=500|49=EXEC|52=20200228-17:43:38.140|56=BANZAI|10=097|
8=FIXT.1.1|9=55|35=0|34=498|49=BANZAI|52=20200228-17:43:54.940|56=EXEC|10=119|
8=FIXT.1.1|9=55|35=0|34=501|49=EXEC|52=20200228-17:43:58.140|56=BANZAI|10=100|
8=FIXT.1.1|9=55|35=0|34=499|49=BANZAI|52=20200228-17:44:14.944|56=EXEC|10=121|
8=FIXT.1.1|9=55|35=0|34=502|49=EXEC|52=20200228-17:44:18.140|56=BANZAI|10=098|
8=FIXT.1.1|9=55|35=0|34=500|49=BANZAI|52=20200228-17:44:34.947|56=EXEC|10=109|
8=FIXT.1.1|9=55|35=0|34=503|49=EXEC|52=20200228-17:44:38.140|56=BANZAI|10=101|
8=FIXT.1.1|9=55|35=0|34=501|49=BANZAI|52=20200228-17:44:54.950|56=EXEC|10=106|
8=FIXT.1.1|9=55|35=0|34=504|49=EXEC|52=20200228-17:44:58.140|56=BANZAI|10=104|
8=FIXT.1.1|9=55|35=0|34=502|49=BANZAI|52=20200228-17:45:14.953|56=EXEC|10=107|
8=FIXT.1.1|9=55|35=0|34=505|49=EXEC|52=20200228-17:45:18.140|56=BANZAI|10=102|
8=FIXT.1.1|9=55|35=0|34=503|49=BANZAI|52=20200228-17:45:34.956|56=EXEC|10=113|
8=FIXT.1.1|9=55|35=0|34=506|49=EXEC|52=20200228-17:45:38.140|56=BANZAI|10=105|
8=FIXT.1.1|9=55|35=0|34=504|49=BANZAI|52=20200228-17:45:54.958|56=EXEC|10=118|
8=FIXT.1.1|9=55|35=0|34=507|49=EXEC|52=20200228-17:45:58.140|56=BANZAI|10=108|
8=FIXT.1.1|9=55|35=0|34=505|49=BANZAI|52=20200228-17:46:14.963|56=EXEC|10=112|
8=FIXT.1.1|9=55|35=0|34=508|49=EXEC|52=20200228-17:46:18.140|56=BANZAI|10=106|
8=FIXT.1.1|9=55|35=0|34=506|49=BANZAI|52=20200228-17:46:34.966|56=EXEC|10=118|
8=FIXT.1.1|9=55|35=0|34=509|49=EXEC|52=20200228-17:46:38.140|56=BANZAI|10=109|
8=FIXT.1.1|9=55|35=0|34=507|49=BANZAI|52=20200228-17:46:54.969|56=EXEC|10=124|
8=FIXT.1.1|9=55|35=0|34=510|49=EXEC|52=20200228-17:46:58.140|56=BANZAI|10=103|
8=FIXT.1.1|9=55|35=0|34=508|49=BANZAI|52=20200228-17:47:14.971|56=EXEC|10=115|
8=FIXT.1.1|9=55|35=0|34=511|49=EXEC|52=20200228-17:47:18.140|56=BANZAI|10=101|
8=FIXT.1.1|9=55|35=0|34=509|49=BANZAI|52=20200228-17:47:34.975|56=EXEC|10=122|
8=FIXT.1.1|9=55|35=0|34=512|49=EXEC|52=20200228-17:47:38.140|56=BANZAI|10=104|
8=FIXT.1.1|9=55|35=0|34=510|49=BANZAI|52=20200228-17:47:54.978|56=EXEC|10=119|
8=FIXT.1.1|9=55|35=0|34=513|49=EXEC|52=20200228-17:47:58.140|56=BANZAI|10=107|
8=FIXT.1.1|9=55|35=0|34=511|49=BANZAI|52=20200228-17:48:14.982|56=EXEC|10=112|
8=FIXT.1.1|9=55|35=0|34=514|49=EXEC|52=20200228-17:48:18.140|56=BANZAI|10=105|
8=FIXT.1.1|9=55|35=0|34=512|49=BANZAI|52=20200228-17:48:34.987|56=EXEC|10=120|
8=FIXT.1.1|9=55|35=0|34=515|49=EXEC|52=20200228-17:48:38.140|56=BANZAI|10=108|
8=FIXT.1.1|9=55|35=0|34=513|49=BANZAI|52=20200228-17:48:54.990|56=EXEC|10=117|
8=FIXT.1.1|9=55|35=0|34=516|49=EXEC|52=20200228-17:48:58.140|56=BANZAI|10=111|
8=FIXT.1.1|9=55|35=0|34=514|49=BANZAI|52=20200228-17:49:14.992|56=EXEC|10=117|
8=FIXT.1.1|9=55|35=0|34=517|49=EXEC|52=20200228-17:49:18.140|56=BANZAI|10=109|
8=FIXT.1.1|9=55|35=0|34=515|49=BANZAI|52=20200228-17:49:34.996|56=EXEC|10=124|
8=FIXT.1.1|9=55|35=0|34=518|49=EXEC|52=20200228-17:49:38.140|56=BANZAI|10=112|
8=FIXT.1.1|9=55|35=0|34=516|49=BANZAI|52=20200228-17:49:54.999|56=EXEC|10=130|
8=FIXT.1.1|9=55|35=0|34=519|49=EXEC|52=20200228-17:49:58.140|56=BANZAI|10=115|
8=FIXT.1.1|9=55|35=0|34=517|49=BANZAI|52=20200228-17:50:15.002|56=EXEC|10=095|
8=FIXT.1.1|9=55|35=0|34=520|49=EXEC|52=20200228-17:50:18.140|56=BANZAI|10=095|
8=FIXT.1.1|9=55|35=0|34=518|49=BANZAI|52=20200228-17:50:35.005|56=EXEC|10=101|
8=FIXT.1.1|9=55|35=0|34=521|49=EXEC|52=20200228-17:50:38.140|56=BANZAI|10=098|
8=FIXT.1.1|9=55|35=0|34=519|49=BANZAI|52=20200228-17:50:55.007|56=EXEC|10=106|
8=FIXT.1.1|9=55|35=0|34=522|49=EXEC|52=20200228-17:50:58.140|56=BANZAI|10=101|
8=FIXT.1.1|9=55|35=0|34=520|49=BANZAI|52=20200228-17:51:15.010|56=EXEC|10=089|
8=FIXT.1.1|9=55|35=0|34=523|49=EXEC|52=20200228-17:51:18.140|56=BANZAI|10=099|
8=FIXT.1.1|9=55|35=0|34=521|49=BANZAI|52=20200228-17:51:35.013|56=EXEC|10=095|
8=FIXT.1.1|9=55|35=0|34=524|49=EXEC|52=20200228-17:51:38.140|56=BANZAI|10=102|
8=FIXT.1.1|9=55|35=0|34=522|49=BANZAI|52=20200228-17:51:55.016|56=EXEC|10=101|
8=FIXT.1.1|9=55|35=0|34=525|49=EXEC|52=20200228-17:51:58.140|56=BANZAI|10=105|
8=FIXT.1.1|9=55|35=0|34=523|49=BANZAI|52=20200228-17:52:15.019|56=EXEC|10=102|
8=FIXT.1.1|9=55|35=0|34=526|49=EXEC|52=20200228-17:52:18.140|56=BANZAI|10=103|
8=FIXT.1.1|9=55|35=0|34=524|49=BANZAI|52=20200228-17:52:35.021|56=EXEC|10=098|
8=FIXT.1.1|9=55|35=0|34=527|49=EXEC|52=20200228-17:52:38.140|56=BANZAI|10=106|
8=FIXT.1.1|9=55|35=0|34=525|49=BANZAI|52=20200228-17:52:55.024|56=EXEC|10=104|
8=FIXT.1.1|9=55|35=0|34=528|49=EXEC|52=20200228-17:52:58.140|56=BANZAI|10=109|
8=FIXT.1.1|9=55|35=0|34=526|49=BANZAI|52=20200228-17:53:15.027|56=EXEC|10=105|
8=FIXT.1.1|9=55|35=0|34=529|49=EXEC|52=20200228-17:53:18.140|56=BANZAI|10=107|
8=FIXT.1.1|9=55|35=0|34=527|49=BANZAI|52=20200228-17:53:35.030|56=EXEC|10=102|
8=FIXT.1.1|9=55|35=0|34=530|49=EXEC|52=20200228-17:53:38.140|56=BANZAI|10=101|
8=FIXT.1.1|9=55|35=0|34=528|49=BANZAI|52=20200228-17:53:55.032|56=EXEC|10=107|
8=FIXT.1.1|9=55|35=0|34=531|49=EXEC|52=20200228-17:53:58.140|56=BANZAI|10=104|
8=FIXT.1.1|9=55|35=0|34=529|49=BANZAI|52=20200228-17:54:15.036|56=EXEC|10=109|
8=FIXT.1.1|9=55|35=0|34=532|49=EXEC|52=20200228-17:54:18.140|56=BANZAI|10=102|
8=FIXT.1.1|9=55|35=0|34=530|49=BANZAI|52=20200228-17:54:35.041|56=EXEC|10=099|
8=FIXT.1.1|9=55|35=0|34=533|49=EXEC|52=20200228-17:54:38.140|56=BANZAI|10=105|
8=FIXT.1.1|9=55|35=0|34=531|49=BANZAI|52=20200228-17:54:55.044|56=EXEC|10=105|
8=FIXT.1.1|9=55|35=0|34=534|49=EXEC|52=20200228-17:54:58.140|56=BANZAI|10=108|
8=FIXT.1.1|9=55|35=0|34=532|49=BANZAI|52=20200228-17:55:15.047|56=EXEC|10=106|
8=FIXT.1.1|9=55|35=0|34=535|49=EXEC|52=20200228-17:55:18.140|56=BANZAI|10=106|
8=FIXT.1.1|9=55|35=0|34=533|49=BANZAI|52=20200228-17:55:35.050|56=EXEC|10=103|
8=FIXT.1.1|9=55|35=0|34=536|49=EXEC|52=20200228-17:55:38.140|56=BANZAI|10=109|
8=FIXT.1.1|9=55|35=0|34=534|49=BANZAI|52=20200228-17:55:55.052|56=EXEC|10=108|
8=FIXT.1.1|9=55|35=0|34=537|49=EXEC|52=20200228-17:55:58.140|56=BANZAI|10=112|
8=FIXT.1.1|9=55|35=0|34=535|49=BANZAI|52=20200228-17:56:15.055|56=EXEC|10=109|
8=FIXT.1.1|9=55|35=0|34=538|49=EXEC|52=20200228-17:56:18.140|56=BANZAI|10=110|
8=FIXT.1.1|9=55|35=0|34=536|49=BANZAI|52=20200228-17:56:35.058|56=EXEC|10=115|
8=FIXT.1.1|9=55|35=0|34=539|49=EXEC|52=20200228-17:56:38.140|56=BANZAI|10=113|
8=FIXT.1.1|9=55|35=0|34=537|49=BANZAI|52=20200228-17:56:55.061|56=EXEC|10=112|
8=FIXT.1.1|9=55|35=0|34=540|49=EXEC|52=20200228-17:56:58.140|56=BANZAI|10=107|
8=FIXT.1.1|9=55|35=0|34=538|49=BANZAI|52=20200228-17:57:15.065|56=EXEC|10=114|
8=FIXT.1.1|9=55|35=0|34=541|49=EXEC|52=20200228-17:57:18.140|56=BANZAI|10=105|
8=FIXT.1.1|9=55|35=0|34=539|49=BANZAI|52=20200228-17:57:35.067|56=EXEC|10=119|
8=FIXT.1.1|9=55|35=0|34=542|49=EXEC|52=20200228-17:57:38.140|56=BANZAI|10=108|
8=FIXT.1.1|9=55|35=0|34=540|49=BANZAI|52=20200228-17:57:55.070|56=EXEC|10=107|
8=FIXT.1.1|9=55|35=0|34=543|49=EXEC|52=20200228-17:57:58.140|56=BANZAI|10=111|
8=FIXT.1.1|9=55|35=0|34=541|49=BANZAI|52=20200228-17:58:15.074|56=EXEC|10=109|
8=FIXT.1.1|9=55|35=0|34=544|49=EXEC|52=20200228-17:58:18.140|56=BANZAI|10=109|
8=FIXT.1.1|9=55|35=0|34=542|49=BANZAI|52=20200228-17:58:35.077|56=EXEC|10=115|
8=FIXT.1.1|9=55|35=0|34=545|49=EXEC|52=20200228-17:58:38.140|56=BANZAI|10=112|
8=FIXT.1.1|9=55|35=0|34=543|49=BANZAI|52=20200228-17:58:55.080|56=EXEC|10=112|
8=FIXT.1.1|9=55|35=0|34=546|49=EXEC|52=20200228-17:58:58.140|56=BANZAI|10=115|
8=FIXT.1.1|9=55|35=0|34=544|49=BANZAI|52=20200228-17:59:15.082|56=EXEC|10=112|
8=FIXT.1.1|9=55|35=0|34=547|49=EXEC|52=20200228-17:59:18.140|56=BANZAI|10=113|
8=FIXT.1.1|9=55|35=0|34=545|49=BANZAI|52=20200228-17:59:35.086|56=EXEC|10=119|
8=FIXT.1.1|9=55|35=0|34=548|49=EXEC|52=20200228-17:59:38.140|56=BANZAI|10=116|
8=FIXT.1.1|9=55|35=0|34=546|49=BANZAI|52=20200228-17:59:55.089|56=EXEC|10=125|
8=FIXT.1.1|9=55|35=0|34=549|49=EXEC|52=20200228-17:59:58.140|56=BANZAI|10=119|
8=FIXT.1.1|9=55|35=0|34=547|49=BANZAI|52=20200228-18:00:15.093|56=EXEC|10=104|
8=FIXT.1.1|9=55|35=0|34=550|49=EXEC|52=20200228-18:00:18.140|56=BANZAI|10=094|
8=FIXT.1.1|9=55|35=0|34=548|49=BANZAI|52=20200228-18:00:35.095|56=EXEC|10=109|
8=FIXT.1.1|9=55|35=0|34=551|49=EXEC|52=20200228-18:00:38.140|56=BANZAI|10=097|
8=FIXT.1.1|9=55|35=0|34=549|49=BANZAI|52=20200228-18:00:55.098|56=EXEC|10=115|
8=FIXT.1.1|9=55|35=0|34=552|49=EXEC|52=20200228-18:00:58.140|56=BANZAI|10=100|
8=FIXT.1.1|9=55|35=0|34=550|49=BANZAI|52=20200228-18:01:15.100|56=EXEC|10=088|
8=FIXT.1.1|9=55|35=0|34=553|49=EXEC|52=20200228-18:01:18.140|56=BANZAI|10=098|
8=FIXT.1.1|9=55|35=0|34=551|49=BANZAI|52=20200228-18:01:35.103|56=EXEC|10=094|
8=FIXT.1.1|9=55|35=0|34=554|49=EXEC|52=20200228-18:01:38.140|56=BANZAI|10=101|
8=FIXT.1.1|9=55|35=0|34=552|49=BANZAI|52=20200228-18:01:55.107|56=EXEC|10=101|
8=FIXT.1.1|9=55|35=0|34=555|49=EXEC|52=20200228-18:01:58.140|56=BANZAI|10=104|
8=FIXT.1.1|9=55|35=0|34=553|49=BANZAI|52=20200228-18:02:15.110|56=EXEC|10=093|
8=FIXT.1.1|9=55|35=0|34=556|49=EXEC|52=20200228-18:02:18.140|56=BANZAI|10=102|
8=FIXT.1.1|9=55|35=0|34=554|49=BANZAI|52=20200228-18:02:35.113|56=EXEC|10=099|
8=FIXT.1.1|9=55|35=0|34=557|49=EXEC|52=20200228-18:02:38.140|56=BANZAI|10=105|
8=FIXT.1.1|9=55|35=0|34=555|49=BANZAI|52=20200228-18:02:55.116|56=EXEC|10=105|
8=FIXT.1.1|9=55|35=0|34=558|49=EXEC|52=20200228-18:02:58.140|56=BANZAI|10=108|
8=FIXT.1.1|9=55|35=0|34=556|49=BANZAI|52=20200228-18:03:15.119|56=EXEC|10=106|
8=FIXT.1.1|9=55|35=0|34=559|49=EXEC|52=20200228-18:03:18.140|56=BANZAI|10=106|
8=FIXT.1.1|9=55|35=0|34=557|49=BANZAI|52=20200228-18:03:35.121|56=EXEC|10=102|
8=FIXT.1.1|9=55|35=0|34=560|49=EXEC|52=20200228-18:03:38.140|56=BANZAI|10=100|
8=FIXT.1.1|9=55|35=0|34=558|49=BANZAI|52=20200228-18:03:55.124|56=EXEC|10=108|
8=FIXT.1.1|9=55|35=0|34=561|49=EXEC|52=20200228-18:03:58.140|56=BANZAI|10=103|
8=FIXT.1.1|9=55|35=0|34=559|49=BANZAI|52=20200228-18:04:15.127|56=EXEC|10=109|
8=FIXT.1.1|9=55|35=0|34=562|49=EXEC|52=20200228-18:04:18.140|56=BANZAI|10=101|
8=FIXT.1.1|9=55|35=0|34=560|49=BANZAI|52=20200228-18:04:35.130|56=EXEC|10=097|
8=FIXT.1.1|9=55|35=0|34=563|49=EXEC|52=20200228-18:04:38.140|56=BANZAI|10=104|
8=FIXT.1.1|9=55|35=0|34=561|49=BANZAI|52=20200228-18:04:55.133|56=EXEC|10=103|
8=FIXT.1.1|9=55|35=0|34=564|49=EXEC|52=20200228-18:04:58.140|56=BANZAI|10=107|
8=FIXT.1.1|9=55|35=0|34=562|49=BANZAI|52=20200228-18:05:15.136|56=EXEC|10=104|
8=FIXT.1.1|9=55|35=0|34=565|49=EXEC|52=20200228-18:05:18.140|56=BANZAI|10=105|
8=FIXT.1.1|9=55|35=0|34=563|49=BANZAI|52=20200228-18:05:35.139|56=EXEC|10=110|
8=FIXT.1.1|9=55|35=0|34=566|49=EXEC|52=20200228-18:05:38.140|56=BANZAI|10=108|
8=FIXT.1.1|9=55|35=0|34=564|49=BANZAI|52=20200228-18:05:55.142|56=EXEC|10=107|
8=FIXT.1.1|9=55|35=0|34=567|49=EXEC|52=20200228-18:05:58.140|56=BANZAI|10=111|
8=FIXT.1.1|9=55|35=0|34=565|49=BANZAI|52=20200228-18:06:15.145|56=EXEC|10=108|
8=FIXT.1.1|9=55|35=0|34=568|49=EXEC|52=20200228-18:06:18.140|56=BANZAI|10=109|
8=FIXT.1.1|9=55|35=0|34=566|49=BANZAI|52=20200228-18:06:35.148|56=EXEC|10=114|
8=FIXT.1.1|9=55|35=0|34=569|49=EXEC|52=20200228-18:06:38.140|56=BANZAI|10=112|
8=FIXT.1.1|9=55|35=0|34=567|49=BANZAI|52=20200228-18:06:55.151|56=EXEC|10=111|
8=FIXT.1.1|9=55|35=0|34=570|49=EXEC|52=20200228-18:06:58.140|56=BANZAI|10=106|
8=FIXT.1.1|9=55|35=0|34=568|49=BANZAI|52=20200228-18:07:15.154|56=EXEC|10=112|
8=FIXT.1.1|9=55|35=0|34=571|49=EXEC|52=20200228-18:07:18.140|56=BANZAI|10=104|
8=FIXT.1.1|9=55|35=0|34=569|49=BANZAI|52=20200228-18:07:35.156|56=EXEC|10=117|
8=FIXT.1.1|9=55|35=0|34=572|49=EXEC|52=20200228-18:07:38.140|56=BANZAI|10=107|
8=FIXT.1.1|9=55|35=0|34=570|49=BANZAI|52=20200228-18:07:55.159|56=EXEC|10=114|
8=FIXT.1.1|9=55|35=0|34=573|49=EXEC|52=20200228-18:07:58.140|56=BANZAI|10=110|
8=FIXT.1.1|9=55|35=0|34=571|49=BANZAI|52=20200228-18:08:15.163|56=EXEC|10=107|
8=FIXT.1.1|9=55|35=0|34=574|49=EXEC|52=20200228-18:08:18.140|56=BANZAI|10=108|
8=FIXT.1.1|9=55|35=0|34=572|49=BANZAI|52=20200228-18:08:35.165|56=EXEC|10=112|
8=FIXT.1.1|9=55|35=0|34=575|49=EXEC|52=20200228-18:08:38.140|56=BANZAI|10=111|
8=FIXT.1.1|9=55|35=0|34=573|49=BANZAI|52=20200228-18:08:55.168|56=EXEC|10=118|
8=FIXT.1.1|9=55|35=0|34=576|49=EXEC|52=20200228-18:08:58.140|56=BANZAI|10=114|
8=FIXT.1.1|9=55|35=0|34=574|49=BANZAI|52=20200228-18:09:15.171|56=EXEC|10=110|
8=FIXT.1.1|9=55|35=0|34=577|49=EXEC|52=20200228-18:09:18.140|56=BANZAI|10=112|
8=FIXT.1.1|9=55|35=0|34=575|49=BANZAI|52=20200228-18:09:35.174|56=EXEC|10=116|
8=FIXT.1.1|9=55|35=0|34=578|49=EXEC|52=20200228-18:09:38.140|56=BANZAI|10=115|
8=FIXT.1.1|9=55|35=0|34=576|49=BANZAI|52=20200228-18:09:55.177|56=EXEC|10=122|
8=FIXT.1.1|9=55|35=0|34=579|49=EXEC|52=20200228-18:09:58.140|56=BANZAI|10=118|
8=FIXT.1.1|9=55|35=0|34=577|49=BANZAI|52=20200228-18:10:15.181|56=EXEC|10=106|
8=FIXT.1.1|9=55|35=0|34=580|49=EXEC|52=20200228-18:10:18.140|56=BANZAI|10=098|
8=FIXT.1.1|9=55|35=0|34=578|49=BANZAI|52=20200228-18:10:35.184|56=EXEC|10=112|
8=FIXT.1.1|9=55|35=0|34=581|49=EXEC|52=20200228-18:10:38.140|56=BANZAI|10=101|
8=FIXT.1.1|9=55|35=0|34=579|49=BANZAI|52=20200228-18:10:55.186|56=EXEC|10=117|
8=FIXT.1.1|9=55|35=0|34=582|49=EXEC|52=20200228-18:10:58.140|56=BANZAI|10=104|
8=FIXT.1.1|9=55|35=0|34=580|49=BANZAI|52=20200228-18:11:15.189|56=EXEC|10=109|
8=FIXT.1.1|9=55|35=0|34=583|49=EXEC|52=20200228-18:11:18.140|56=BANZAI|10=102|
8=FIXT.1.1|9=55|35=0|34=581|49=BANZAI|52=20200228-18:11:35.192|56=EXEC|10=106|
8=FIXT.1.1|9=55|35=0|34=584|49=EXEC|52=20200228-18:11:38.140|56=BANZAI|10=105|
8=FIXT.1.1|9=55|35=0|34=582|49=BANZAI|52=20200228-18:11:55.195|56=EXEC|10=112|
8=FIXT.1.1|9=55|35=0|34=585|49=EXEC|52=20200228-18:11:58.140|56=BANZAI|10=108|
8=FIXT.1.1|9=55|35=0|34=583|49=BANZAI|52=20200228-18:12:15.198|56=EXEC|10=113|
8=FIXT.1.1|9=55|35=0|34=586|49=EXEC|52=20200228-18:12:18.140|56=BANZAI|10=106|
8=FIXT.1.1|9=55|35=0|34=584|49=BANZAI|52=20200228-18:12:35.203|56=EXEC|10=103|
8=FIXT.1.1|9=55|35=0|34=587|49=EXEC|52=20200228-18:12:38.140|56=BANZAI|10=109|
8=FIXT.1.1|9=55|35=0|34=585|49=BANZAI|52=20200228-18:12:55.206|56=EXEC|10=109|
8=FIXT.1.1|9=55|35=0|34=588|49=EXEC|52=20200228-18:12:58.140|56=BANZAI|10=112|
8=FIXT.1.1|9=55|35=0|34=586|49=BANZAI|52=20200228-18:13:15.208|56=EXEC|10=109|
8=FIXT.1.1|9=55|35=0|34=589|49=EXEC|52=20200228-18:13:18.140|56=BANZAI|10=110|
8=FIXT.1.1|9=55|35=0|34=587|49=BANZAI|52=20200228-18:13:35.212|56=EXEC|10=107|
8=FIXT.1.1|9=55|35=0|34=590|49=EXEC|52=20200228-18:13:38.140|56=BANZAI|10=104|
8=FIXT.1.1|9=55|35=0|34=588|49=BANZAI|52=20200228-18:13:55.215|56=EXEC|10=113|
8=FIXT.1.1|9=55|35=0|34=591|49=EXEC|52=20200228-18:13:58.140|56=BANZAI|10=107|
8=FIXT.1.1|9=55|35=0|34=589|49=BANZAI|52=20200228-18:14:15.218|56=EXEC|10=114|
8=FIXT.1.1|9=55|35=0|34=592|49=EXEC|52=20200228-18:14:18.140|56=BANZAI|10=105|
8=FIXT.1.1|9=55|35=0|34=590|49=BANZAI|52=20200228-18:14:35.224|56=EXEC|10=105|
8=FIXT.1.1|9=55|35=0|34=593|49=EXEC|52=20200228-18:14:38.140|56=BANZAI|10=108|
8=FIXT.1.1|9=55|35=0|34=591|49=BANZAI|52=20200228-18:14:55.227|56=EXEC|10=111|
8=FIXT.1.1|9=55|35=0|34=594|49=EXEC|52=20200228-18:14:58.140|56=BANZAI|10=111|
8=FIXT.1.1|9=55|35=0|34=592|49=BANZAI|52=20200228-18:15:15.230|56=EXEC|10=103|
8=FIXT.1.1|9=55|35=0|34=595|49=EXEC|52=20200228-18:15:18.140|56=BANZAI|10=109|
8=FIXT.1.1|9=55|35=0|34=593|49=BANZAI|52=20200228-18:15:35.232|56=EXEC|10=108|
8=FIXT.1.1|9=55|35=0|34=596|49=EXEC|52=20200228-18:15:38.140|56=BANZAI|10=112|
8=FIXT.1.1|9=55|35=0|34=594|49=BANZAI|52=20200228-18:15:55.235|56=EXEC|10=114|
8=FIXT.1.1|9=55|35=0|34=597|49=EXEC|52=20200228-18:15:58.140|56=BANZAI|10=115|
8=FIXT.1.1|9=55|35=0|34=595|49=BANZAI|52=20200228-18:16:15.238|56=EXEC|10=115|
8=FIXT.1.1|9=55|35=0|34=598|49=EXEC|52=20200228-18:16:18.140|56=BANZAI|10=113|
8=FIXT.1.1|9=55|35=0|34=596|49=BANZAI|52=20200228-18:16:35.241|56=EXEC|10=112|
