8=FIXT.1.1|9=72|35=A|34=1|49=BANZAI|52=20200228-11:56:41.964|56=EXEC|98=0|108=20|1137=9|10=110|
8=FIXT.1.1|9=72|35=A|34=1|49=EXEC|52=20200228-11:56:42.144|56=BANZAI|98=0|108=20|1137=9|10=101|
8=FIXT.1.1|9=53|35=0|34=2|49=BANZAI|52=20200228-11:57:01.968|56=EXEC|10=003|
8=FIXT.1.1|9=53|35=0|34=2|49=EXEC|52=20200228-11:57:02.307|56=BANZAI|10=247|
8=FIXT.1.1|9=53|35=0|34=3|49=BANZAI|52=20200228-11:57:21.973|56=EXEC|10=002|
8=FIXT.1.1|9=53|35=0|34=3|49=EXEC|52=20200228-11:57:22.307|56=BANZAI|10=250|
8=FIXT.1.1|9=53|35=0|34=4|49=BANZAI|52=20200228-11:57:41.975|56=EXEC|10=007|
8=FIXT.1.1|9=53|35=0|34=4|49=EXEC|52=20200228-11:57:42.307|56=BANZAI|10=253|
8=FIXT.1.1|9=53|35=0|34=5|49=BANZAI|52=20200228-11:58:01.978|56=EXEC|10=008|
8=FIXT.1.1|9=53|35=0|34=5|49=EXEC|52=20200228-11:58:02.307|56=BANZAI|10=251|
8=FIXT.1.1|9=53|35=0|34=6|49=BANZAI|52=20200228-11:58:21.981|56=EXEC|10=005|
8=FIXT.1.1|9=53|35=0|34=6|49=EXEC|52=20200228-11:58:22.307|56=BANZAI|10=254|
8=FIXT.1.1|9=53|35=0|34=7|49=BANZAI|52=20200228-11:58:41.983|56=EXEC|10=010|
8=FIXT.1.1|9=53|35=0|34=7|49=EXEC|52=20200228-11:58:42.307|56=BANZAI|10=001|
8=FIXT.1.1|9=53|35=0|34=8|49=BANZAI|52=20200228-11:59:01.987|56=EXEC|10=012|
8=FIXT.1.1|9=53|35=0|34=8|49=EXEC|52=20200228-11:59:02.307|56=BANZAI|10=255|
8=FIXT.1.1|9=53|35=0|34=9|49=BANZAI|52=20200228-11:59:21.991|56=EXEC|10=010|
8=FIXT.1.1|9=53|35=0|34=9|49=EXEC|52=20200228-11:59:22.307|56=BANZAI|10=002|
8=FIXT.1.1|9=54|35=0|34=10|49=BANZAI|52=20200228-11:59:41.994|56=EXEC|10=056|
8=FIXT.1.1|9=54|35=0|34=10|49=EXEC|52=20200228-11:59:42.307|56=BANZAI|10=045|
8=FIXT.1.1|9=54|35=0|34=11|49=BANZAI|52=20200228-12:00:01.996|56=EXEC|10=042|
8=FIXT.1.1|9=54|35=0|34=11|49=EXEC|52=20200228-12:00:02.307|56=BANZAI|10=029|
8=FIXT.1.1|9=54|35=0|34=12|49=BANZAI|52=20200228-12:00:21.999|56=EXEC|10=048|
8=FIXT.1.1|9=54|35=0|34=12|49=EXEC|52=20200228-12:00:22.307|56=BANZAI|10=032|
8=FIXT.1.1|9=54|35=0|34=13|49=BANZAI|52=20200228-12:00:42.002|56=EXEC|10=027|
8=FIXT.1.1|9=54|35=0|34=13|49=EXEC|52=20200228-12:00:42.307|56=BANZAI|10=035|
8=FIXT.1.1|9=54|35=0|34=14|49=BANZAI|52=20200228-12:01:02.006|56=EXEC|10=029|
8=FIXT.1.1|9=54|35=0|34=14|49=EXEC|52=20200228-12:01:02.307|56=BANZAI|10=033|
8=FIXT.1.1|9=54|35=0|34=15|49=BANZAI|52=20200228-12:01:22.014|56=EXEC|10=031|
8=FIXT.1.1|9=54|35=0|34=15|49=EXEC|52=20200228-12:01:22.307|56=BANZAI|10=036|
8=FIXT.1.1|9=149|35=D|34=16|49=BANZAI|52=20200228-12:01:25.807|56=EXEC|11=0b974cf2-5a22-11ea-9c98-7427ea59c5e5|38=10|40=7|44=20|54=1|55=MSFT|60=20200228-12:01:25.807|10=214|
8=FIXT.1.1|9=214|35=8|34=16|49=EXEC|52=20200228-12:01:25.893|56=BANZAI|6=0|11=0b974cf2-5a22-11ea-9c98-7427ea59c5e5|14=0|17=53d9fd92-c474-4435-aba1-6c7ebd371c18|37=fe327d32-7cf6-4f00-8489-ee12b49f592f|39=0|54=1|55=MSFT|150=0|151=10|10=185|
8=FIXT.1.1|9=54|35=0|34=17|49=BANZAI|52=20200228-12:01:45.810|56=EXEC|10=042|
8=FIXT.1.1|9=54|35=0|34=17|49=EXEC|52=20200228-12:01:46.307|56=BANZAI|10=044|
8=FIXT.1.1|9=54|35=0|34=18|49=BANZAI|52=20200228-12:02:05.813|56=EXEC|10=043|
8=FIXT.1.1|9=54|35=0|34=18|49=EXEC|52=20200228-12:02:06.307|56=BANZAI|10=042|
8=FIXT.1.1|9=54|35=0|34=19|49=BANZAI|52=20200228-12:02:25.816|56=EXEC|10=049|
8=FIXT.1.1|9=54|35=0|34=19|49=EXEC|52=20200228-12:02:26.307|56=BANZAI|10=045|
8=FIXT.1.1|9=54|35=0|34=20|49=BANZAI|52=20200228-12:02:45.819|56=EXEC|10=046|
8=FIXT.1.1|9=54|35=0|34=20|49=EXEC|52=20200228-12:02:46.307|56=BANZAI|10=039|
8=FIXT.1.1|9=54|35=0|34=21|49=BANZAI|52=20200228-12:03:05.822|56=EXEC|10=038|
8=FIXT.1.1|9=54|35=0|34=21|49=EXEC|52=20200228-12:03:06.307|56=BANZAI|10=037|
8=FIXT.1.1|9=54|35=0|34=22|49=BANZAI|52=20200228-12:03:25.824|56=EXEC|10=043|
8=FIXT.1.1|9=54|35=0|34=22|49=EXEC|52=20200228-12:03:26.307|56=BANZAI|10=040|
8=FIXT.1.1|9=54|35=0|34=23|49=BANZAI|52=20200228-12:03:45.827|56=EXEC|10=049|
8=FIXT.1.1|9=54|35=0|34=23|49=EXEC|52=20200228-12:03:46.307|56=BANZAI|10=043|
8=FIXT.1.1|9=54|35=0|34=24|49=BANZAI|52=20200228-12:04:05.830|56=EXEC|10=041|
8=FIXT.1.1|9=54|35=0|34=24|49=EXEC|52=20200228-12:04:06.307|56=BANZAI|10=041|
8=FIXT.1.1|9=54|35=0|34=25|49=BANZAI|52=20200228-12:04:25.832|56=EXEC|10=046|
8=FIXT.1.1|9=54|35=0|34=25|49=EXEC|52=20200228-12:04:26.307|56=BANZAI|10=044|
8=FIXT.1.1|9=54|35=0|34=26|49=BANZAI|52=20200228-12:04:45.835|56=EXEC|10=052|
8=FIXT.1.1|9=54|35=0|34=26|49=EXEC|52=20200228-12:04:46.307|56=BANZAI|10=047|
8=FIXT.1.1|9=54|35=0|34=27|49=BANZAI|52=20200228-12:05:05.838|56=EXEC|10=053|
8=FIXT.1.1|9=54|35=0|34=27|49=EXEC|52=20200228-12:05:06.307|56=BANZAI|10=045|
8=FIXT.1.1|9=54|35=0|34=28|49=BANZAI|52=20200228-12:05:25.840|56=EXEC|10=049|
8=FIXT.1.1|9=54|35=0|34=28|49=EXEC|52=20200228-12:05:26.307|56=BANZAI|10=048|
8=FIXT.1.1|9=54|35=0|34=29|49=BANZAI|52=20200228-12:05:45.843|56=EXEC|10=055|
8=FIXT.1.1|9=54|35=0|34=29|49=EXEC|52=20200228-12:05:46.307|56=BANZAI|10=051|
8=FIXT.1.1|9=54|35=0|34=30|49=BANZAI|52=20200228-12:06:05.846|56=EXEC|10=047|
8=FIXT.1.1|9=54|35=0|34=30|49=EXEC|52=20200228-12:06:06.307|56=BANZAI|10=040|
8=FIXT.1.1|9=54|35=0|34=31|49=BANZAI|52=20200228-12:06:25.848|56=EXEC|10=052|
8=FIXT.1.1|9=54|35=0|34=31|49=EXEC|52=20200228-12:06:26.307|56=BANZAI|10=043|
8=FIXT.1.1|9=54|35=0|34=32|49=BANZAI|52=20200228-12:06:45.852|56=EXEC|10=050|
8=FIXT.1.1|9=54|35=0|34=32|49=EXEC|52=20200228-12:06:46.307|56=BANZAI|10=046|
8=FIXT.1.1|9=54|35=0|34=33|49=BANZAI|52=20200228-12:07:05.854|56=EXEC|10=050|
8=FIXT.1.1|9=54|35=0|34=33|49=EXEC|52=20200228-12:07:06.307|56=BANZAI|10=044|
8=FIXT.1.1|9=54|35=0|34=34|49=BANZAI|52=20200228-12:07:25.857|56=EXEC|10=056|
8=FIXT.1.1|9=54|35=0|34=34|49=EXEC|52=20200228-12:07:26.307|56=BANZAI|10=047|
8=FIXT.1.1|9=54|35=0|34=35|49=BANZAI|52=20200228-12:07:45.859|56=EXEC|10=061|
8=FIXT.1.1|9=54|35=0|34=35|49=EXEC|52=20200228-12:07:46.307|56=BANZAI|10=050|
8=FIXT.1.1|9=54|35=0|34=36|49=BANZAI|52=20200228-12:08:05.863|56=EXEC|10=054|
8=FIXT.1.1|9=54|35=0|34=36|49=EXEC|52=20200228-12:08:06.307|56=BANZAI|10=048|
8=FIXT.1.1|9=54|35=0|34=37|49=BANZAI|52=20200228-12:08:25.866|56=EXEC|10=060|
8=FIXT.1.1|9=54|35=0|34=37|49=EXEC|52=20200228-12:08:26.307|56=BANZAI|10=051|
8=FIXT.1.1|9=54|35=0|34=38|49=BANZAI|52=20200228-12:08:45.869|56=EXEC|10=066|
8=FIXT.1.1|9=54|35=0|34=38|49=EXEC|52=20200228-12:08:46.307|56=BANZAI|10=054|
8=FIXT.1.1|9=73|35=A|34=39|49=BANZAI|52=20200228-12:09:04.101|56=EXEC|98=0|108=20|1137=9|10=151|
8=FIXT.1.1|9=73|35=A|34=39|49=EXEC|52=20200228-12:09:04.104|56=BANZAI|98=0|108=20|1137=9|10=154|
8=FIXT.1.1|9=149|35=D|34=40|49=BANZAI|52=20200228-12:09:11.131|56=EXEC|11=20f21f7b-5a23-11ea-8b28-7427ea59c5e5|38=10|40=7|44=20|54=1|55=MSFT|60=20200228-12:09:11.131|10=182|
8=FIXT.1.1|9=214|35=8|34=40|49=EXEC|52=20200228-12:09:11.136|56=BANZAI|6=0|11=20f21f7b-5a23-11ea-8b28-7427ea59c5e5|14=0|17=a3d00c63-e548-4e34-9617-5083342e342f|37=ee31246d-423b-4217-91c9-fbb1a718fa0b|39=0|54=1|55=MSFT|150=0|151=10|10=184|
8=FIXT.1.1|9=73|35=A|34=41|49=BANZAI|52=20200228-12:16:51.763|56=EXEC|98=0|108=20|1137=9|10=158|
8=FIXT.1.1|9=73|35=A|34=41|49=EXEC|52=20200228-12:16:51.784|56=BANZAI|98=0|108=20|1137=9|10=161|
8=FIXT.1.1|9=54|35=0|34=42|49=BANZAI|52=20200228-12:17:11.782|56=EXEC|10=048|
8=FIXT.1.1|9=54|35=0|34=42|49=EXEC|52=20200228-12:17:11.787|56=BANZAI|10=053|
8=FIXT.1.1|9=54|35=0|34=43|49=BANZAI|52=20200228-12:17:31.786|56=EXEC|10=055|
8=FIXT.1.1|9=54|35=0|34=43|49=EXEC|52=20200228-12:17:31.790|56=BANZAI|10=050|
8=FIXT.1.1|9=54|35=0|34=44|49=BANZAI|52=20200228-12:17:51.789|56=EXEC|10=061|
8=FIXT.1.1|9=54|35=0|34=44|49=EXEC|52=20200228-12:17:51.794|56=BANZAI|10=057|
8=FIXT.1.1|9=54|35=0|34=45|49=BANZAI|52=20200228-12:18:11.793|56=EXEC|10=054|
8=FIXT.1.1|9=54|35=0|34=45|49=EXEC|52=20200228-12:18:11.796|56=BANZAI|10=057|
8=FIXT.1.1|9=149|35=D|34=46|49=BANZAI|52=20200228-12:18:24.218|56=EXEC|11=6a9c725f-5a24-11ea-bbec-7427ea59c5e5|38=30|40=7|44=19|54=1|55=MSFT|60=20200228-12:18:24.218|10=112|
8=FIXT.1.1|9=214|35=8|34=46|49=EXEC|52=20200228-12:18:24.228|56=BANZAI|6=0|11=6a9c725f-5a24-11ea-bbec-7427ea59c5e5|14=0|17=54cdfcd2-5b19-4d4b-91e6-c73de0e06878|37=ee95f1ef-8727-421a-a4ab-7fa76186b8a9|39=0|54=1|55=MSFT|150=0|151=30|10=215|
8=FIXT.1.1|9=54|35=0|34=47|49=BANZAI|52=20200228-12:18:44.222|56=EXEC|10=049|
8=FIXT.1.1|9=54|35=0|34=47|49=EXEC|52=20200228-12:18:44.226|56=BANZAI|10=053|
8=FIXT.1.1|9=54|35=0|34=48|49=BANZAI|52=20200228-12:19:04.225|56=EXEC|10=050|
8=FIXT.1.1|9=54|35=0|34=48|49=EXEC|52=20200228-12:19:04.228|56=BANZAI|10=053|
8=FIXT.1.1|9=54|35=0|34=49|49=BANZAI|52=20200228-12:19:24.227|56=EXEC|10=055|
8=FIXT.1.1|9=54|35=0|34=49|49=EXEC|52=20200228-12:19:24.231|56=BANZAI|10=050|
8=FIXT.1.1|9=54|35=0|34=50|49=BANZAI|52=20200228-12:19:44.230|56=EXEC|10=043|
8=FIXT.1.1|9=54|35=0|34=50|49=EXEC|52=20200228-12:19:44.234|56=BANZAI|10=047|
8=FIXT.1.1|9=54|35=0|34=51|49=BANZAI|52=20200228-12:20:04.233|56=EXEC|10=035|
8=FIXT.1.1|9=54|35=0|34=51|49=EXEC|52=20200228-12:20:04.237|56=BANZAI|10=039|
8=FIXT.1.1|9=54|35=0|34=52|49=BANZAI|52=20200228-12:20:24.236|56=EXEC|10=041|
8=FIXT.1.1|9=54|35=0|34=52|49=EXEC|52=20200228-12:20:24.239|56=BANZAI|10=044|
8=FIXT.1.1|9=54|35=0|34=53|49=BANZAI|52=20200228-12:20:44.238|56=EXEC|10=046|
8=FIXT.1.1|9=54|35=0|34=53|49=EXEC|52=20200228-12:20:44.242|56=BANZAI|10=041|
8=FIXT.1.1|9=54|35=0|34=54|49=BANZAI|52=20200228-12:21:04.241|56=EXEC|10=038|
8=FIXT.1.1|9=54|35=0|34=54|49=EXEC|52=20200228-12:21:04.245|56=BANZAI|10=042|
8=FIXT.1.1|9=54|35=0|34=55|49=BANZAI|52=20200228-12:21:24.244|56=EXEC|10=044|
8=FIXT.1.1|9=54|35=0|34=55|49=EXEC|52=20200228-12:21:24.247|56=BANZAI|10=047|
8=FIXT.1.1|9=54|35=0|34=56|49=BANZAI|52=20200228-12:21:44.246|56=EXEC|10=049|
8=FIXT.1.1|9=54|35=0|34=56|49=EXEC|52=20200228-12:21:44.251|56=BANZAI|10=045|
8=FIXT.1.1|9=54|35=0|34=57|49=BANZAI|52=20200228-12:22:04.250|56=EXEC|10=042|
8=FIXT.1.1|9=54|35=0|34=57|49=EXEC|52=20200228-12:22:04.254|56=BANZAI|10=046|
8=FIXT.1.1|9=54|35=0|34=58|49=BANZAI|52=20200228-12:22:24.253|56=EXEC|10=048|
8=FIXT.1.1|9=54|35=0|34=58|49=EXEC|52=20200228-12:22:24.261|56=BANZAI|10=047|
8=FIXT.1.1|9=54|35=0|34=59|49=BANZAI|52=20200228-12:22:44.260|56=EXEC|10=049|
8=FIXT.1.1|9=54|35=0|34=59|49=EXEC|52=20200228-12:22:44.264|56=BANZAI|10=053|
8=FIXT.1.1|9=54|35=0|34=60|49=BANZAI|52=20200228-12:23:04.263|56=EXEC|10=041|
8=FIXT.1.1|9=54|35=0|34=60|49=EXEC|52=20200228-12:23:04.266|56=BANZAI|10=044|
8=FIXT.1.1|9=54|35=0|34=61|49=BANZAI|52=20200228-12:23:24.265|56=EXEC|10=046|
8=FIXT.1.1|9=54|35=0|34=61|49=EXEC|52=20200228-12:23:24.269|56=BANZAI|10=050|
8=FIXT.1.1|9=54|35=0|34=62|49=BANZAI|52=20200228-12:23:44.268|56=EXEC|10=052|
8=FIXT.1.1|9=54|35=0|34=62|49=EXEC|52=20200228-12:23:44.272|56=BANZAI|10=047|
8=FIXT.1.1|9=54|35=0|34=63|49=BANZAI|52=20200228-12:24:04.271|56=EXEC|10=044|
8=FIXT.1.1|9=54|35=0|34=63|49=EXEC|52=20200228-12:24:04.274|56=BANZAI|10=047|
8=FIXT.1.1|9=54|35=0|34=64|49=BANZAI|52=20200228-12:24:24.273|56=EXEC|10=049|
8=FIXT.1.1|9=54|35=0|34=64|49=EXEC|52=20200228-12:24:24.277|56=BANZAI|10=053|
8=FIXT.1.1|9=54|35=0|34=65|49=BANZAI|52=20200228-12:24:44.276|56=EXEC|10=055|
8=FIXT.1.1|9=54|35=0|34=65|49=EXEC|52=20200228-12:24:44.280|56=BANZAI|10=050|
8=FIXT.1.1|9=54|35=0|34=66|49=BANZAI|52=20200228-12:25:04.279|56=EXEC|10=056|
8=FIXT.1.1|9=54|35=0|34=66|49=EXEC|52=20200228-12:25:04.283|56=BANZAI|10=051|
8=FIXT.1.1|9=54|35=0|34=67|49=BANZAI|52=20200228-12:25:24.283|56=EXEC|10=054|
8=FIXT.1.1|9=54|35=0|34=67|49=EXEC|52=20200228-12:25:24.288|56=BANZAI|10=059|
8=FIXT.1.1|9=54|35=0|34=68|49=BANZAI|52=20200228-12:25:44.286|56=EXEC|10=060|
8=FIXT.1.1|9=54|35=0|34=68|49=EXEC|52=20200228-12:25:44.289|56=BANZAI|10=063|
8=FIXT.1.1|9=54|35=0|34=69|49=BANZAI|52=20200228-12:26:04.288|56=EXEC|10=060|
8=FIXT.1.1|9=54|35=0|34=69|49=EXEC|52=20200228-12:26:04.292|56=BANZAI|10=055|
8=FIXT.1.1|9=54|35=0|34=70|49=BANZAI|52=20200228-12:26:24.291|56=EXEC|10=048|
8=FIXT.1.1|9=54|35=0|34=70|49=EXEC|52=20200228-12:26:24.294|56=BANZAI|10=051|
8=FIXT.1.1|9=54|35=0|34=71|49=BANZAI|52=20200228-12:26:44.293|56=EXEC|10=053|
8=FIXT.1.1|9=54|35=0|34=71|49=EXEC|52=20200228-12:26:44.297|56=BANZAI|10=057|
8=FIXT.1.1|9=54|35=0|34=72|49=BANZAI|52=20200228-12:27:04.296|56=EXEC|10=054|
8=FIXT.1.1|9=54|35=0|34=72|49=EXEC|52=20200228-12:27:04.300|56=BANZAI|10=040|
8=FIXT.1.1|9=54|35=0|34=73|49=BANZAI|52=20200228-12:27:24.299|56=EXEC|10=060|
8=FIXT.1.1|9=54|35=0|34=73|49=EXEC|52=20200228-12:27:24.305|56=BANZAI|10=048|
8=FIXT.1.1|9=54|35=0|34=74|49=BANZAI|52=20200228-12:27:44.304|56=EXEC|10=050|
8=FIXT.1.1|9=54|35=0|34=74|49=EXEC|52=20200228-12:27:44.307|56=BANZAI|10=053|
8=FIXT.1.1|9=54|35=0|34=75|49=EXEC|52=20200228-12:28:04.307|56=BANZAI|10=051|
8=FIXT.1.1|9=54|35=0|34=75|49=BANZAI|52=20200228-12:28:04.307|56=EXEC|10=051|
8=FIXT.1.1|9=54|35=0|34=76|49=EXEC|52=20200228-12:28:24.307|56=BANZAI|10=054|
8=FIXT.1.1|9=54|35=0|34=76|49=BANZAI|52=20200228-12:28:24.310|56=EXEC|10=048|
8=FIXT.1.1|9=54|35=0|34=77|49=EXEC|52=20200228-12:28:44.307|56=BANZAI|10=057|
8=FIXT.1.1|9=54|35=0|34=77|49=BANZAI|52=20200228-12:28:44.312|56=EXEC|10=053|
8=FIXT.1.1|9=54|35=0|34=78|49=EXEC|52=20200228-12:29:04.307|56=BANZAI|10=055|
8=FIXT.1.1|9=54|35=0|34=78|49=BANZAI|52=20200228-12:29:04.315|56=EXEC|10=054|
8=FIXT.1.1|9=54|35=0|34=79|49=EXEC|52=20200228-12:29:24.307|56=BANZAI|10=058|
8=FIXT.1.1|9=54|35=0|34=79|49=BANZAI|52=20200228-12:29:24.318|56=EXEC|10=060|
8=FIXT.1.1|9=54|35=0|34=80|49=EXEC|52=20200228-12:29:44.307|56=BANZAI|10=052|
8=FIXT.1.1|9=54|35=0|34=80|49=BANZAI|52=20200228-12:29:44.320|56=EXEC|10=047|
8=FIXT.1.1|9=54|35=0|34=81|49=EXEC|52=20200228-12:30:04.307|56=BANZAI|10=041|
8=FIXT.1.1|9=54|35=0|34=81|49=BANZAI|52=20200228-12:30:04.323|56=EXEC|10=039|
8=FIXT.1.1|9=54|35=0|34=82|49=EXEC|52=20200228-12:30:24.307|56=BANZAI|10=044|
8=FIXT.1.1|9=54|35=0|34=82|49=BANZAI|52=20200228-12:30:24.326|56=EXEC|10=045|
8=FIXT.1.1|9=54|35=0|34=83|49=EXEC|52=20200228-12:30:44.307|56=BANZAI|10=047|
8=FIXT.1.1|9=54|35=0|34=83|49=BANZAI|52=20200228-12:30:44.328|56=EXEC|10=050|
8=FIXT.1.1|9=54|35=0|34=84|49=EXEC|52=20200228-12:31:04.307|56=BANZAI|10=045|
8=FIXT.1.1|9=54|35=0|34=84|49=BANZAI|52=20200228-12:31:04.331|56=EXEC|10=042|
8=FIXT.1.1|9=54|35=0|34=85|49=EXEC|52=20200228-12:31:24.307|56=BANZAI|10=048|
8=FIXT.1.1|9=54|35=0|34=85|49=BANZAI|52=20200228-12:31:24.334|56=EXEC|10=048|
8=FIXT.1.1|9=54|35=0|34=86|49=EXEC|52=20200228-12:31:44.307|56=BANZAI|10=051|
8=FIXT.1.1|9=54|35=0|34=86|49=BANZAI|52=20200228-12:31:44.336|56=EXEC|10=053|
8=FIXT.1.1|9=54|35=0|34=87|49=EXEC|52=20200228-12:32:04.307|56=BANZAI|10=049|
8=FIXT.1.1|9=54|35=0|34=87|49=BANZAI|52=20200228-12:32:04.339|56=EXEC|10=054|
8=FIXT.1.1|9=54|35=0|34=88|49=EXEC|52=20200228-12:32:24.307|56=BANZAI|10=052|
8=FIXT.1.1|9=54|35=0|34=88|49=BANZAI|52=20200228-12:32:24.341|56=EXEC|10=050|
8=FIXT.1.1|9=54|35=0|34=89|49=EXEC|52=20200228-12:32:44.307|56=BANZAI|10=055|
8=FIXT.1.1|9=54|35=0|34=89|49=BANZAI|52=20200228-12:32:44.344|56=EXEC|10=056|
8=FIXT.1.1|9=54|35=0|34=90|49=EXEC|52=20200228-12:33:04.307|56=BANZAI|10=044|
8=FIXT.1.1|9=54|35=0|34=90|49=BANZAI|52=20200228-12:33:04.347|56=EXEC|10=048|
8=FIXT.1.1|9=54|35=0|34=91|49=EXEC|52=20200228-12:33:24.307|56=BANZAI|10=047|
8=FIXT.1.1|9=54|35=0|34=91|49=BANZAI|52=20200228-12:33:24.350|56=EXEC|10=045|
8=FIXT.1.1|9=54|35=0|34=92|49=EXEC|52=20200228-12:33:44.307|56=BANZAI|10=050|
8=FIXT.1.1|9=54|35=0|34=92|49=BANZAI|52=20200228-12:33:44.353|56=EXEC|10=051|
8=FIXT.1.1|9=54|35=0|34=93|49=EXEC|52=20200228-12:34:04.307|56=BANZAI|10=048|
8=FIXT.1.1|9=54|35=0|34=93|49=BANZAI|52=20200228-12:34:04.356|56=EXEC|10=052|
8=FIXT.1.1|9=54|35=0|34=94|49=EXEC|52=20200228-12:34:24.307|56=BANZAI|10=051|
8=FIXT.1.1|9=54|35=0|34=94|49=BANZAI|52=20200228-12:34:24.358|56=EXEC|10=057|
8=FIXT.1.1|9=54|35=0|34=95|49=EXEC|52=20200228-12:34:44.307|56=BANZAI|10=054|
8=FIXT.1.1|9=54|35=0|34=95|49=BANZAI|52=20200228-12:34:44.360|56=EXEC|10=053|
8=FIXT.1.1|9=54|35=0|34=96|49=EXEC|52=20200228-12:35:04.307|56=BANZAI|10=052|
8=FIXT.1.1|9=54|35=0|34=96|49=BANZAI|52=20200228-12:35:04.363|56=EXEC|10=054|
8=FIXT.1.1|9=54|35=0|34=97|49=EXEC|52=20200228-12:35:24.307|56=BANZAI|10=055|
8=FIXT.1.1|9=54|35=0|34=97|49=BANZAI|52=20200228-12:35:24.365|56=EXEC|10=059|
8=FIXT.1.1|9=54|35=0|34=98|49=EXEC|52=20200228-12:35:44.307|56=BANZAI|10=058|
8=FIXT.1.1|9=54|35=0|34=98|49=BANZAI|52=20200228-12:35:44.368|56=EXEC|10=065|
8=FIXT.1.1|9=54|35=0|34=99|49=EXEC|52=20200228-12:36:04.307|56=BANZAI|10=056|
8=FIXT.1.1|9=54|35=0|34=99|49=BANZAI|52=20200228-12:36:04.371|56=EXEC|10=057|
8=FIXT.1.1|9=55|35=0|34=100|49=EXEC|52=20200228-12:36:24.307|56=BANZAI|10=090|
8=FIXT.1.1|9=55|35=0|34=100|49=BANZAI|52=20200228-12:36:24.373|56=EXEC|10=093|
8=FIXT.1.1|9=55|35=0|34=101|49=EXEC|52=20200228-12:36:44.307|56=BANZAI|10=093|
8=FIXT.1.1|9=64|35=1|34=102|49=EXEC|52=20200228-12:36:55.307|56=BANZAI|112=TEST|10=115|
8=FIXT.1.1|9=74|35=A|34=101|49=BANZAI|52=20200228-12:39:23.697|56=EXEC|98=0|108=20|1137=9|10=214|
8=FIXT.1.1|9=74|35=A|34=103|49=EXEC|52=20200228-12:39:23.705|56=BANZAI|98=0|108=20|1137=9|10=206|
8=FIXT.1.1|9=66|35=2|34=102|49=BANZAI|52=20200228-12:39:23.706|56=EXEC|7=101|16=0|10=065|
8=FIXT.1.1|9=99|35=4|34=101|43=Y|49=EXEC|52=20200228-12:39:23.710|56=BANZAI|122=20200228-12:39:23.710|36=104|123=Y|10=204|
8=FIXT.1.1|9=55|35=0|34=103|49=BANZAI|52=20200228-12:39:43.708|56=EXEC|10=102|
8=FIXT.1.1|9=55|35=0|34=104|49=EXEC|52=20200228-12:39:43.712|56=BANZAI|10=098|
8=FIXT.1.1|9=55|35=0|34=104|49=BANZAI|52=20200228-12:40:03.711|56=EXEC|10=085|
8=FIXT.1.1|9=55|35=0|34=105|49=EXEC|52=20200228-12:40:03.715|56=BANZAI|10=090|
8=FIXT.1.1|9=55|35=0|34=105|49=BANZAI|52=20200228-12:40:23.714|56=EXEC|10=091|
8=FIXT.1.1|9=55|35=0|34=106|49=EXEC|52=20200228-12:40:23.718|56=BANZAI|10=096|
8=FIXT.1.1|9=152|35=D|34=106|49=BANZAI|52=20200228-12:40:35.411|56=EXEC|11=84106d3a-5a27-11ea-a85c-7427ea59c5e5|38=12|40=7|44=1900|54=1|55=MSFT|60=20200228-12:40:35.411|10=083|
8=FIXT.1.1|9=215|35=8|34=107|49=EXEC|52=20200228-12:40:35.419|56=BANZAI|6=0|11=84106d3a-5a27-11ea-a85c-7427ea59c5e5|14=0|17=30610ae4-1b20-4a5b-9e1c-0efc956f6148|37=45c98e3d-dc39-4d49-9c93-175e64fe9ae2|39=0|54=1|55=MSFT|150=0|151=12|10=217|
8=FIXT.1.1|9=55|35=0|34=107|49=BANZAI|52=20200228-12:40:55.418|56=EXEC|10=099|
8=FIXT.1.1|9=55|35=0|34=108|49=EXEC|52=20200228-12:40:55.422|56=BANZAI|10=095|
8=FIXT.1.1|9=55|35=0|34=109|49=EXEC|52=20200228-12:41:16.307|56=BANZAI|10=096|
8=FIXT.1.1|9=55|35=0|34=108|49=BANZAI|52=20200228-12:41:18.166|56=EXEC|10=100|
8=FIXT.1.1|9=55|35=0|34=110|49=EXEC|52=20200228-12:41:36.307|56=BANZAI|10=090|
8=FIXT.1.1|9=64|35=1|34=111|49=EXEC|52=20200228-12:41:51.307|56=BANZAI|112=TEST|10=107|
8=FIXT.1.1|9=74|35=A|34=111|49=BANZAI|52=20200228-13:47:51.968|56=EXEC|98=0|108=20|1137=9|10=217|
8=FIXT.1.1|9=74|35=A|34=112|49=EXEC|52=20200228-13:47:51.972|56=BANZAI|98=0|108=20|1137=9|10=213|
8=FIXT.1.1|9=66|35=2|34=113|49=EXEC|52=20200228-13:47:51.976|56=BANZAI|7=109|16=0|10=085|
8=FIXT.1.1|9=66|35=2|34=112|49=BANZAI|52=20200228-13:47:51.979|56=EXEC|7=110|16=0|10=079|
8=FIXT.1.1|9=99|35=4|34=109|43=Y|49=BANZAI|52=20200228-13:47:51.981|56=EXEC|122=20200228-13:47:51.981|36=113|123=Y|10=234|
8=FIXT.1.1|9=99|35=4|34=110|43=Y|49=EXEC|52=20200228-13:47:51.983|56=BANZAI|122=20200228-13:47:51.982|36=114|123=Y|10=230|
8=FIXT.1.1|9=55|35=0|34=113|49=BANZAI|52=20200228-13:48:11.982|56=EXEC|10=103|
8=FIXT.1.1|9=55|35=0|34=114|49=EXEC|52=20200228-13:48:11.985|56=BANZAI|10=107|
8=FIXT.1.1|9=55|35=0|34=115|49=EXEC|52=20200228-13:48:32.307|56=BANZAI|10=099|
8=FIXT.1.1|9=153|35=D|34=114|49=BANZAI|52=20200228-13:48:37.282|56=EXEC|11=016f38dd-5a31-11ea-82d7-7427ea59c5e5|38=20|40=7|44=19.36|54=1|55=MSFT|60=20200228-13:48:31.218|10=168|
8=FIXT.1.1|9=64|35=1|34=115|49=BANZAI|52=20200228-13:48:37.284|56=EXEC|112=TEST|10=127|
8=FIXT.1.1|9=215|35=8|34=116|49=EXEC|52=20200228-13:48:37.292|56=BANZAI|6=0|11=016f38dd-5a31-11ea-82d7-7427ea59c5e5|14=0|17=ac1754c7-15fc-49c1-9791-874d8f756b72|37=58b49357-e32f-4497-aa0b-9c9520d0ff8a|39=0|54=1|55=MSFT|150=0|151=20|10=106|
8=FIXT.1.1|9=64|35=0|34=117|49=EXEC|52=20200228-13:48:37.293|56=BANZAI|112=TEST|10=128|
8=FIXT.1.1|9=55|35=0|34=118|49=EXEC|52=20200228-13:48:57.307|56=BANZAI|10=109|
8=FIXT.1.1|9=64|35=1|34=119|49=EXEC|52=20200228-13:49:07.307|56=BANZAI|112=TEST|10=125|
8=FIXT.1.1|9=74|35=A|34=116|49=BANZAI|52=20200228-14:13:48.760|56=EXEC|98=0|108=20|1137=9|10=212|
8=FIXT.1.1|9=74|35=A|34=120|49=EXEC|52=20200228-14:13:48.975|56=BANZAI|98=0|108=20|1137=9|10=215|
8=FIXT.1.1|9=66|35=2|34=117|49=BANZAI|52=20200228-14:13:49.006|56=EXEC|7=116|16=0|10=072|
8=FIXT.1.1|9=246|35=8|34=116|43=Y|49=EXEC|52=20200228-14:13:49.060|56=BANZAI|122=20200228-13:48:37.292|6=0|11=016f38dd-5a31-11ea-82d7-7427ea59c5e5|14=0|17=ac1754c7-15fc-49c1-9791-874d8f756b72|37=58b49357-e32f-4497-aa0b-9c9520d0ff8a|39=0|54=1|55=MSFT|150=0|151=20|10=106|
8=FIXT.1.1|9=99|35=4|34=117|43=Y|49=EXEC|52=20200228-14:13:49.063|56=BANZAI|122=20200228-14:13:49.062|36=121|123=Y|10=215|
8=FIXT.1.1|9=55|35=0|34=118|49=BANZAI|52=20200228-14:14:09.009|56=EXEC|10=099|
8=FIXT.1.1|9=55|35=0|34=121|49=EXEC|52=20200228-14:14:09.788|56=BANZAI|10=107|
8=FIXT.1.1|9=55|35=0|34=119|49=BANZAI|52=20200228-14:14:29.011|56=EXEC|10=095|
8=FIXT.1.1|9=55|35=0|34=122|49=EXEC|52=20200228-14:14:29.788|56=BANZAI|10=110|
8=FIXT.1.1|9=153|35=D|34=120|49=BANZAI|52=20200228-14:14:43.923|56=EXEC|11=aad6eaaa-5a34-11ea-b150-7427ea59c5e5|38=10|40=7|44=19.36|54=1|55=MSFT|60=20200228-14:14:43.923|10=071|
8=FIXT.1.1|9=64|35=1|34=121|49=BANZAI|52=20200228-14:14:53.796|56=EXEC|112=TEST|10=124|
8=FIXT.1.1|9=64|35=1|34=123|49=EXEC|52=20200228-14:15:20.426|56=BANZAI|112=TEST|10=111|
8=FIXT.1.1|9=74|35=A|34=122|49=BANZAI|52=20200228-14:15:37.799|56=EXEC|98=0|108=20|1137=9|10=221|
8=FIXT.1.1|9=120|35=5|34=125|49=EXEC|52=20200228-14:17:43.191|56=BANZAI|58=Invalid Logon message: SendingTime accuracy problem, field=52|10=073|
8=FIXT.1.1|9=74|35=A|34=123|49=BANZAI|52=20200228-14:18:03.191|56=EXEC|98=0|108=20|1137=9|10=204|
8=FIXT.1.1|9=74|35=A|34=126|49=EXEC|52=20200228-14:18:03.194|56=BANZAI|98=0|108=20|1137=9|10=210|
8=FIXT.1.1|9=66|35=2|34=127|49=EXEC|52=20200228-14:18:03.195|56=BANZAI|7=122|16=0|10=074|
8=FIXT.1.1|9=66|35=2|34=124|49=BANZAI|52=20200228-14:18:03.196|56=EXEC|7=123|16=0|10=073|
8=FIXT.1.1|9=99|35=4|34=122|43=Y|49=BANZAI|52=20200228-14:18:03.198|56=EXEC|122=20200228-14:18:03.198|36=125|123=Y|10=224|
8=FIXT.1.1|9=99|35=4|34=123|43=Y|49=EXEC|52=20200228-14:18:03.199|56=BANZAI|122=20200228-14:18:03.199|36=124|123=Y|10=226|
8=FIXT.1.1|9=246|35=8|34=124|43=Y|49=EXEC|52=20200228-14:18:03.199|56=BANZAI|122=20200228-14:17:43.188|6=0|11=aad6eaaa-5a34-11ea-b150-7427ea59c5e5|14=0|17=18efe2d2-084f-453b-9936-7c742a9d5a5a|37=9b02fb4c-67ed-44e5-a4b2-c34a9ed8edb7|39=0|54=1|55=MSFT|150=0|151=10|10=082|
8=FIXT.1.1|9=99|35=4|34=125|43=Y|49=EXEC|52=20200228-14:18:03.200|56=BANZAI|122=20200228-14:18:03.200|36=128|123=Y|10=198|
8=FIXT.1.1|9=55|35=0|34=125|49=BANZAI|52=20200228-14:18:23.198|56=EXEC|10=106|
8=FIXT.1.1|9=55|35=0|34=128|49=EXEC|52=20200228-14:18:23.201|56=BANZAI|10=094|
8=FIXT.1.1|9=153|35=D|34=126|49=BANZAI|52=20200228-14:18:42.341|56=EXEC|11=38f286e4-5a35-11ea-b150-7427ea59c5e5|38=10|40=7|44=19.36|54=1|55=MSFT|60=20200228-14:18:42.340|10=109|
8=FIXT.1.1|9=55|35=0|34=129|49=EXEC|52=20200228-14:18:45.240|56=BANZAI|10=102|
8=FIXT.1.1|9=215|35=8|34=130|49=EXEC|52=20200228-14:18:50.393|56=BANZAI|6=0|11=38f286e4-5a35-11ea-b150-7427ea59c5e5|14=0|17=57f48ec8-fd15-4c2e-9882-76865862ba74|37=1a670749-9ced-4def-adaf-906747d9f870|39=0|54=1|55=MSFT|150=0|151=10|10=169|
8=FIXT.1.1|9=55|35=0|34=127|49=BANZAI|52=20200228-14:19:02.343|56=EXEC|10=098|
8=FIXT.1.1|9=55|35=0|34=131|49=EXEC|52=20200228-14:19:10.788|56=BANZAI|10=105|
8=FIXT.1.1|9=55|35=0|34=128|49=BANZAI|52=20200228-14:19:22.346|56=EXEC|10=104|
8=FIXT.1.1|9=55|35=0|34=132|49=EXEC|52=20200228-14:19:30.788|56=BANZAI|10=108|
8=FIXT.1.1|9=55|35=0|34=129|49=BANZAI|52=20200228-14:19:42.350|56=EXEC|10=102|
8=FIXT.1.1|9=55|35=0|34=133|49=EXEC|52=20200228-14:19:50.788|56=BANZAI|10=111|
8=FIXT.1.1|9=55|35=0|34=130|49=BANZAI|52=20200228-14:20:02.352|56=EXEC|10=084|
8=FIXT.1.1|9=55|35=0|34=134|49=EXEC|52=20200228-14:20:10.788|56=BANZAI|10=100|
8=FIXT.1.1|9=55|35=0|34=131|49=BANZAI|52=20200228-14:20:22.355|56=EXEC|10=090|
8=FIXT.1.1|9=55|35=0|34=135|49=EXEC|52=20200228-14:20:30.788|56=BANZAI|10=103|
8=FIXT.1.1|9=55|35=0|34=132|49=BANZAI|52=20200228-14:20:42.358|56=EXEC|10=096|
8=FIXT.1.1|9=55|35=0|34=136|49=EXEC|52=20200228-14:20:50.788|56=BANZAI|10=106|
8=FIXT.1.1|9=55|35=0|34=133|49=BANZAI|52=20200228-14:21:02.361|56=EXEC|10=088|
8=FIXT.1.1|9=55|35=0|34=137|49=EXEC|52=20200228-14:21:10.788|56=BANZAI|10=104|
8=FIXT.1.1|9=55|35=0|34=134|49=BANZAI|52=20200228-14:21:22.363|56=EXEC|10=093|
8=FIXT.1.1|9=55|35=0|34=138|49=EXEC|52=20200228-14:21:30.788|56=BANZAI|10=107|
8=FIXT.1.1|9=55|35=0|34=135|49=BANZAI|52=20200228-14:21:42.366|56=EXEC|10=099|
8=FIXT.1.1|9=55|35=0|34=139|49=EXEC|52=20200228-14:21:50.788|56=BANZAI|10=110|
8=FIXT.1.1|9=55|35=0|34=136|49=BANZAI|52=20200228-14:22:02.369|56=EXEC|10=100|
8=FIXT.1.1|9=55|35=0|34=140|49=EXEC|52=20200228-14:22:10.788|56=BANZAI|10=099|
8=FIXT.1.1|9=55|35=0|34=137|49=BANZAI|52=20200228-14:22:22.372|56=EXEC|10=097|
8=FIXT.1.1|9=55|35=0|34=141|49=EXEC|52=20200228-14:22:30.788|56=BANZAI|10=102|
8=FIXT.1.1|9=74|35=A|34=138|49=BANZAI|52=20200228-14:22:56.521|56=EXEC|98=0|108=20|1137=9|10=210|
8=FIXT.1.1|9=74|35=A|34=142|49=EXEC|52=20200228-14:22:56.714|56=BANZAI|98=0|108=20|1137=9|10=209|
8=FIXT.1.1|9=55|35=0|34=139|49=BANZAI|52=20200228-14:23:16.524|56=EXEC|10=102|
8=FIXT.1.1|9=55|35=0|34=143|49=EXEC|52=20200228-14:23:17.067|56=BANZAI|10=100|
8=FIXT.1.1|9=55|35=0|34=140|49=BANZAI|52=20200228-14:23:36.527|56=EXEC|10=099|
8=FIXT.1.1|9=55|35=0|34=144|49=EXEC|52=20200228-14:23:37.067|56=BANZAI|10=103|
8=FIXT.1.1|9=55|35=0|34=141|49=BANZAI|52=20200228-14:23:56.530|56=EXEC|10=096|
8=FIXT.1.1|9=55|35=0|34=145|49=EXEC|52=20200228-14:23:57.067|56=BANZAI|10=106|
8=FIXT.1.1|9=55|35=0|34=142|49=BANZAI|52=20200228-14:24:16.532|56=EXEC|10=096|
8=FIXT.1.1|9=55|35=0|34=146|49=EXEC|52=20200228-14:24:17.066|56=BANZAI|10=103|
8=FIXT.1.1|9=55|35=0|34=143|49=BANZAI|52=20200228-14:24:36.535|56=EXEC|10=102|
8=FIXT.1.1|9=55|35=0|34=147|49=EXEC|52=20200228-14:24:37.067|56=BANZAI|10=107|
8=FIXT.1.1|9=55|35=0|34=144|49=BANZAI|52=20200228-14:24:56.538|56=EXEC|10=108|
8=FIXT.1.1|9=55|35=0|34=148|49=EXEC|52=20200228-14:24:57.067|56=BANZAI|10=110|
8=FIXT.1.1|9=153|35=D|34=145|49=BANZAI|52=20200228-14:25:16.146|56=EXEC|11=23ac7de3-5a36-11ea-b150-7427ea59c5e5|38=10|40=7|44=19.36|54=1|55=MSFT|60=20200228-14:25:16.146|10=198|
8=FIXT.1.1|9=55|35=0|34=149|49=EXEC|52=20200228-14:25:18.500|56=BANZAI|10=101|
8=FIXT.1.1|9=55|35=0|34=146|49=BANZAI|52=20200228-14:25:36.149|56=EXEC|10=107|
8=FIXT.1.1|9=55|35=0|34=150|49=EXEC|52=20200228-14:25:40.935|56=BANZAI|10=100|
8=FIXT.1.1|9=55|35=0|34=147|49=BANZAI|52=20200228-14:25:56.152|56=EXEC|10=104|
8=FIXT.1.1|9=64|35=1|34=148|49=BANZAI|52=20200228-14:26:04.937|56=EXEC|112=TEST|10=129|
8=FIXT.1.1|9=64|35=1|34=151|49=EXEC|52=20200228-14:30:50.562|56=BANZAI|112=TEST|10=113|
8=FIXT.1.1|9=74|35=A|34=149|49=BANZAI|52=20200228-14:26:48.940|56=EXEC|98=0|108=20|1137=9|10=222|
8=FIXT.1.1|9=120|35=5|34=153|49=EXEC|52=20200228-14:30:50.602|56=BANZAI|58=Invalid Logon message: SendingTime accuracy problem, field=52|10=064|
8=FIXT.1.1|9=74|35=A|34=151|49=BANZAI|52=20200228-14:31:10.602|56=EXEC|98=0|108=20|1137=9|10=195|
8=FIXT.1.1|9=74|35=A|34=154|49=EXEC|52=20200228-14:31:10.605|56=BANZAI|98=0|108=20|1137=9|10=201|
8=FIXT.1.1|9=66|35=2|34=155|49=EXEC|52=20200228-14:31:10.606|56=BANZAI|7=147|16=0|10=072|
8=FIXT.1.1|9=99|35=4|34=147|43=Y|49=BANZAI|52=20200228-14:31:10.609|56=EXEC|122=20200228-14:31:10.609|36=150|123=Y|10=209|
8=FIXT.1.1|9=184|35=D|34=150|43=Y|49=BANZAI|52=20200228-14:31:10.609|56=EXEC|122=20200228-14:31:01.139|11=f14e33fa-5a36-11ea-b150-7427ea59c5e5|38=10|40=7|44=19.36|54=1|55=MSFT|60=20200228-14:31:01.138|10=177|
8=FIXT.1.1|9=99|35=4|34=151|43=Y|49=BANZAI|52=20200228-14:31:10.609|56=EXEC|122=20200228-14:31:10.609|36=153|123=Y|10=207|
8=FIXT.1.1|9=66|35=2|34=152|49=BANZAI|52=20200228-14:31:10.606|56=EXEC|7=151|16=0|10=064|
8=FIXT.1.1|9=55|35=0|34=153|49=BANZAI|52=20200228-14:31:30.609|56=EXEC|10=097|
8=FIXT.1.1|9=64|35=1|34=154|49=BANZAI|52=20200228-14:31:34.609|56=EXEC|112=TEST|10=121|
8=FIXT.1.1|9=142|35=5|34=157|49=EXEC|52=20200228-14:39:18.400|56=BANZAI|58=Tried to send a reject while not logged on: SendingTime accuracy problem (field 52)|10=138|
8=FIXT.1.1|9=74|35=A|34=155|49=BANZAI|52=20200228-14:32:18.612|56=EXEC|98=0|108=20|1137=9|10=209|
8=FIXT.1.1|9=120|35=5|34=158|49=EXEC|52=20200228-14:39:18.407|56=BANZAI|58=Invalid Logon message: SendingTime accuracy problem, field=52|10=085|
8=FIXT.1.1|9=74|35=A|34=156|49=BANZAI|52=20200228-14:42:18.412|56=EXEC|98=0|108=20|1137=9|10=209|
8=FIXT.1.1|9=74|35=A|34=159|49=EXEC|52=20200228-14:42:18.614|56=BANZAI|98=0|108=20|1137=9|10=216|
8=FIXT.1.1|9=66|35=2|34=160|49=EXEC|52=20200228-14:42:18.693|56=BANZAI|7=152|16=0|10=080|
8=FIXT.1.1|9=99|35=4|34=152|43=Y|49=BANZAI|52=20200228-14:42:18.695|56=EXEC|122=20200228-14:42:18.695|36=158|123=Y|10=243|
8=FIXT.1.1|9=66|35=2|34=157|49=BANZAI|52=20200228-14:42:18.693|56=EXEC|7=151|16=0|10=085|
8=FIXT.1.1|9=108|35=5|34=161|49=EXEC|52=20200228-14:42:18.698|56=BANZAI|58=MsgSeqNum too low, expecting 158 but received 157|10=019|
8=FIXT.1.1|9=74|35=A|34=160|49=BANZAI|52=20200228-14:42:38.707|56=EXEC|98=0|108=20|1137=9|10=213|
8=FIXT.1.1|9=74|35=A|34=162|49=EXEC|52=20200228-14:42:38.712|56=BANZAI|98=0|108=20|1137=9|10=211|
8=FIXT.1.1|9=66|35=2|34=163|49=EXEC|52=20200228-14:42:38.713|56=BANZAI|7=158|16=0|10=084|
8=FIXT.1.1|9=66|35=2|34=161|49=BANZAI|52=20200228-14:42:38.713|56=EXEC|7=152|16=0|10=076|
8=FIXT.1.1|9=99|35=4|34=158|43=Y|49=BANZAI|52=20200228-14:42:38.716|56=EXEC|122=20200228-14:42:38.716|36=159|123=Y|10=242|
8=FIXT.1.1|9=184|35=D|34=159|43=Y|49=BANZAI|52=20200228-14:42:38.716|56=EXEC|122=20200228-14:42:25.012|11=88ecf1d4-5a38-11ea-b150-7427ea59c5e5|38=10|40=7|44=19.36|54=1|55=MSFT|60=20200228-14:42:25.012|10=206|
8=FIXT.1.1|9=99|35=4|34=160|43=Y|49=BANZAI|52=20200228-14:42:38.716|56=EXEC|122=20200228-14:42:38.716|36=162|123=Y|10=229|
8=FIXT.1.1|9=246|35=8|34=152|43=Y|49=EXEC|52=20200228-14:42:38.756|56=BANZAI|122=20200228-14:30:50.599|6=0|11=23ac7de3-5a36-11ea-b150-7427ea59c5e5|14=0|17=5d16093a-9eff-44c6-9ab5-e9ef323640c8|37=064aba09-2ea3-4de7-9c68-654be14849fc|39=0|54=1|55=MSFT|150=0|151=10|10=071|
8=FIXT.1.1|9=99|35=4|34=153|43=Y|49=EXEC|52=20200228-14:42:38.757|56=BANZAI|122=20200228-14:42:38.757|36=156|123=Y|10=244|
8=FIXT.1.1|9=246|35=8|34=156|43=Y|49=EXEC|52=20200228-14:42:38.757|56=BANZAI|122=20200228-14:39:18.399|6=0|11=f14e33fa-5a36-11ea-b150-7427ea59c5e5|14=0|17=3375c0b5-0756-4000-9518-5dfabf23f28b|37=453e5f27-a0c8-468a-aafd-ce15acf15979|39=0|54=1|55=MSFT|150=0|151=10|10=015|
8=FIXT.1.1|9=99|35=4|34=157|43=Y|49=EXEC|52=20200228-14:42:38.759|56=BANZAI|122=20200228-14:42:38.759|36=164|123=Y|10=251|
8=FIXT.1.1|9=55|35=0|34=162|49=BANZAI|52=20200228-14:42:58.716|56=EXEC|10=108|
8=FIXT.1.1|9=55|35=0|34=164|49=EXEC|52=20200228-14:43:02.573|56=BANZAI|10=101|
8=FIXT.1.1|9=64|35=1|34=163|49=BANZAI|52=20200228-14:43:02.761|56=EXEC|112=TEST|10=118|
8=FIXT.1.1|9=64|35=1|34=165|49=EXEC|52=20200228-14:43:13.917|56=BANZAI|112=TEST|10=125|
8=FIXT.1.1|9=64|35=0|34=164|49=BANZAI|52=20200228-14:43:13.918|56=EXEC|112=TEST|10=124|
8=FIXT.1.1|9=215|35=8|34=166|49=EXEC|52=20200228-14:43:18.288|56=BANZAI|6=0|11=88ecf1d4-5a38-11ea-b150-7427ea59c5e5|14=0|17=540dc6b6-5518-440d-9627-f92303b57b29|37=ae1bcbda-7343-41c1-b6a3-ab08eea239a2|39=0|54=1|55=MSFT|150=0|151=10|10=239|
8=FIXT.1.1|9=64|35=0|34=167|49=EXEC|52=20200228-14:43:18.291|56=BANZAI|112=TEST|10=126|
8=FIXT.1.1|9=55|35=0|34=165|49=BANZAI|52=20200228-14:43:33.920|56=EXEC|10=102|
8=FIXT.1.1|9=55|35=0|34=168|49=EXEC|52=20200228-14:43:38.440|56=BANZAI|10=107|
8=FIXT.1.1|9=55|35=0|34=166|49=BANZAI|52=20200228-14:43:53.922|56=EXEC|10=107|
8=FIXT.1.1|9=55|35=0|34=169|49=EXEC|52=20200228-14:43:58.440|56=BANZAI|10=110|
8=FIXT.1.1|9=55|35=0|34=167|49=BANZAI|52=20200228-14:44:13.925|56=EXEC|10=108|
8=FIXT.1.1|9=55|35=0|34=170|49=EXEC|52=20200228-14:44:18.441|56=BANZAI|10=100|
8=FIXT.1.1|9=55|35=0|34=168|49=BANZAI|52=20200228-14:44:33.928|56=EXEC|10=114|
8=FIXT.1.1|9=55|35=0|34=171|49=EXEC|52=20200228-14:44:38.441|56=BANZAI|10=103|
8=FIXT.1.1|9=55|35=0|34=169|49=BANZAI|52=20200228-14:44:53.931|56=EXEC|10=111|
8=FIXT.1.1|9=55|35=0|34=172|49=EXEC|52=20200228-14:44:58.440|56=BANZAI|10=105|
8=FIXT.1.1|9=55|35=0|34=170|49=BANZAI|52=20200228-14:45:13.933|56=EXEC|10=102|
8=FIXT.1.1|9=55|35=0|34=173|49=EXEC|52=20200228-14:45:18.440|56=BANZAI|10=103|
8=FIXT.1.1|9=55|35=0|34=171|49=BANZAI|52=20200228-14:45:33.936|56=EXEC|10=108|
8=FIXT.1.1|9=55|35=0|34=174|49=EXEC|52=20200228-14:45:38.441|56=BANZAI|10=107|
8=FIXT.1.1|9=55|35=0|34=172|49=BANZAI|52=20200228-14:45:53.939|56=EXEC|10=114|
8=FIXT.1.1|9=55|35=0|34=175|49=EXEC|52=20200228-14:45:58.441|56=BANZAI|10=110|
8=FIXT.1.1|9=55|35=0|34=173|49=BANZAI|52=20200228-14:46:13.943|56=EXEC|10=107|
8=FIXT.1.1|9=55|35=0|34=176|49=EXEC|52=20200228-14:46:18.441|56=BANZAI|10=108|
8=FIXT.1.1|9=55|35=0|34=174|49=BANZAI|52=20200228-14:46:33.945|56=EXEC|10=112|
8=FIXT.1.1|9=55|35=0|34=177|49=EXEC|52=20200228-14:46:38.440|56=BANZAI|10=110|
8=FIXT.1.1|9=55|35=0|34=175|49=BANZAI|52=20200228-14:46:53.948|56=EXEC|10=118|
8=FIXT.1.1|9=55|35=0|34=178|49=EXEC|52=20200228-14:46:58.440|56=BANZAI|10=113|
8=FIXT.1.1|9=55|35=0|34=176|49=BANZAI|52=20200228-14:47:13.950|56=EXEC|10=109|
8=FIXT.1.1|9=55|35=0|34=179|49=EXEC|52=20200228-14:47:18.440|56=BANZAI|10=111|
8=FIXT.1.1|9=55|35=0|34=177|49=BANZAI|52=20200228-14:47:33.953|56=EXEC|10=115|
8=FIXT.1.1|9=55|35=0|34=180|49=EXEC|52=20200228-14:47:38.440|56=BANZAI|10=105|
8=FIXT.1.1|9=55|35=0|34=178|49=BANZAI|52=20200228-14:47:53.955|56=EXEC|10=120|
8=FIXT.1.1|9=55|35=0|34=181|49=EXEC|52=20200228-14:47:58.440|56=BANZAI|10=108|
8=FIXT.1.1|9=55|35=0|34=179|49=BANZAI|52=20200228-14:48:13.959|56=EXEC|10=122|
8=FIXT.1.1|9=55|35=0|34=182|49=EXEC|52=20200228-14:48:18.441|56=BANZAI|10=107|
8=FIXT.1.1|9=55|35=0|34=180|49=BANZAI|52=20200228-14:48:33.962|56=EXEC|10=110|
8=FIXT.1.1|9=55|35=0|34=183|49=EXEC|52=20200228-14:48:38.440|56=BANZAI|10=109|
8=FIXT.1.1|9=55|35=0|34=181|49=BANZAI|52=20200228-14:48:53.989|56=EXEC|10=122|
8=FIXT.1.1|9=55|35=0|34=184|49=EXEC|52=20200228-14:48:58.440|56=BANZAI|10=112|
8=FIXT.1.1|9=55|35=0|34=182|49=BANZAI|52=20200228-14:49:13.993|56=EXEC|10=115|
8=FIXT.1.1|9=55|35=0|34=185|49=EXEC|52=20200228-14:49:18.440|56=BANZAI|10=110|
8=FIXT.1.1|9=55|35=0|34=183|49=BANZAI|52=20200228-14:49:33.995|56=EXEC|10=120|
8=FIXT.1.1|9=55|35=0|34=186|49=EXEC|52=20200228-14:49:38.440|56=BANZAI|10=113|
8=FIXT.1.1|9=55|35=0|34=184|49=BANZAI|52=20200228-14:49:53.998|56=EXEC|10=126|
8=FIXT.1.1|9=55|35=0|34=187|49=EXEC|52=20200228-14:49:58.440|56=BANZAI|10=116|
8=FIXT.1.1|9=55|35=0|34=185|49=BANZAI|52=20200228-14:50:14.001|56=EXEC|10=091|
8=FIXT.1.1|9=55|35=0|34=188|49=EXEC|52=20200228-14:50:18.440|56=BANZAI|10=105|
8=FIXT.1.1|9=74|35=A|34=186|49=BANZAI|52=20200228-16:00:04.847|56=EXEC|98=0|108=20|1137=9|10=215|
8=FIXT.1.1|9=74|35=A|34=189|49=EXEC|52=20200228-16:00:05.057|56=BANZAI|98=0|108=20|1137=9|10=212|
8=FIXT.1.1|9=55|35=0|34=187|49=BANZAI|52=20200228-16:00:24.850|56=EXEC|10=103|
8=FIXT.1.1|9=55|35=0|34=190|49=EXEC|52=20200228-16:00:25.141|56=BANZAI|10=091|
8=FIXT.1.1|9=55|35=0|34=188|49=BANZAI|52=20200228-16:00:44.853|56=EXEC|10=109|
8=FIXT.1.1|9=55|35=0|34=191|49=EXEC|52=20200228-16:00:45.141|56=BANZAI|10=094|
8=FIXT.1.1|9=55|35=0|34=189|49=BANZAI|52=20200228-16:01:04.856|56=EXEC|10=110|
8=FIXT.1.1|9=55|35=0|34=192|49=EXEC|52=20200228-16:01:05.141|56=BANZAI|10=092|
8=FIXT.1.1|9=55|35=0|34=190|49=BANZAI|52=20200228-16:01:24.860|56=EXEC|10=099|
8=FIXT.1.1|9=55|35=0|34=193|49=EXEC|52=20200228-16:01:25.140|56=BANZAI|10=094|
8=FIXT.1.1|9=55|35=0|34=191|49=BANZAI|52=20200228-16:01:44.863|56=EXEC|10=105|
8=FIXT.1.1|9=55|35=0|34=194|49=EXEC|52=20200228-16:01:45.140|56=BANZAI|10=097|
8=FIXT.1.1|9=153|35=D|34=192|49=BANZAI|52=20200228-16:01:53.943|56=EXEC|11=a36e2257-5a43-11ea-b150-7427ea59c5e5|38=10|40=7|44=19.36|54=1|55=MSFT|60=20200228-16:01:53.943|10=109|
8=FIXT.1.1|9=215|35=8|34=195|49=EXEC|52=20200228-16:01:57.595|56=BANZAI|6=0|11=a36e2257-5a43-11ea-b150-7427ea59c5e5|14=0|17=c6acf5e0-fc70-4e33-b50d-e68c305155d0|37=9cec098e-3e8f-4079-acaa-dffbc1aba1fd|39=0|54=1|55=MSFT|150=0|151=10|10=113|
8=FIXT.1.1|9=55|35=0|34=193|49=BANZAI|52=20200228-16:02:13.946|56=EXEC|10=106|
8=FIXT.1.1|9=55|35=0|34=196|49=EXEC|52=20200228-16:02:18.140|56=BANZAI|10=100|
8=FIXT.1.1|9=55|35=0|34=194|49=BANZAI|52=20200228-16:02:33.949|56=EXEC|10=112|
8=FIXT.1.1|9=55|35=0|34=197|49=EXEC|52=20200228-16:02:38.140|56=BANZAI|10=103|
